{
	"data": {
		"bytecode": {
			"linkReferences": {},
			"object": "6080604052662386f26fc100006001553480156019575f5ffd5b50335f5f6101000a81548173ffffffffffffffffffffffffffffffffffffffff021916908373ffffffffffffffffffffffffffffffffffffffff1602179055506114b7806100665f395ff3fe6080604052600436106100aa575f3560e01c8063856e44e311610063578063856e44e3146102175780639b620d7914610241578063bb864be314610269578063c3de6c741461027f578063cd871ae0146102be578063e529953a146102e85761013d565b806304fa7e3c146101415780631d7f2625146101695780632f12f9961461019157806343b4aca5146101cd5780635b590675146101e357806381fb38031461020d5761013d565b3661013d573460035f3373ffffffffffffffffffffffffffffffffffffffff1673ffffffffffffffffffffffffffffffffffffffff1681526020019081526020015f205f8282546100fb9190610d07565b925050819055507f537a4888663bf338e0f1e0a482244d95c4a9924065740c78b417480b31c318e43334604051610133929190610d88565b60405180910390a1005b5f5ffd5b34801561014c575f5ffd5b5061016760048036038101906101629190610e12565b610325565b005b348015610174575f5ffd5b5061018f600480360381019061018a9190610e7a565b61040b565b005b34801561019c575f5ffd5b506101b760048036038101906101b29190610ea5565b610785565b6040516101c49190610edf565b60405180910390f35b3480156101d8575f5ffd5b506101e16107a2565b005b3480156101ee575f5ffd5b506101f761094c565b6040516102049190610ef8565b60405180910390f35b610215610958565b005b348015610222575f5ffd5b5061022b610a28565b6040516102389190610f11565b60405180910390f35b34801561024c575f5ffd5b5061026760048036038101906102629190610e7a565b610a4c565b005b348015610274575f5ffd5b5061027d610af7565b005b34801561028a575f5ffd5b506102a560048036038101906102a09190610e7a565b610beb565b6040516102b59493929190610f2a565b60405180910390f35b3480156102c9575f5ffd5b506102d2610c45565b6040516102df9190610ef8565b60405180910390f35b3480156102f3575f5ffd5b5061030e60048036038101906103099190610ea5565b610c4b565b60405161031c929190610f6d565b60405180910390f35b5f5f9054906101000a900473ffffffffffffffffffffffffffffffffffffffff1673ffffffffffffffffffffffffffffffffffffffff163373ffffffffffffffffffffffffffffffffffffffff16146103b3576040517f08c379a00000000000000000000000000000000000000000000000000000000081526004016103aa90610fee565b60405180910390fd5b8060025f8473ffffffffffffffffffffffffffffffffffffffff1673ffffffffffffffffffffffffffffffffffffffff1681526020019081526020015f205f6101000a81548160ff0219169083151502179055505050565b60025f3373ffffffffffffffffffffffffffffffffffffffff1673ffffffffffffffffffffffffffffffffffffffff1681526020019081526020015f205f9054906101000a900460ff16610494576040517f08c379a000000000000000000000000000000000000000000000000000000000815260040161048b90611056565b60405180910390fd5b5f81116104d6576040517f08c379a00000000000000000000000000000000000000000000000000000000081526004016104cd906110be565b60405180910390fd5b5f816001546104e591906110dc565b90508060035f3373ffffffffffffffffffffffffffffffffffffffff1673ffffffffffffffffffffffffffffffffffffffff1681526020019081526020015f20541015610567576040517f08c379a000000000000000000000000000000000000000000000000000000000815260040161055e90611167565b60405180910390fd5b8060035f3373ffffffffffffffffffffffffffffffffffffffff1673ffffffffffffffffffffffffffffffffffffffff1681526020019081526020015f205f8282546105b39190611185565b925050819055505f5f5f9054906101000a900473ffffffffffffffffffffffffffffffffffffffff1673ffffffffffffffffffffffffffffffffffffffff16826040516105ff906111e5565b5f6040518083038185875af1925050503d805f8114610639576040519150601f19603f3d011682016040523d82523d5f602084013e61063e565b606091505b5050905080610682576040517f08c379a000000000000000000000000000000000000000000000000000000000815260040161067990611269565b60405180910390fd5b7f5a085bd44a53f6f30890ee12ccfcd2f694b04dd47fc99be5617fc6543720a0103384846040516106b593929190611287565b60405180910390a1600460405180608001604052803373ffffffffffffffffffffffffffffffffffffffff16815260200185815260200184815260200142815250908060018154018082558091505060019003905f5260205f2090600402015f909190919091505f820151815f015f6101000a81548173ffffffffffffffffffffffffffffffffffffffff021916908373ffffffffffffffffffffffffffffffffffffffff1602179055506020820151816001015560408201518160020155606082015181600301555050505050565b6002602052805f5260405f205f915054906101000a900460ff1681565b5f60035f3373ffffffffffffffffffffffffffffffffffffffff1673ffffffffffffffffffffffffffffffffffffffff1681526020019081526020015f205490505f8111610825576040517f08c379a000000000000000000000000000000000000000000000000000000000815260040161081c90611306565b60405180910390fd5b5f60035f3373ffffffffffffffffffffffffffffffffffffffff1673ffffffffffffffffffffffffffffffffffffffff1681526020019081526020015f20819055505f3373ffffffffffffffffffffffffffffffffffffffff168260405161088c906111e5565b5f6040518083038185875af1925050503d805f81146108c6576040519150601f19603f3d011682016040523d82523d5f602084013e6108cb565b606091505b505090508061090f576040517f08c379a00000000000000000000000000000000000000000000000000000000081526004016109069061136e565b60405180910390fd5b7f304ded04755264f107034cb25c290971bc22f9daba5725de3966bfa5d2a6e7683383604051610940929190610d88565b60405180910390a15050565b5f600480549050905090565b5f341161099a576040517f08c379a0000000000000000000000000000000000000000000000000000000008152600401610991906113d6565b60405180910390fd5b3460035f3373ffffffffffffffffffffffffffffffffffffffff1673ffffffffffffffffffffffffffffffffffffffff1681526020019081526020015f205f8282546109e69190610d07565b925050819055507f537a4888663bf338e0f1e0a482244d95c4a9924065740c78b417480b31c318e43334604051610a1e929190610d88565b60405180910390a1565b5f5f9054906101000a900473ffffffffffffffffffffffffffffffffffffffff1681565b5f5f9054906101000a900473ffffffffffffffffffffffffffffffffffffffff1673ffffffffffffffffffffffffffffffffffffffff163373ffffffffffffffffffffffffffffffffffffffff1614610ada576040517f08c379a0000000000000000000000000000000000000000000000000000000008152600401610ad190610fee565b60405180910390fd5b670de0b6b3a764000081610aee91906110dc565b60018190555050565b5f5f9054906101000a900473ffffffffffffffffffffffffffffffffffffffff1673ffffffffffffffffffffffffffffffffffffffff163373ffffffffffffffffffffffffffffffffffffffff1614610b85576040517f08c379a0000000000000000000000000000000000000000000000000000000008152600401610b7c90610fee565b60405180910390fd5b5f5f9054906101000a900473ffffffffffffffffffffffffffffffffffffffff1673ffffffffffffffffffffffffffffffffffffffff166108fc4790811502906040515f60405180830381858888f19350505050158015610be8573d5f5f3e3d5ffd5b50565b60048181548110610bfa575f80fd5b905f5260205f2090600402015f91509050805f015f9054906101000a900473ffffffffffffffffffffffffffffffffffffffff16908060010154908060020154908060030154905084565b60015481565b5f5f5f60035f8573ffffffffffffffffffffffffffffffffffffffff1673ffffffffffffffffffffffffffffffffffffffff1681526020019081526020015f20549050670de0b6b3a764000081610ca29190611421565b9250655af3107a4000670de0b6b3a764000082610cbf9190611451565b610cc99190611421565b915050915091565b5f819050919050565b7f4e487b71000000000000000000000000000000000000000000000000000000005f52601160045260245ffd5b5f610d1182610cd1565b9150610d1c83610cd1565b9250828201905080821115610d3457610d33610cda565b5b92915050565b5f73ffffffffffffffffffffffffffffffffffffffff82169050919050565b5f610d6382610d3a565b9050919050565b610d7381610d59565b82525050565b610d8281610cd1565b82525050565b5f604082019050610d9b5f830185610d6a565b610da86020830184610d79565b9392505050565b5f5ffd5b610dbc81610d59565b8114610dc6575f5ffd5b50565b5f81359050610dd781610db3565b92915050565b5f8115159050919050565b610df181610ddd565b8114610dfb575f5ffd5b50565b5f81359050610e0c81610de8565b92915050565b5f5f60408385031215610e2857610e27610daf565b5b5f610e3585828601610dc9565b9250506020610e4685828601610dfe565b9150509250929050565b610e5981610cd1565b8114610e63575f5ffd5b50565b5f81359050610e7481610e50565b92915050565b5f60208284031215610e8f57610e8e610daf565b5b5f610e9c84828501610e66565b91505092915050565b5f60208284031215610eba57610eb9610daf565b5b5f610ec784828501610dc9565b91505092915050565b610ed981610ddd565b82525050565b5f602082019050610ef25f830184610ed0565b92915050565b5f602082019050610f0b5f830184610d79565b92915050565b5f602082019050610f245f830184610d6a565b92915050565b5f608082019050610f3d5f830187610d6a565b610f4a6020830186610d79565b610f576040830185610d79565b610f646060830184610d79565b95945050505050565b5f604082019050610f805f830185610d79565b610f8d6020830184610d79565b9392505050565b5f82825260208201905092915050565b7f4e757220426574726569626572210000000000000000000000000000000000005f82015250565b5f610fd8600e83610f94565b9150610fe382610fa4565b602082019050919050565b5f6020820190508181035f83015261100581610fcc565b9050919050565b7f4e696368742062657265636874696774210000000000000000000000000000005f82015250565b5f611040601183610f94565b915061104b8261100c565b602082019050919050565b5f6020820190508181035f83015261106d81611034565b9050919050565b7f6b5768206d757373203e2030207365696e0000000000000000000000000000005f82015250565b5f6110a8601183610f94565b91506110b382611074565b602082019050919050565b5f6020820190508181035f8301526110d58161109c565b9050919050565b5f6110e682610cd1565b91506110f183610cd1565b92508282026110ff81610cd1565b9150828204841483151761111657611115610cda565b5b5092915050565b7f4e696368742067656e756720477574686162656e2100000000000000000000005f82015250565b5f611151601583610f94565b915061115c8261111d565b602082019050919050565b5f6020820190508181035f83015261117e81611145565b9050919050565b5f61118f82610cd1565b915061119a83610cd1565b92508282039050818111156111b2576111b1610cda565b5b92915050565b5f81905092915050565b50565b5f6111d05f836111b8565b91506111db826111c2565b5f82019050919050565b5f6111ef826111c5565b9150819050919050565b7f556562657277656973756e6720616e20426574726569626572206665686c67655f8201527f7363686c6167656e210000000000000000000000000000000000000000000000602082015250565b5f611253602983610f94565b915061125e826111f9565b604082019050919050565b5f6020820190508181035f83015261128081611247565b9050919050565b5f60608201905061129a5f830186610d6a565b6112a76020830185610d79565b6112b46040830184610d79565b949350505050565b7f4b65696e20477574686162656e20766f7268616e64656e2100000000000000005f82015250565b5f6112f0601883610f94565b91506112fb826112bc565b602082019050919050565b5f6020820190508181035f83015261131d816112e4565b9050919050565b7f4175737a61686c756e67206665686c67657363686c6167656e210000000000005f82015250565b5f611358601a83610f94565b915061136382611324565b602082019050919050565b5f6020820190508181035f8301526113858161134c565b9050919050565b7f4269747465204554482073656e64656e210000000000000000000000000000005f82015250565b5f6113c0601183610f94565b91506113cb8261138c565b602082019050919050565b5f6020820190508181035f8301526113ed816113b4565b9050919050565b7f4e487b71000000000000000000000000000000000000000000000000000000005f52601260045260245ffd5b5f61142b82610cd1565b915061143683610cd1565b925082611446576114456113f4565b5b828204905092915050565b5f61145b82610cd1565b915061146683610cd1565b925082611476576114756113f4565b5b82820690509291505056fea26469706673582212207aa348c041cf4553da4c9a3619520880c2e38789aa18c74360f0ee5f4dba6bef64736f6c634300081e0033",
			"opcodes": "PUSH1 0x80 PUSH1 0x40 MSTORE PUSH7 0x2386F26FC10000 PUSH1 0x1 SSTORE CALLVALUE DUP1 ISZERO PUSH1 0x19 JUMPI PUSH0 PUSH0 REVERT JUMPDEST POP CALLER PUSH0 PUSH0 PUSH2 0x100 EXP DUP2 SLOAD DUP2 PUSH20 0xFFFFFFFFFFFFFFFFFFFFFFFFFFFFFFFFFFFFFFFF MUL NOT AND SWAP1 DUP4 PUSH20 0xFFFFFFFFFFFFFFFFFFFFFFFFFFFFFFFFFFFFFFFF AND MUL OR SWAP1 SSTORE POP PUSH2 0x14B7 DUP1 PUSH2 0x66 PUSH0 CODECOPY PUSH0 RETURN INVALID PUSH1 0x80 PUSH1 0x40 MSTORE PUSH1 0x4 CALLDATASIZE LT PUSH2 0xAA JUMPI PUSH0 CALLDATALOAD PUSH1 0xE0 SHR DUP1 PUSH4 0x856E44E3 GT PUSH2 0x63 JUMPI DUP1 PUSH4 0x856E44E3 EQ PUSH2 0x217 JUMPI DUP1 PUSH4 0x9B620D79 EQ PUSH2 0x241 JUMPI DUP1 PUSH4 0xBB864BE3 EQ PUSH2 0x269 JUMPI DUP1 PUSH4 0xC3DE6C74 EQ PUSH2 0x27F JUMPI DUP1 PUSH4 0xCD871AE0 EQ PUSH2 0x2BE JUMPI DUP1 PUSH4 0xE529953A EQ PUSH2 0x2E8 JUMPI PUSH2 0x13D JUMP JUMPDEST DUP1 PUSH4 0x4FA7E3C EQ PUSH2 0x141 JUMPI DUP1 PUSH4 0x1D7F2625 EQ PUSH2 0x169 JUMPI DUP1 PUSH4 0x2F12F996 EQ PUSH2 0x191 JUMPI DUP1 PUSH4 0x43B4ACA5 EQ PUSH2 0x1CD JUMPI DUP1 PUSH4 0x5B590675 EQ PUSH2 0x1E3 JUMPI DUP1 PUSH4 0x81FB3803 EQ PUSH2 0x20D JUMPI PUSH2 0x13D JUMP JUMPDEST CALLDATASIZE PUSH2 0x13D JUMPI CALLVALUE PUSH1 0x3 PUSH0 CALLER PUSH20 0xFFFFFFFFFFFFFFFFFFFFFFFFFFFFFFFFFFFFFFFF AND PUSH20 0xFFFFFFFFFFFFFFFFFFFFFFFFFFFFFFFFFFFFFFFF AND DUP2 MSTORE PUSH1 0x20 ADD SWAP1 DUP2 MSTORE PUSH1 0x20 ADD PUSH0 KECCAK256 PUSH0 DUP3 DUP3 SLOAD PUSH2 0xFB SWAP2 SWAP1 PUSH2 0xD07 JUMP JUMPDEST SWAP3 POP POP DUP2 SWAP1 SSTORE POP PUSH32 0x537A4888663BF338E0F1E0A482244D95C4A9924065740C78B417480B31C318E4 CALLER CALLVALUE PUSH1 0x40 MLOAD PUSH2 0x133 SWAP3 SWAP2 SWAP1 PUSH2 0xD88 JUMP JUMPDEST PUSH1 0x40 MLOAD DUP1 SWAP2 SUB SWAP1 LOG1 STOP JUMPDEST PUSH0 PUSH0 REVERT JUMPDEST CALLVALUE DUP1 ISZERO PUSH2 0x14C JUMPI PUSH0 PUSH0 REVERT JUMPDEST POP PUSH2 0x167 PUSH1 0x4 DUP1 CALLDATASIZE SUB DUP2 ADD SWAP1 PUSH2 0x162 SWAP2 SWAP1 PUSH2 0xE12 JUMP JUMPDEST PUSH2 0x325 JUMP JUMPDEST STOP JUMPDEST CALLVALUE DUP1 ISZERO PUSH2 0x174 JUMPI PUSH0 PUSH0 REVERT JUMPDEST POP PUSH2 0x18F PUSH1 0x4 DUP1 CALLDATASIZE SUB DUP2 ADD SWAP1 PUSH2 0x18A SWAP2 SWAP1 PUSH2 0xE7A JUMP JUMPDEST PUSH2 0x40B JUMP JUMPDEST STOP JUMPDEST CALLVALUE DUP1 ISZERO PUSH2 0x19C JUMPI PUSH0 PUSH0 REVERT JUMPDEST POP PUSH2 0x1B7 PUSH1 0x4 DUP1 CALLDATASIZE SUB DUP2 ADD SWAP1 PUSH2 0x1B2 SWAP2 SWAP1 PUSH2 0xEA5 JUMP JUMPDEST PUSH2 0x785 JUMP JUMPDEST PUSH1 0x40 MLOAD PUSH2 0x1C4 SWAP2 SWAP1 PUSH2 0xEDF JUMP JUMPDEST PUSH1 0x40 MLOAD DUP1 SWAP2 SUB SWAP1 RETURN JUMPDEST CALLVALUE DUP1 ISZERO PUSH2 0x1D8 JUMPI PUSH0 PUSH0 REVERT JUMPDEST POP PUSH2 0x1E1 PUSH2 0x7A2 JUMP JUMPDEST STOP JUMPDEST CALLVALUE DUP1 ISZERO PUSH2 0x1EE JUMPI PUSH0 PUSH0 REVERT JUMPDEST POP PUSH2 0x1F7 PUSH2 0x94C JUMP JUMPDEST PUSH1 0x40 MLOAD PUSH2 0x204 SWAP2 SWAP1 PUSH2 0xEF8 JUMP JUMPDEST PUSH1 0x40 MLOAD DUP1 SWAP2 SUB SWAP1 RETURN JUMPDEST PUSH2 0x215 PUSH2 0x958 JUMP JUMPDEST STOP JUMPDEST CALLVALUE DUP1 ISZERO PUSH2 0x222 JUMPI PUSH0 PUSH0 REVERT JUMPDEST POP PUSH2 0x22B PUSH2 0xA28 JUMP JUMPDEST PUSH1 0x40 MLOAD PUSH2 0x238 SWAP2 SWAP1 PUSH2 0xF11 JUMP JUMPDEST PUSH1 0x40 MLOAD DUP1 SWAP2 SUB SWAP1 RETURN JUMPDEST CALLVALUE DUP1 ISZERO PUSH2 0x24C JUMPI PUSH0 PUSH0 REVERT JUMPDEST POP PUSH2 0x267 PUSH1 0x4 DUP1 CALLDATASIZE SUB DUP2 ADD SWAP1 PUSH2 0x262 SWAP2 SWAP1 PUSH2 0xE7A JUMP JUMPDEST PUSH2 0xA4C JUMP JUMPDEST STOP JUMPDEST CALLVALUE DUP1 ISZERO PUSH2 0x274 JUMPI PUSH0 PUSH0 REVERT JUMPDEST POP PUSH2 0x27D PUSH2 0xAF7 JUMP JUMPDEST STOP JUMPDEST CALLVALUE DUP1 ISZERO PUSH2 0x28A JUMPI PUSH0 PUSH0 REVERT JUMPDEST POP PUSH2 0x2A5 PUSH1 0x4 DUP1 CALLDATASIZE SUB DUP2 ADD SWAP1 PUSH2 0x2A0 SWAP2 SWAP1 PUSH2 0xE7A JUMP JUMPDEST PUSH2 0xBEB JUMP JUMPDEST PUSH1 0x40 MLOAD PUSH2 0x2B5 SWAP5 SWAP4 SWAP3 SWAP2 SWAP1 PUSH2 0xF2A JUMP JUMPDEST PUSH1 0x40 MLOAD DUP1 SWAP2 SUB SWAP1 RETURN JUMPDEST CALLVALUE DUP1 ISZERO PUSH2 0x2C9 JUMPI PUSH0 PUSH0 REVERT JUMPDEST POP PUSH2 0x2D2 PUSH2 0xC45 JUMP JUMPDEST PUSH1 0x40 MLOAD PUSH2 0x2DF SWAP2 SWAP1 PUSH2 0xEF8 JUMP JUMPDEST PUSH1 0x40 MLOAD DUP1 SWAP2 SUB SWAP1 RETURN JUMPDEST CALLVALUE DUP1 ISZERO PUSH2 0x2F3 JUMPI PUSH0 PUSH0 REVERT JUMPDEST POP PUSH2 0x30E PUSH1 0x4 DUP1 CALLDATASIZE SUB DUP2 ADD SWAP1 PUSH2 0x309 SWAP2 SWAP1 PUSH2 0xEA5 JUMP JUMPDEST PUSH2 0xC4B JUMP JUMPDEST PUSH1 0x40 MLOAD PUSH2 0x31C SWAP3 SWAP2 SWAP1 PUSH2 0xF6D JUMP JUMPDEST PUSH1 0x40 MLOAD DUP1 SWAP2 SUB SWAP1 RETURN JUMPDEST PUSH0 PUSH0 SWAP1 SLOAD SWAP1 PUSH2 0x100 EXP SWAP1 DIV PUSH20 0xFFFFFFFFFFFFFFFFFFFFFFFFFFFFFFFFFFFFFFFF AND PUSH20 0xFFFFFFFFFFFFFFFFFFFFFFFFFFFFFFFFFFFFFFFF AND CALLER PUSH20 0xFFFFFFFFFFFFFFFFFFFFFFFFFFFFFFFFFFFFFFFF AND EQ PUSH2 0x3B3 JUMPI PUSH1 0x40 MLOAD PUSH32 0x8C379A000000000000000000000000000000000000000000000000000000000 DUP2 MSTORE PUSH1 0x4 ADD PUSH2 0x3AA SWAP1 PUSH2 0xFEE JUMP JUMPDEST PUSH1 0x40 MLOAD DUP1 SWAP2 SUB SWAP1 REVERT JUMPDEST DUP1 PUSH1 0x2 PUSH0 DUP5 PUSH20 0xFFFFFFFFFFFFFFFFFFFFFFFFFFFFFFFFFFFFFFFF AND PUSH20 0xFFFFFFFFFFFFFFFFFFFFFFFFFFFFFFFFFFFFFFFF AND DUP2 MSTORE PUSH1 0x20 ADD SWAP1 DUP2 MSTORE PUSH1 0x20 ADD PUSH0 KECCAK256 PUSH0 PUSH2 0x100 EXP DUP2 SLOAD DUP2 PUSH1 0xFF MUL NOT AND SWAP1 DUP4 ISZERO ISZERO MUL OR SWAP1 SSTORE POP POP POP JUMP JUMPDEST PUSH1 0x2 PUSH0 CALLER PUSH20 0xFFFFFFFFFFFFFFFFFFFFFFFFFFFFFFFFFFFFFFFF AND PUSH20 0xFFFFFFFFFFFFFFFFFFFFFFFFFFFFFFFFFFFFFFFF AND DUP2 MSTORE PUSH1 0x20 ADD SWAP1 DUP2 MSTORE PUSH1 0x20 ADD PUSH0 KECCAK256 PUSH0 SWAP1 SLOAD SWAP1 PUSH2 0x100 EXP SWAP1 DIV PUSH1 0xFF AND PUSH2 0x494 JUMPI PUSH1 0x40 MLOAD PUSH32 0x8C379A000000000000000000000000000000000000000000000000000000000 DUP2 MSTORE PUSH1 0x4 ADD PUSH2 0x48B SWAP1 PUSH2 0x1056 JUMP JUMPDEST PUSH1 0x40 MLOAD DUP1 SWAP2 SUB SWAP1 REVERT JUMPDEST PUSH0 DUP2 GT PUSH2 0x4D6 JUMPI PUSH1 0x40 MLOAD PUSH32 0x8C379A000000000000000000000000000000000000000000000000000000000 DUP2 MSTORE PUSH1 0x4 ADD PUSH2 0x4CD SWAP1 PUSH2 0x10BE JUMP JUMPDEST PUSH1 0x40 MLOAD DUP1 SWAP2 SUB SWAP1 REVERT JUMPDEST PUSH0 DUP2 PUSH1 0x1 SLOAD PUSH2 0x4E5 SWAP2 SWAP1 PUSH2 0x10DC JUMP JUMPDEST SWAP1 POP DUP1 PUSH1 0x3 PUSH0 CALLER PUSH20 0xFFFFFFFFFFFFFFFFFFFFFFFFFFFFFFFFFFFFFFFF AND PUSH20 0xFFFFFFFFFFFFFFFFFFFFFFFFFFFFFFFFFFFFFFFF AND DUP2 MSTORE PUSH1 0x20 ADD SWAP1 DUP2 MSTORE PUSH1 0x20 ADD PUSH0 KECCAK256 SLOAD LT ISZERO PUSH2 0x567 JUMPI PUSH1 0x40 MLOAD PUSH32 0x8C379A000000000000000000000000000000000000000000000000000000000 DUP2 MSTORE PUSH1 0x4 ADD PUSH2 0x55E SWAP1 PUSH2 0x1167 JUMP JUMPDEST PUSH1 0x40 MLOAD DUP1 SWAP2 SUB SWAP1 REVERT JUMPDEST DUP1 PUSH1 0x3 PUSH0 CALLER PUSH20 0xFFFFFFFFFFFFFFFFFFFFFFFFFFFFFFFFFFFFFFFF AND PUSH20 0xFFFFFFFFFFFFFFFFFFFFFFFFFFFFFFFFFFFFFFFF AND DUP2 MSTORE PUSH1 0x20 ADD SWAP1 DUP2 MSTORE PUSH1 0x20 ADD PUSH0 KECCAK256 PUSH0 DUP3 DUP3 SLOAD PUSH2 0x5B3 SWAP2 SWAP1 PUSH2 0x1185 JUMP JUMPDEST SWAP3 POP POP DUP2 SWAP1 SSTORE POP PUSH0 PUSH0 PUSH0 SWAP1 SLOAD SWAP1 PUSH2 0x100 EXP SWAP1 DIV PUSH20 0xFFFFFFFFFFFFFFFFFFFFFFFFFFFFFFFFFFFFFFFF AND PUSH20 0xFFFFFFFFFFFFFFFFFFFFFFFFFFFFFFFFFFFFFFFF AND DUP3 PUSH1 0x40 MLOAD PUSH2 0x5FF SWAP1 PUSH2 0x11E5 JUMP JUMPDEST PUSH0 PUSH1 0x40 MLOAD DUP1 DUP4 SUB DUP2 DUP6 DUP8 GAS CALL SWAP3 POP POP POP RETURNDATASIZE DUP1 PUSH0 DUP2 EQ PUSH2 0x639 JUMPI PUSH1 0x40 MLOAD SWAP2 POP PUSH1 0x1F NOT PUSH1 0x3F RETURNDATASIZE ADD AND DUP3 ADD PUSH1 0x40 MSTORE RETURNDATASIZE DUP3 MSTORE RETURNDATASIZE PUSH0 PUSH1 0x20 DUP5 ADD RETURNDATACOPY PUSH2 0x63E JUMP JUMPDEST PUSH1 0x60 SWAP2 POP JUMPDEST POP POP SWAP1 POP DUP1 PUSH2 0x682 JUMPI PUSH1 0x40 MLOAD PUSH32 0x8C379A000000000000000000000000000000000000000000000000000000000 DUP2 MSTORE PUSH1 0x4 ADD PUSH2 0x679 SWAP1 PUSH2 0x1269 JUMP JUMPDEST PUSH1 0x40 MLOAD DUP1 SWAP2 SUB SWAP1 REVERT JUMPDEST PUSH32 0x5A085BD44A53F6F30890EE12CCFCD2F694B04DD47FC99BE5617FC6543720A010 CALLER DUP5 DUP5 PUSH1 0x40 MLOAD PUSH2 0x6B5 SWAP4 SWAP3 SWAP2 SWAP1 PUSH2 0x1287 JUMP JUMPDEST PUSH1 0x40 MLOAD DUP1 SWAP2 SUB SWAP1 LOG1 PUSH1 0x4 PUSH1 0x40 MLOAD DUP1 PUSH1 0x80 ADD PUSH1 0x40 MSTORE DUP1 CALLER PUSH20 0xFFFFFFFFFFFFFFFFFFFFFFFFFFFFFFFFFFFFFFFF AND DUP2 MSTORE PUSH1 0x20 ADD DUP6 DUP2 MSTORE PUSH1 0x20 ADD DUP5 DUP2 MSTORE PUSH1 0x20 ADD TIMESTAMP DUP2 MSTORE POP SWAP1 DUP1 PUSH1 0x1 DUP2 SLOAD ADD DUP1 DUP3 SSTORE DUP1 SWAP2 POP POP PUSH1 0x1 SWAP1 SUB SWAP1 PUSH0 MSTORE PUSH1 0x20 PUSH0 KECCAK256 SWAP1 PUSH1 0x4 MUL ADD PUSH0 SWAP1 SWAP2 SWAP1 SWAP2 SWAP1 SWAP2 POP PUSH0 DUP3 ADD MLOAD DUP2 PUSH0 ADD PUSH0 PUSH2 0x100 EXP DUP2 SLOAD DUP2 PUSH20 0xFFFFFFFFFFFFFFFFFFFFFFFFFFFFFFFFFFFFFFFF MUL NOT AND SWAP1 DUP4 PUSH20 0xFFFFFFFFFFFFFFFFFFFFFFFFFFFFFFFFFFFFFFFF AND MUL OR SWAP1 SSTORE POP PUSH1 0x20 DUP3 ADD MLOAD DUP2 PUSH1 0x1 ADD SSTORE PUSH1 0x40 DUP3 ADD MLOAD DUP2 PUSH1 0x2 ADD SSTORE PUSH1 0x60 DUP3 ADD MLOAD DUP2 PUSH1 0x3 ADD SSTORE POP POP POP POP POP JUMP JUMPDEST PUSH1 0x2 PUSH1 0x20 MSTORE DUP1 PUSH0 MSTORE PUSH1 0x40 PUSH0 KECCAK256 PUSH0 SWAP2 POP SLOAD SWAP1 PUSH2 0x100 EXP SWAP1 DIV PUSH1 0xFF AND DUP2 JUMP JUMPDEST PUSH0 PUSH1 0x3 PUSH0 CALLER PUSH20 0xFFFFFFFFFFFFFFFFFFFFFFFFFFFFFFFFFFFFFFFF AND PUSH20 0xFFFFFFFFFFFFFFFFFFFFFFFFFFFFFFFFFFFFFFFF AND DUP2 MSTORE PUSH1 0x20 ADD SWAP1 DUP2 MSTORE PUSH1 0x20 ADD PUSH0 KECCAK256 SLOAD SWAP1 POP PUSH0 DUP2 GT PUSH2 0x825 JUMPI PUSH1 0x40 MLOAD PUSH32 0x8C379A000000000000000000000000000000000000000000000000000000000 DUP2 MSTORE PUSH1 0x4 ADD PUSH2 0x81C SWAP1 PUSH2 0x1306 JUMP JUMPDEST PUSH1 0x40 MLOAD DUP1 SWAP2 SUB SWAP1 REVERT JUMPDEST PUSH0 PUSH1 0x3 PUSH0 CALLER PUSH20 0xFFFFFFFFFFFFFFFFFFFFFFFFFFFFFFFFFFFFFFFF AND PUSH20 0xFFFFFFFFFFFFFFFFFFFFFFFFFFFFFFFFFFFFFFFF AND DUP2 MSTORE PUSH1 0x20 ADD SWAP1 DUP2 MSTORE PUSH1 0x20 ADD PUSH0 KECCAK256 DUP2 SWAP1 SSTORE POP PUSH0 CALLER PUSH20 0xFFFFFFFFFFFFFFFFFFFFFFFFFFFFFFFFFFFFFFFF AND DUP3 PUSH1 0x40 MLOAD PUSH2 0x88C SWAP1 PUSH2 0x11E5 JUMP JUMPDEST PUSH0 PUSH1 0x40 MLOAD DUP1 DUP4 SUB DUP2 DUP6 DUP8 GAS CALL SWAP3 POP POP POP RETURNDATASIZE DUP1 PUSH0 DUP2 EQ PUSH2 0x8C6 JUMPI PUSH1 0x40 MLOAD SWAP2 POP PUSH1 0x1F NOT PUSH1 0x3F RETURNDATASIZE ADD AND DUP3 ADD PUSH1 0x40 MSTORE RETURNDATASIZE DUP3 MSTORE RETURNDATASIZE PUSH0 PUSH1 0x20 DUP5 ADD RETURNDATACOPY PUSH2 0x8CB JUMP JUMPDEST PUSH1 0x60 SWAP2 POP JUMPDEST POP POP SWAP1 POP DUP1 PUSH2 0x90F JUMPI PUSH1 0x40 MLOAD PUSH32 0x8C379A000000000000000000000000000000000000000000000000000000000 DUP2 MSTORE PUSH1 0x4 ADD PUSH2 0x906 SWAP1 PUSH2 0x136E JUMP JUMPDEST PUSH1 0x40 MLOAD DUP1 SWAP2 SUB SWAP1 REVERT JUMPDEST PUSH32 0x304DED04755264F107034CB25C290971BC22F9DABA5725DE3966BFA5D2A6E768 CALLER DUP4 PUSH1 0x40 MLOAD PUSH2 0x940 SWAP3 SWAP2 SWAP1 PUSH2 0xD88 JUMP JUMPDEST PUSH1 0x40 MLOAD DUP1 SWAP2 SUB SWAP1 LOG1 POP POP JUMP JUMPDEST PUSH0 PUSH1 0x4 DUP1 SLOAD SWAP1 POP SWAP1 POP SWAP1 JUMP JUMPDEST PUSH0 CALLVALUE GT PUSH2 0x99A JUMPI PUSH1 0x40 MLOAD PUSH32 0x8C379A000000000000000000000000000000000000000000000000000000000 DUP2 MSTORE PUSH1 0x4 ADD PUSH2 0x991 SWAP1 PUSH2 0x13D6 JUMP JUMPDEST PUSH1 0x40 MLOAD DUP1 SWAP2 SUB SWAP1 REVERT JUMPDEST CALLVALUE PUSH1 0x3 PUSH0 CALLER PUSH20 0xFFFFFFFFFFFFFFFFFFFFFFFFFFFFFFFFFFFFFFFF AND PUSH20 0xFFFFFFFFFFFFFFFFFFFFFFFFFFFFFFFFFFFFFFFF AND DUP2 MSTORE PUSH1 0x20 ADD SWAP1 DUP2 MSTORE PUSH1 0x20 ADD PUSH0 KECCAK256 PUSH0 DUP3 DUP3 SLOAD PUSH2 0x9E6 SWAP2 SWAP1 PUSH2 0xD07 JUMP JUMPDEST SWAP3 POP POP DUP2 SWAP1 SSTORE POP PUSH32 0x537A4888663BF338E0F1E0A482244D95C4A9924065740C78B417480B31C318E4 CALLER CALLVALUE PUSH1 0x40 MLOAD PUSH2 0xA1E SWAP3 SWAP2 SWAP1 PUSH2 0xD88 JUMP JUMPDEST PUSH1 0x40 MLOAD DUP1 SWAP2 SUB SWAP1 LOG1 JUMP JUMPDEST PUSH0 PUSH0 SWAP1 SLOAD SWAP1 PUSH2 0x100 EXP SWAP1 DIV PUSH20 0xFFFFFFFFFFFFFFFFFFFFFFFFFFFFFFFFFFFFFFFF AND DUP2 JUMP JUMPDEST PUSH0 PUSH0 SWAP1 SLOAD SWAP1 PUSH2 0x100 EXP SWAP1 DIV PUSH20 0xFFFFFFFFFFFFFFFFFFFFFFFFFFFFFFFFFFFFFFFF AND PUSH20 0xFFFFFFFFFFFFFFFFFFFFFFFFFFFFFFFFFFFFFFFF AND CALLER PUSH20 0xFFFFFFFFFFFFFFFFFFFFFFFFFFFFFFFFFFFFFFFF AND EQ PUSH2 0xADA JUMPI PUSH1 0x40 MLOAD PUSH32 0x8C379A000000000000000000000000000000000000000000000000000000000 DUP2 MSTORE PUSH1 0x4 ADD PUSH2 0xAD1 SWAP1 PUSH2 0xFEE JUMP JUMPDEST PUSH1 0x40 MLOAD DUP1 SWAP2 SUB SWAP1 REVERT JUMPDEST PUSH8 0xDE0B6B3A7640000 DUP2 PUSH2 0xAEE SWAP2 SWAP1 PUSH2 0x10DC JUMP JUMPDEST PUSH1 0x1 DUP2 SWAP1 SSTORE POP POP JUMP JUMPDEST PUSH0 PUSH0 SWAP1 SLOAD SWAP1 PUSH2 0x100 EXP SWAP1 DIV PUSH20 0xFFFFFFFFFFFFFFFFFFFFFFFFFFFFFFFFFFFFFFFF AND PUSH20 0xFFFFFFFFFFFFFFFFFFFFFFFFFFFFFFFFFFFFFFFF AND CALLER PUSH20 0xFFFFFFFFFFFFFFFFFFFFFFFFFFFFFFFFFFFFFFFF AND EQ PUSH2 0xB85 JUMPI PUSH1 0x40 MLOAD PUSH32 0x8C379A000000000000000000000000000000000000000000000000000000000 DUP2 MSTORE PUSH1 0x4 ADD PUSH2 0xB7C SWAP1 PUSH2 0xFEE JUMP JUMPDEST PUSH1 0x40 MLOAD DUP1 SWAP2 SUB SWAP1 REVERT JUMPDEST PUSH0 PUSH0 SWAP1 SLOAD SWAP1 PUSH2 0x100 EXP SWAP1 DIV PUSH20 0xFFFFFFFFFFFFFFFFFFFFFFFFFFFFFFFFFFFFFFFF AND PUSH20 0xFFFFFFFFFFFFFFFFFFFFFFFFFFFFFFFFFFFFFFFF AND PUSH2 0x8FC SELFBALANCE SWAP1 DUP2 ISZERO MUL SWAP1 PUSH1 0x40 MLOAD PUSH0 PUSH1 0x40 MLOAD DUP1 DUP4 SUB DUP2 DUP6 DUP9 DUP9 CALL SWAP4 POP POP POP POP ISZERO DUP1 ISZERO PUSH2 0xBE8 JUMPI RETURNDATASIZE PUSH0 PUSH0 RETURNDATACOPY RETURNDATASIZE PUSH0 REVERT JUMPDEST POP JUMP JUMPDEST PUSH1 0x4 DUP2 DUP2 SLOAD DUP2 LT PUSH2 0xBFA JUMPI PUSH0 DUP1 REVERT JUMPDEST SWAP1 PUSH0 MSTORE PUSH1 0x20 PUSH0 KECCAK256 SWAP1 PUSH1 0x4 MUL ADD PUSH0 SWAP2 POP SWAP1 POP DUP1 PUSH0 ADD PUSH0 SWAP1 SLOAD SWAP1 PUSH2 0x100 EXP SWAP1 DIV PUSH20 0xFFFFFFFFFFFFFFFFFFFFFFFFFFFFFFFFFFFFFFFF AND SWAP1 DUP1 PUSH1 0x1 ADD SLOAD SWAP1 DUP1 PUSH1 0x2 ADD SLOAD SWAP1 DUP1 PUSH1 0x3 ADD SLOAD SWAP1 POP DUP5 JUMP JUMPDEST PUSH1 0x1 SLOAD DUP2 JUMP JUMPDEST PUSH0 PUSH0 PUSH0 PUSH1 0x3 PUSH0 DUP6 PUSH20 0xFFFFFFFFFFFFFFFFFFFFFFFFFFFFFFFFFFFFFFFF AND PUSH20 0xFFFFFFFFFFFFFFFFFFFFFFFFFFFFFFFFFFFFFFFF AND DUP2 MSTORE PUSH1 0x20 ADD SWAP1 DUP2 MSTORE PUSH1 0x20 ADD PUSH0 KECCAK256 SLOAD SWAP1 POP PUSH8 0xDE0B6B3A7640000 DUP2 PUSH2 0xCA2 SWAP2 SWAP1 PUSH2 0x1421 JUMP JUMPDEST SWAP3 POP PUSH6 0x5AF3107A4000 PUSH8 0xDE0B6B3A7640000 DUP3 PUSH2 0xCBF SWAP2 SWAP1 PUSH2 0x1451 JUMP JUMPDEST PUSH2 0xCC9 SWAP2 SWAP1 PUSH2 0x1421 JUMP JUMPDEST SWAP2 POP POP SWAP2 POP SWAP2 JUMP JUMPDEST PUSH0 DUP2 SWAP1 POP SWAP2 SWAP1 POP JUMP JUMPDEST PUSH32 0x4E487B7100000000000000000000000000000000000000000000000000000000 PUSH0 MSTORE PUSH1 0x11 PUSH1 0x4 MSTORE PUSH1 0x24 PUSH0 REVERT JUMPDEST PUSH0 PUSH2 0xD11 DUP3 PUSH2 0xCD1 JUMP JUMPDEST SWAP2 POP PUSH2 0xD1C DUP4 PUSH2 0xCD1 JUMP JUMPDEST SWAP3 POP DUP3 DUP3 ADD SWAP1 POP DUP1 DUP3 GT ISZERO PUSH2 0xD34 JUMPI PUSH2 0xD33 PUSH2 0xCDA JUMP JUMPDEST JUMPDEST SWAP3 SWAP2 POP POP JUMP JUMPDEST PUSH0 PUSH20 0xFFFFFFFFFFFFFFFFFFFFFFFFFFFFFFFFFFFFFFFF DUP3 AND SWAP1 POP SWAP2 SWAP1 POP JUMP JUMPDEST PUSH0 PUSH2 0xD63 DUP3 PUSH2 0xD3A JUMP JUMPDEST SWAP1 POP SWAP2 SWAP1 POP JUMP JUMPDEST PUSH2 0xD73 DUP2 PUSH2 0xD59 JUMP JUMPDEST DUP3 MSTORE POP POP JUMP JUMPDEST PUSH2 0xD82 DUP2 PUSH2 0xCD1 JUMP JUMPDEST DUP3 MSTORE POP POP JUMP JUMPDEST PUSH0 PUSH1 0x40 DUP3 ADD SWAP1 POP PUSH2 0xD9B PUSH0 DUP4 ADD DUP6 PUSH2 0xD6A JUMP JUMPDEST PUSH2 0xDA8 PUSH1 0x20 DUP4 ADD DUP5 PUSH2 0xD79 JUMP JUMPDEST SWAP4 SWAP3 POP POP POP JUMP JUMPDEST PUSH0 PUSH0 REVERT JUMPDEST PUSH2 0xDBC DUP2 PUSH2 0xD59 JUMP JUMPDEST DUP2 EQ PUSH2 0xDC6 JUMPI PUSH0 PUSH0 REVERT JUMPDEST POP JUMP JUMPDEST PUSH0 DUP2 CALLDATALOAD SWAP1 POP PUSH2 0xDD7 DUP2 PUSH2 0xDB3 JUMP JUMPDEST SWAP3 SWAP2 POP POP JUMP JUMPDEST PUSH0 DUP2 ISZERO ISZERO SWAP1 POP SWAP2 SWAP1 POP JUMP JUMPDEST PUSH2 0xDF1 DUP2 PUSH2 0xDDD JUMP JUMPDEST DUP2 EQ PUSH2 0xDFB JUMPI PUSH0 PUSH0 REVERT JUMPDEST POP JUMP JUMPDEST PUSH0 DUP2 CALLDATALOAD SWAP1 POP PUSH2 0xE0C DUP2 PUSH2 0xDE8 JUMP JUMPDEST SWAP3 SWAP2 POP POP JUMP JUMPDEST PUSH0 PUSH0 PUSH1 0x40 DUP4 DUP6 SUB SLT ISZERO PUSH2 0xE28 JUMPI PUSH2 0xE27 PUSH2 0xDAF JUMP JUMPDEST JUMPDEST PUSH0 PUSH2 0xE35 DUP6 DUP3 DUP7 ADD PUSH2 0xDC9 JUMP JUMPDEST SWAP3 POP POP PUSH1 0x20 PUSH2 0xE46 DUP6 DUP3 DUP7 ADD PUSH2 0xDFE JUMP JUMPDEST SWAP2 POP POP SWAP3 POP SWAP3 SWAP1 POP JUMP JUMPDEST PUSH2 0xE59 DUP2 PUSH2 0xCD1 JUMP JUMPDEST DUP2 EQ PUSH2 0xE63 JUMPI PUSH0 PUSH0 REVERT JUMPDEST POP JUMP JUMPDEST PUSH0 DUP2 CALLDATALOAD SWAP1 POP PUSH2 0xE74 DUP2 PUSH2 0xE50 JUMP JUMPDEST SWAP3 SWAP2 POP POP JUMP JUMPDEST PUSH0 PUSH1 0x20 DUP3 DUP5 SUB SLT ISZERO PUSH2 0xE8F JUMPI PUSH2 0xE8E PUSH2 0xDAF JUMP JUMPDEST JUMPDEST PUSH0 PUSH2 0xE9C DUP5 DUP3 DUP6 ADD PUSH2 0xE66 JUMP JUMPDEST SWAP2 POP POP SWAP3 SWAP2 POP POP JUMP JUMPDEST PUSH0 PUSH1 0x20 DUP3 DUP5 SUB SLT ISZERO PUSH2 0xEBA JUMPI PUSH2 0xEB9 PUSH2 0xDAF JUMP JUMPDEST JUMPDEST PUSH0 PUSH2 0xEC7 DUP5 DUP3 DUP6 ADD PUSH2 0xDC9 JUMP JUMPDEST SWAP2 POP POP SWAP3 SWAP2 POP POP JUMP JUMPDEST PUSH2 0xED9 DUP2 PUSH2 0xDDD JUMP JUMPDEST DUP3 MSTORE POP POP JUMP JUMPDEST PUSH0 PUSH1 0x20 DUP3 ADD SWAP1 POP PUSH2 0xEF2 PUSH0 DUP4 ADD DUP5 PUSH2 0xED0 JUMP JUMPDEST SWAP3 SWAP2 POP POP JUMP JUMPDEST PUSH0 PUSH1 0x20 DUP3 ADD SWAP1 POP PUSH2 0xF0B PUSH0 DUP4 ADD DUP5 PUSH2 0xD79 JUMP JUMPDEST SWAP3 SWAP2 POP POP JUMP JUMPDEST PUSH0 PUSH1 0x20 DUP3 ADD SWAP1 POP PUSH2 0xF24 PUSH0 DUP4 ADD DUP5 PUSH2 0xD6A JUMP JUMPDEST SWAP3 SWAP2 POP POP JUMP JUMPDEST PUSH0 PUSH1 0x80 DUP3 ADD SWAP1 POP PUSH2 0xF3D PUSH0 DUP4 ADD DUP8 PUSH2 0xD6A JUMP JUMPDEST PUSH2 0xF4A PUSH1 0x20 DUP4 ADD DUP7 PUSH2 0xD79 JUMP JUMPDEST PUSH2 0xF57 PUSH1 0x40 DUP4 ADD DUP6 PUSH2 0xD79 JUMP JUMPDEST PUSH2 0xF64 PUSH1 0x60 DUP4 ADD DUP5 PUSH2 0xD79 JUMP JUMPDEST SWAP6 SWAP5 POP POP POP POP POP JUMP JUMPDEST PUSH0 PUSH1 0x40 DUP3 ADD SWAP1 POP PUSH2 0xF80 PUSH0 DUP4 ADD DUP6 PUSH2 0xD79 JUMP JUMPDEST PUSH2 0xF8D PUSH1 0x20 DUP4 ADD DUP5 PUSH2 0xD79 JUMP JUMPDEST SWAP4 SWAP3 POP POP POP JUMP JUMPDEST PUSH0 DUP3 DUP3 MSTORE PUSH1 0x20 DUP3 ADD SWAP1 POP SWAP3 SWAP2 POP POP JUMP JUMPDEST PUSH32 0x4E75722042657472656962657221000000000000000000000000000000000000 PUSH0 DUP3 ADD MSTORE POP JUMP JUMPDEST PUSH0 PUSH2 0xFD8 PUSH1 0xE DUP4 PUSH2 0xF94 JUMP JUMPDEST SWAP2 POP PUSH2 0xFE3 DUP3 PUSH2 0xFA4 JUMP JUMPDEST PUSH1 0x20 DUP3 ADD SWAP1 POP SWAP2 SWAP1 POP JUMP JUMPDEST PUSH0 PUSH1 0x20 DUP3 ADD SWAP1 POP DUP2 DUP2 SUB PUSH0 DUP4 ADD MSTORE PUSH2 0x1005 DUP2 PUSH2 0xFCC JUMP JUMPDEST SWAP1 POP SWAP2 SWAP1 POP JUMP JUMPDEST PUSH32 0x4E69636874206265726563687469677421000000000000000000000000000000 PUSH0 DUP3 ADD MSTORE POP JUMP JUMPDEST PUSH0 PUSH2 0x1040 PUSH1 0x11 DUP4 PUSH2 0xF94 JUMP JUMPDEST SWAP2 POP PUSH2 0x104B DUP3 PUSH2 0x100C JUMP JUMPDEST PUSH1 0x20 DUP3 ADD SWAP1 POP SWAP2 SWAP1 POP JUMP JUMPDEST PUSH0 PUSH1 0x20 DUP3 ADD SWAP1 POP DUP2 DUP2 SUB PUSH0 DUP4 ADD MSTORE PUSH2 0x106D DUP2 PUSH2 0x1034 JUMP JUMPDEST SWAP1 POP SWAP2 SWAP1 POP JUMP JUMPDEST PUSH32 0x6B5768206D757373203E2030207365696E000000000000000000000000000000 PUSH0 DUP3 ADD MSTORE POP JUMP JUMPDEST PUSH0 PUSH2 0x10A8 PUSH1 0x11 DUP4 PUSH2 0xF94 JUMP JUMPDEST SWAP2 POP PUSH2 0x10B3 DUP3 PUSH2 0x1074 JUMP JUMPDEST PUSH1 0x20 DUP3 ADD SWAP1 POP SWAP2 SWAP1 POP JUMP JUMPDEST PUSH0 PUSH1 0x20 DUP3 ADD SWAP1 POP DUP2 DUP2 SUB PUSH0 DUP4 ADD MSTORE PUSH2 0x10D5 DUP2 PUSH2 0x109C JUMP JUMPDEST SWAP1 POP SWAP2 SWAP1 POP JUMP JUMPDEST PUSH0 PUSH2 0x10E6 DUP3 PUSH2 0xCD1 JUMP JUMPDEST SWAP2 POP PUSH2 0x10F1 DUP4 PUSH2 0xCD1 JUMP JUMPDEST SWAP3 POP DUP3 DUP3 MUL PUSH2 0x10FF DUP2 PUSH2 0xCD1 JUMP JUMPDEST SWAP2 POP DUP3 DUP3 DIV DUP5 EQ DUP4 ISZERO OR PUSH2 0x1116 JUMPI PUSH2 0x1115 PUSH2 0xCDA JUMP JUMPDEST JUMPDEST POP SWAP3 SWAP2 POP POP JUMP JUMPDEST PUSH32 0x4E696368742067656E756720477574686162656E210000000000000000000000 PUSH0 DUP3 ADD MSTORE POP JUMP JUMPDEST PUSH0 PUSH2 0x1151 PUSH1 0x15 DUP4 PUSH2 0xF94 JUMP JUMPDEST SWAP2 POP PUSH2 0x115C DUP3 PUSH2 0x111D JUMP JUMPDEST PUSH1 0x20 DUP3 ADD SWAP1 POP SWAP2 SWAP1 POP JUMP JUMPDEST PUSH0 PUSH1 0x20 DUP3 ADD SWAP1 POP DUP2 DUP2 SUB PUSH0 DUP4 ADD MSTORE PUSH2 0x117E DUP2 PUSH2 0x1145 JUMP JUMPDEST SWAP1 POP SWAP2 SWAP1 POP JUMP JUMPDEST PUSH0 PUSH2 0x118F DUP3 PUSH2 0xCD1 JUMP JUMPDEST SWAP2 POP PUSH2 0x119A DUP4 PUSH2 0xCD1 JUMP JUMPDEST SWAP3 POP DUP3 DUP3 SUB SWAP1 POP DUP2 DUP2 GT ISZERO PUSH2 0x11B2 JUMPI PUSH2 0x11B1 PUSH2 0xCDA JUMP JUMPDEST JUMPDEST SWAP3 SWAP2 POP POP JUMP JUMPDEST PUSH0 DUP2 SWAP1 POP SWAP3 SWAP2 POP POP JUMP JUMPDEST POP JUMP JUMPDEST PUSH0 PUSH2 0x11D0 PUSH0 DUP4 PUSH2 0x11B8 JUMP JUMPDEST SWAP2 POP PUSH2 0x11DB DUP3 PUSH2 0x11C2 JUMP JUMPDEST PUSH0 DUP3 ADD SWAP1 POP SWAP2 SWAP1 POP JUMP JUMPDEST PUSH0 PUSH2 0x11EF DUP3 PUSH2 0x11C5 JUMP JUMPDEST SWAP2 POP DUP2 SWAP1 POP SWAP2 SWAP1 POP JUMP JUMPDEST PUSH32 0x556562657277656973756E6720616E20426574726569626572206665686C6765 PUSH0 DUP3 ADD MSTORE PUSH32 0x7363686C6167656E210000000000000000000000000000000000000000000000 PUSH1 0x20 DUP3 ADD MSTORE POP JUMP JUMPDEST PUSH0 PUSH2 0x1253 PUSH1 0x29 DUP4 PUSH2 0xF94 JUMP JUMPDEST SWAP2 POP PUSH2 0x125E DUP3 PUSH2 0x11F9 JUMP JUMPDEST PUSH1 0x40 DUP3 ADD SWAP1 POP SWAP2 SWAP1 POP JUMP JUMPDEST PUSH0 PUSH1 0x20 DUP3 ADD SWAP1 POP DUP2 DUP2 SUB PUSH0 DUP4 ADD MSTORE PUSH2 0x1280 DUP2 PUSH2 0x1247 JUMP JUMPDEST SWAP1 POP SWAP2 SWAP1 POP JUMP JUMPDEST PUSH0 PUSH1 0x60 DUP3 ADD SWAP1 POP PUSH2 0x129A PUSH0 DUP4 ADD DUP7 PUSH2 0xD6A JUMP JUMPDEST PUSH2 0x12A7 PUSH1 0x20 DUP4 ADD DUP6 PUSH2 0xD79 JUMP JUMPDEST PUSH2 0x12B4 PUSH1 0x40 DUP4 ADD DUP5 PUSH2 0xD79 JUMP JUMPDEST SWAP5 SWAP4 POP POP POP POP JUMP JUMPDEST PUSH32 0x4B65696E20477574686162656E20766F7268616E64656E210000000000000000 PUSH0 DUP3 ADD MSTORE POP JUMP JUMPDEST PUSH0 PUSH2 0x12F0 PUSH1 0x18 DUP4 PUSH2 0xF94 JUMP JUMPDEST SWAP2 POP PUSH2 0x12FB DUP3 PUSH2 0x12BC JUMP JUMPDEST PUSH1 0x20 DUP3 ADD SWAP1 POP SWAP2 SWAP1 POP JUMP JUMPDEST PUSH0 PUSH1 0x20 DUP3 ADD SWAP1 POP DUP2 DUP2 SUB PUSH0 DUP4 ADD MSTORE PUSH2 0x131D DUP2 PUSH2 0x12E4 JUMP JUMPDEST SWAP1 POP SWAP2 SWAP1 POP JUMP JUMPDEST PUSH32 0x4175737A61686C756E67206665686C67657363686C6167656E21000000000000 PUSH0 DUP3 ADD MSTORE POP JUMP JUMPDEST PUSH0 PUSH2 0x1358 PUSH1 0x1A DUP4 PUSH2 0xF94 JUMP JUMPDEST SWAP2 POP PUSH2 0x1363 DUP3 PUSH2 0x1324 JUMP JUMPDEST PUSH1 0x20 DUP3 ADD SWAP1 POP SWAP2 SWAP1 POP JUMP JUMPDEST PUSH0 PUSH1 0x20 DUP3 ADD SWAP1 POP DUP2 DUP2 SUB PUSH0 DUP4 ADD MSTORE PUSH2 0x1385 DUP2 PUSH2 0x134C JUMP JUMPDEST SWAP1 POP SWAP2 SWAP1 POP JUMP JUMPDEST PUSH32 0x4269747465204554482073656E64656E21000000000000000000000000000000 PUSH0 DUP3 ADD MSTORE POP JUMP JUMPDEST PUSH0 PUSH2 0x13C0 PUSH1 0x11 DUP4 PUSH2 0xF94 JUMP JUMPDEST SWAP2 POP PUSH2 0x13CB DUP3 PUSH2 0x138C JUMP JUMPDEST PUSH1 0x20 DUP3 ADD SWAP1 POP SWAP2 SWAP1 POP JUMP JUMPDEST PUSH0 PUSH1 0x20 DUP3 ADD SWAP1 POP DUP2 DUP2 SUB PUSH0 DUP4 ADD MSTORE PUSH2 0x13ED DUP2 PUSH2 0x13B4 JUMP JUMPDEST SWAP1 POP SWAP2 SWAP1 POP JUMP JUMPDEST PUSH32 0x4E487B7100000000000000000000000000000000000000000000000000000000 PUSH0 MSTORE PUSH1 0x12 PUSH1 0x4 MSTORE PUSH1 0x24 PUSH0 REVERT JUMPDEST PUSH0 PUSH2 0x142B DUP3 PUSH2 0xCD1 JUMP JUMPDEST SWAP2 POP PUSH2 0x1436 DUP4 PUSH2 0xCD1 JUMP JUMPDEST SWAP3 POP DUP3 PUSH2 0x1446 JUMPI PUSH2 0x1445 PUSH2 0x13F4 JUMP JUMPDEST JUMPDEST DUP3 DUP3 DIV SWAP1 POP SWAP3 SWAP2 POP POP JUMP JUMPDEST PUSH0 PUSH2 0x145B DUP3 PUSH2 0xCD1 JUMP JUMPDEST SWAP2 POP PUSH2 0x1466 DUP4 PUSH2 0xCD1 JUMP JUMPDEST SWAP3 POP DUP3 PUSH2 0x1476 JUMPI PUSH2 0x1475 PUSH2 0x13F4 JUMP JUMPDEST JUMPDEST DUP3 DUP3 MOD SWAP1 POP SWAP3 SWAP2 POP POP JUMP INVALID LOG2 PUSH5 0x6970667358 0x22 SLT KECCAK256 PUSH27 0xA348C041CF4553DA4C9A3619520880C2E38789AA18C74360F0EE5F 0x4D 0xBA PUSH12 0xEF64736F6C634300081E0033 "
		},
		"gasEstimates": {
			"creation": {
				"codeDepositCost": "1060600",
				"executionCost": "47468",
				"totalCost": "1108068"
			},
			"external": {
				"auszahlen()": "infinite",
				"benutzerAuszahlen()": "infinite",
				"berechtigt(address)": "2878",
				"betreiber()": "2507",
				"einzahlen()": "infinite",
				"guthabenInEth(address)": "infinite",
				"ladeHistorie(uint256)": "infinite",
				"ladeHistorieAnzahl()": "2529",
				"ladeStarten(uint256)": "infinite",
				"preisProKWhWei()": "2513",
				"setBerechtigung(address,bool)": "27148",
				"setPreisProKWh(uint256)": "infinite"
			}
		},
		"methodIdentifiers": {
			"auszahlen()": "bb864be3",
			"benutzerAuszahlen()": "43b4aca5",
			"berechtigt(address)": "2f12f996",
			"betreiber()": "856e44e3",
			"einzahlen()": "81fb3803",
			"guthabenInEth(address)": "e529953a",
			"ladeHistorie(uint256)": "c3de6c74",
			"ladeHistorieAnzahl()": "5b590675",
			"ladeStarten(uint256)": "1d7f2625",
			"preisProKWhWei()": "cd871ae0",
			"setBerechtigung(address,bool)": "04fa7e3c",
			"setPreisProKWh(uint256)": "9b620d79"
		}
	},
	"abi": [
		{
			"inputs": [],
			"stateMutability": "nonpayable",
			"type": "constructor"
		},
		{
			"anonymous": false,
			"inputs": [
				{
					"indexed": false,
					"internalType": "address",
					"name": "nutzer",
					"type": "address"
				},
				{
					"indexed": false,
					"internalType": "uint256",
					"name": "betragWei",
					"type": "uint256"
				}
			],
			"name": "Auszahlung",
			"type": "event"
		},
		{
			"anonymous": false,
			"inputs": [
				{
					"indexed": false,
					"internalType": "address",
					"name": "nutzer",
					"type": "address"
				},
				{
					"indexed": false,
					"internalType": "uint256",
					"name": "betragWei",
					"type": "uint256"
				}
			],
			"name": "Einzahlung",
			"type": "event"
		},
		{
			"anonymous": false,
			"inputs": [
				{
					"indexed": false,
					"internalType": "address",
					"name": "nutzer",
					"type": "address"
				},
				{
					"indexed": false,
					"internalType": "uint256",
					"name": "kWh",
					"type": "uint256"
				},
				{
					"indexed": false,
					"internalType": "uint256",
					"name": "betragWei",
					"type": "uint256"
				}
			],
			"name": "LadevorgangGestartet",
			"type": "event"
		},
		{
			"inputs": [],
			"name": "auszahlen",
			"outputs": [],
			"stateMutability": "nonpayable",
			"type": "function"
		},
		{
			"inputs": [],
			"name": "benutzerAuszahlen",
			"outputs": [],
			"stateMutability": "nonpayable",
			"type": "function"
		},
		{
			"inputs": [
				{
					"internalType": "address",
					"name": "",
					"type": "address"
				}
			],
			"name": "berechtigt",
			"outputs": [
				{
					"internalType": "bool",
					"name": "",
					"type": "bool"
				}
			],
			"stateMutability": "view",
			"type": "function"
		},
		{
			"inputs": [],
			"name": "betreiber",
			"outputs": [
				{
					"internalType": "address",
					"name": "",
					"type": "address"
				}
			],
			"stateMutability": "view",
			"type": "function"
		},
		{
			"inputs": [],
			"name": "einzahlen",
			"outputs": [],
			"stateMutability": "payable",
			"type": "function"
		},
		{
			"inputs": [
				{
					"internalType": "address",
					"name": "nutzer",
					"type": "address"
				}
			],
			"name": "guthabenInEth",
			"outputs": [
				{
					"internalType": "uint256",
					"name": "ethGanz",
					"type": "uint256"
				},
				{
					"internalType": "uint256",
					"name": "ethDezimal",
					"type": "uint256"
				}
			],
			"stateMutability": "view",
			"type": "function"
		},
		{
			"inputs": [
				{
					"internalType": "uint256",
					"name": "",
					"type": "uint256"
				}
			],
			"name": "ladeHistorie",
			"outputs": [
				{
					"internalType": "address",
					"name": "nutzer",
					"type": "address"
				},
				{
					"internalType": "uint256",
					"name": "kWh",
					"type": "uint256"
				},
				{
					"internalType": "uint256",
					"name": "betragWei",
					"type": "uint256"
				},
				{
					"internalType": "uint256",
					"name": "zeitpunkt",
					"type": "uint256"
				}
			],
			"stateMutability": "view",
			"type": "function"
		},
		{
			"inputs": [],
			"name": "ladeHistorieAnzahl",
			"outputs": [
				{
					"internalType": "uint256",
					"name": "",
					"type": "uint256"
				}
			],
			"stateMutability": "view",
			"type": "function"
		},
		{
			"inputs": [
				{
					"internalType": "uint256",
					"name": "kWh",
					"type": "uint256"
				}
			],
			"name": "ladeStarten",
			"outputs": [],
			"stateMutability": "nonpayable",
			"type": "function"
		},
		{
			"inputs": [],
			"name": "preisProKWhWei",
			"outputs": [
				{
					"internalType": "uint256",
					"name": "",
					"type": "uint256"
				}
			],
			"stateMutability": "view",
			"type": "function"
		},
		{
			"inputs": [
				{
					"internalType": "address",
					"name": "nutzer",
					"type": "address"
				},
				{
					"internalType": "bool",
					"name": "status",
					"type": "bool"
				}
			],
			"name": "setBerechtigung",
			"outputs": [],
			"stateMutability": "nonpayable",
			"type": "function"
		},
		{
			"inputs": [
				{
					"internalType": "uint256",
					"name": "preisInEth",
					"type": "uint256"
				}
			],
			"name": "setPreisProKWh",
			"outputs": [],
			"stateMutability": "nonpayable",
			"type": "function"
		},
		{
			"stateMutability": "payable",
			"type": "receive"
		}
	]
}