{
	"ChargeChain/LadeSaeule.sol": {
		"LadeSaeule": {
			"abi": [
				{
					"inputs": [],
					"stateMutability": "nonpayable",
					"type": "constructor"
				},
				{
					"anonymous": false,
					"inputs": [
						{
							"indexed": false,
							"internalType": "address",
							"name": "nutzer",
							"type": "address"
						},
						{
							"indexed": false,
							"internalType": "uint256",
							"name": "betragWei",
							"type": "uint256"
						}
					],
					"name": "Auszahlung",
					"type": "event"
				},
				{
					"anonymous": false,
					"inputs": [
						{
							"indexed": false,
							"internalType": "address",
							"name": "nutzer",
							"type": "address"
						},
						{
							"indexed": false,
							"internalType": "uint256",
							"name": "betragWei",
							"type": "uint256"
						}
					],
					"name": "Einzahlung",
					"type": "event"
				},
				{
					"anonymous": false,
					"inputs": [
						{
							"indexed": false,
							"internalType": "address",
							"name": "nutzer",
							"type": "address"
						},
						{
							"indexed": false,
							"internalType": "uint256",
							"name": "kWh",
							"type": "uint256"
						},
						{
							"indexed": false,
							"internalType": "uint256",
							"name": "betragWei",
							"type": "uint256"
						}
					],
					"name": "LadevorgangGestartet",
					"type": "event"
				},
				{
					"inputs": [],
					"name": "auszahlen",
					"outputs": [],
					"stateMutability": "nonpayable",
					"type": "function"
				},
				{
					"inputs": [],
					"name": "benutzerAuszahlen",
					"outputs": [],
					"stateMutability": "nonpayable",
					"type": "function"
				},
				{
					"inputs": [
						{
							"internalType": "address",
							"name": "",
							"type": "address"
						}
					],
					"name": "berechtigt",
					"outputs": [
						{
							"internalType": "bool",
							"name": "",
							"type": "bool"
						}
					],
					"stateMutability": "view",
					"type": "function"
				},
				{
					"inputs": [],
					"name": "betreiber",
					"outputs": [
						{
							"internalType": "address",
							"name": "",
							"type": "address"
						}
					],
					"stateMutability": "view",
					"type": "function"
				},
				{
					"inputs": [],
					"name": "einzahlen",
					"outputs": [],
					"stateMutability": "payable",
					"type": "function"
				},
				{
					"inputs": [
						{
							"internalType": "address",
							"name": "nutzer",
							"type": "address"
						}
					],
					"name": "guthabenInEth",
					"outputs": [
						{
							"internalType": "uint256",
							"name": "ethGanz",
							"type": "uint256"
						},
						{
							"internalType": "uint256",
							"name": "ethDezimal",
							"type": "uint256"
						}
					],
					"stateMutability": "view",
					"type": "function"
				},
				{
					"inputs": [
						{
							"internalType": "uint256",
							"name": "",
							"type": "uint256"
						}
					],
					"name": "ladeHistorie",
					"outputs": [
						{
							"internalType": "address",
							"name": "nutzer",
							"type": "address"
						},
						{
							"internalType": "uint256",
							"name": "kWh",
							"type": "uint256"
						},
						{
							"internalType": "uint256",
							"name": "betragWei",
							"type": "uint256"
						},
						{
							"internalType": "uint256",
							"name": "zeitpunkt",
							"type": "uint256"
						}
					],
					"stateMutability": "view",
					"type": "function"
				},
				{
					"inputs": [],
					"name": "ladeHistorieAnzahl",
					"outputs": [
						{
							"internalType": "uint256",
							"name": "",
							"type": "uint256"
						}
					],
					"stateMutability": "view",
					"type": "function"
				},
				{
					"inputs": [
						{
							"internalType": "uint256",
							"name": "kWh",
							"type": "uint256"
						}
					],
					"name": "ladeStarten",
					"outputs": [],
					"stateMutability": "nonpayable",
					"type": "function"
				},
				{
					"inputs": [],
					"name": "preisProKWhWei",
					"outputs": [
						{
							"internalType": "uint256",
							"name": "",
							"type": "uint256"
						}
					],
					"stateMutability": "view",
					"type": "function"
				},
				{
					"inputs": [
						{
							"internalType": "address",
							"name": "nutzer",
							"type": "address"
						},
						{
							"internalType": "bool",
							"name": "status",
							"type": "bool"
						}
					],
					"name": "setBerechtigung",
					"outputs": [],
					"stateMutability": "nonpayable",
					"type": "function"
				},
				{
					"inputs": [
						{
							"internalType": "uint256",
							"name": "preisInEth",
							"type": "uint256"
						}
					],
					"name": "setPreisProKWh",
					"outputs": [],
					"stateMutability": "nonpayable",
					"type": "function"
				},
				{
					"stateMutability": "payable",
					"type": "receive"
				}
			],
			"devdoc": {
				"kind": "dev",
				"methods": {},
				"version": 1
			},
			"evm": {
				"assembly": "    /* \"ChargeChain/LadeSaeule.sol\":60:3354  contract LadeSaeule {... */\n  mstore(0x40, 0x80)\n    /* \"ChargeChain/LadeSaeule.sol\":150:160  0.01 ether */\n  0x2386f26fc10000\n    /* \"ChargeChain/LadeSaeule.sol\":118:160  uint256 public preisProKWhWei = 0.01 ether */\n  0x01\n  sstore\n    /* \"ChargeChain/LadeSaeule.sol\":743:798  constructor() {... */\n  callvalue\n  dup1\n  iszero\n  tag_1\n  jumpi\n  revert(0x00, 0x00)\ntag_1:\n  pop\n    /* \"ChargeChain/LadeSaeule.sol\":780:790  msg.sender */\n  caller\n    /* \"ChargeChain/LadeSaeule.sol\":768:777  betreiber */\n  0x00\n  0x00\n    /* \"ChargeChain/LadeSaeule.sol\":768:790  betreiber = msg.sender */\n  0x0100\n  exp\n  dup2\n  sload\n  dup2\n  0xffffffffffffffffffffffffffffffffffffffff\n  mul\n  not\n  and\n  swap1\n  dup4\n  0xffffffffffffffffffffffffffffffffffffffff\n  and\n  mul\n  or\n  swap1\n  sstore\n  pop\n    /* \"ChargeChain/LadeSaeule.sol\":60:3354  contract LadeSaeule {... */\n  dataSize(sub_0)\n  dup1\n  dataOffset(sub_0)\n  0x00\n  codecopy\n  0x00\n  return\nstop\n\nsub_0: assembly {\n        /* \"ChargeChain/LadeSaeule.sol\":60:3354  contract LadeSaeule {... */\n      mstore(0x40, 0x80)\n      jumpi(tag_1, lt(calldatasize, 0x04))\n      shr(0xe0, calldataload(0x00))\n      dup1\n      0x856e44e3\n      gt\n      tag_15\n      jumpi\n      dup1\n      0x856e44e3\n      eq\n      tag_9\n      jumpi\n      dup1\n      0x9b620d79\n      eq\n      tag_10\n      jumpi\n      dup1\n      0xbb864be3\n      eq\n      tag_11\n      jumpi\n      dup1\n      0xc3de6c74\n      eq\n      tag_12\n      jumpi\n      dup1\n      0xcd871ae0\n      eq\n      tag_13\n      jumpi\n      dup1\n      0xe529953a\n      eq\n      tag_14\n      jumpi\n      jump(tag_2)\n    tag_15:\n      dup1\n      0x04fa7e3c\n      eq\n      tag_3\n      jumpi\n      dup1\n      0x1d7f2625\n      eq\n      tag_4\n      jumpi\n      dup1\n      0x2f12f996\n      eq\n      tag_5\n      jumpi\n      dup1\n      0x43b4aca5\n      eq\n      tag_6\n      jumpi\n      dup1\n      0x5b590675\n      eq\n      tag_7\n      jumpi\n      dup1\n      0x81fb3803\n      eq\n      tag_8\n      jumpi\n      jump(tag_2)\n    tag_1:\n      jumpi(tag_2, calldatasize)\n        /* \"ChargeChain/LadeSaeule.sol\":2784:2793  msg.value */\n      callvalue\n        /* \"ChargeChain/LadeSaeule.sol\":2760:2768  guthaben */\n      0x03\n        /* \"ChargeChain/LadeSaeule.sol\":2760:2780  guthaben[msg.sender] */\n      0x00\n        /* \"ChargeChain/LadeSaeule.sol\":2769:2779  msg.sender */\n      caller\n        /* \"ChargeChain/LadeSaeule.sol\":2760:2780  guthaben[msg.sender] */\n      0xffffffffffffffffffffffffffffffffffffffff\n      and\n      0xffffffffffffffffffffffffffffffffffffffff\n      and\n      dup2\n      mstore\n      0x20\n      add\n      swap1\n      dup2\n      mstore\n      0x20\n      add\n      0x00\n      keccak256\n      0x00\n        /* \"ChargeChain/LadeSaeule.sol\":2760:2793  guthaben[msg.sender] += msg.value */\n      dup3\n      dup3\n      sload\n      tag_18\n      swap2\n      swap1\n      tag_19\n      jump\t// in\n    tag_18:\n      swap3\n      pop\n      pop\n      dup2\n      swap1\n      sstore\n      pop\n        /* \"ChargeChain/LadeSaeule.sol\":2809:2842  Einzahlung(msg.sender, msg.value) */\n      0x537a4888663bf338e0f1e0a482244d95c4a9924065740c78b417480b31c318e4\n        /* \"ChargeChain/LadeSaeule.sol\":2820:2830  msg.sender */\n      caller\n        /* \"ChargeChain/LadeSaeule.sol\":2832:2841  msg.value */\n      callvalue\n        /* \"ChargeChain/LadeSaeule.sol\":2809:2842  Einzahlung(msg.sender, msg.value) */\n      mload(0x40)\n      tag_20\n      swap3\n      swap2\n      swap1\n      tag_21\n      jump\t// in\n    tag_20:\n      mload(0x40)\n      dup1\n      swap2\n      sub\n      swap1\n      log1\n        /* \"ChargeChain/LadeSaeule.sol\":60:3354  contract LadeSaeule {... */\n      stop\n    tag_2:\n      revert(0x00, 0x00)\n        /* \"ChargeChain/LadeSaeule.sol\":1716:1884  function setBerechtigung(address nutzer, bool status) public {... */\n    tag_3:\n      callvalue\n      dup1\n      iszero\n      tag_22\n      jumpi\n      revert(0x00, 0x00)\n    tag_22:\n      pop\n      tag_23\n      0x04\n      dup1\n      calldatasize\n      sub\n      dup2\n      add\n      swap1\n      tag_24\n      swap2\n      swap1\n      tag_25\n      jump\t// in\n    tag_24:\n      tag_26\n      jump\t// in\n    tag_23:\n      stop\n        /* \"ChargeChain/LadeSaeule.sol\":1005:1708  function ladeStarten(uint256 kWh) public {... */\n    tag_4:\n      callvalue\n      dup1\n      iszero\n      tag_27\n      jumpi\n      revert(0x00, 0x00)\n    tag_27:\n      pop\n      tag_28\n      0x04\n      dup1\n      calldatasize\n      sub\n      dup2\n      add\n      swap1\n      tag_29\n      swap2\n      swap1\n      tag_30\n      jump\t// in\n    tag_29:\n      tag_31\n      jump\t// in\n    tag_28:\n      stop\n        /* \"ChargeChain/LadeSaeule.sol\":193:235  mapping(address => bool) public berechtigt */\n    tag_5:\n      callvalue\n      dup1\n      iszero\n      tag_32\n      jumpi\n      revert(0x00, 0x00)\n    tag_32:\n      pop\n      tag_33\n      0x04\n      dup1\n      calldatasize\n      sub\n      dup2\n      add\n      swap1\n      tag_34\n      swap2\n      swap1\n      tag_35\n      jump\t// in\n    tag_34:\n      tag_36\n      jump\t// in\n    tag_33:\n      mload(0x40)\n      tag_37\n      swap2\n      swap1\n      tag_38\n      jump\t// in\n    tag_37:\n      mload(0x40)\n      dup1\n      swap2\n      sub\n      swap1\n      return\n        /* \"ChargeChain/LadeSaeule.sol\":2152:2513  function benutzerAuszahlen() public {... */\n    tag_6:\n      callvalue\n      dup1\n      iszero\n      tag_39\n      jumpi\n      revert(0x00, 0x00)\n    tag_39:\n      pop\n      tag_40\n      tag_41\n      jump\t// in\n    tag_40:\n      stop\n        /* \"ChargeChain/LadeSaeule.sol\":3246:3351  function ladeHistorieAnzahl() public view returns (uint256) {... */\n    tag_7:\n      callvalue\n      dup1\n      iszero\n      tag_42\n      jumpi\n      revert(0x00, 0x00)\n    tag_42:\n      pop\n      tag_43\n      tag_44\n      jump\t// in\n    tag_43:\n      mload(0x40)\n      tag_45\n      swap2\n      swap1\n      tag_46\n      jump\t// in\n    tag_45:\n      mload(0x40)\n      dup1\n      swap2\n      sub\n      swap1\n      return\n        /* \"ChargeChain/LadeSaeule.sol\":806:997  function einzahlen() public payable {... */\n    tag_8:\n      tag_47\n      tag_48\n      jump\t// in\n    tag_47:\n      stop\n        /* \"ChargeChain/LadeSaeule.sol\":87:111  address public betreiber */\n    tag_9:\n      callvalue\n      dup1\n      iszero\n      tag_49\n      jumpi\n      revert(0x00, 0x00)\n    tag_49:\n      pop\n      tag_50\n      tag_51\n      jump\t// in\n    tag_50:\n      mload(0x40)\n      tag_52\n      swap2\n      swap1\n      tag_53\n      jump\t// in\n    tag_52:\n      mload(0x40)\n      dup1\n      swap2\n      sub\n      swap1\n      return\n        /* \"ChargeChain/LadeSaeule.sol\":2521:2714  function setPreisProKWh(uint256 preisInEth) public {... */\n    tag_10:\n      callvalue\n      dup1\n      iszero\n      tag_54\n      jumpi\n      revert(0x00, 0x00)\n    tag_54:\n      pop\n      tag_55\n      0x04\n      dup1\n      calldatasize\n      sub\n      dup2\n      add\n      swap1\n      tag_56\n      swap2\n      swap1\n      tag_30\n      jump\t// in\n    tag_56:\n      tag_57\n      jump\t// in\n    tag_55:\n      stop\n        /* \"ChargeChain/LadeSaeule.sol\":1941:2099  function auszahlen() public {... */\n    tag_11:\n      callvalue\n      dup1\n      iszero\n      tag_58\n      jumpi\n      revert(0x00, 0x00)\n    tag_58:\n      pop\n      tag_59\n      tag_60\n      jump\t// in\n    tag_59:\n      stop\n        /* \"ChargeChain/LadeSaeule.sol\":701:734  Ladevorgang[] public ladeHistorie */\n    tag_12:\n      callvalue\n      dup1\n      iszero\n      tag_61\n      jumpi\n      revert(0x00, 0x00)\n    tag_61:\n      pop\n      tag_62\n      0x04\n      dup1\n      calldatasize\n      sub\n      dup2\n      add\n      swap1\n      tag_63\n      swap2\n      swap1\n      tag_30\n      jump\t// in\n    tag_63:\n      tag_64\n      jump\t// in\n    tag_62:\n      mload(0x40)\n      tag_65\n      swap5\n      swap4\n      swap3\n      swap2\n      swap1\n      tag_66\n      jump\t// in\n    tag_65:\n      mload(0x40)\n      dup1\n      swap2\n      sub\n      swap1\n      return\n        /* \"ChargeChain/LadeSaeule.sol\":118:160  uint256 public preisProKWhWei = 0.01 ether */\n    tag_13:\n      callvalue\n      dup1\n      iszero\n      tag_67\n      jumpi\n      revert(0x00, 0x00)\n    tag_67:\n      pop\n      tag_68\n      tag_69\n      jump\t// in\n    tag_68:\n      mload(0x40)\n      tag_70\n      swap2\n      swap1\n      tag_46\n      jump\t// in\n    tag_70:\n      mload(0x40)\n      dup1\n      swap2\n      sub\n      swap1\n      return\n        /* \"ChargeChain/LadeSaeule.sol\":2918:3182  function guthabenInEth(address nutzer) public view returns (uint256 ethGanz, uint256 ethDezimal) {... */\n    tag_14:\n      callvalue\n      dup1\n      iszero\n      tag_71\n      jumpi\n      revert(0x00, 0x00)\n    tag_71:\n      pop\n      tag_72\n      0x04\n      dup1\n      calldatasize\n      sub\n      dup2\n      add\n      swap1\n      tag_73\n      swap2\n      swap1\n      tag_35\n      jump\t// in\n    tag_73:\n      tag_74\n      jump\t// in\n    tag_72:\n      mload(0x40)\n      tag_75\n      swap3\n      swap2\n      swap1\n      tag_76\n      jump\t// in\n    tag_75:\n      mload(0x40)\n      dup1\n      swap2\n      sub\n      swap1\n      return\n        /* \"ChargeChain/LadeSaeule.sol\":1716:1884  function setBerechtigung(address nutzer, bool status) public {... */\n    tag_26:\n        /* \"ChargeChain/LadeSaeule.sol\":1810:1819  betreiber */\n      0x00\n      0x00\n      swap1\n      sload\n      swap1\n      0x0100\n      exp\n      swap1\n      div\n      0xffffffffffffffffffffffffffffffffffffffff\n      and\n        /* \"ChargeChain/LadeSaeule.sol\":1796:1819  msg.sender == betreiber */\n      0xffffffffffffffffffffffffffffffffffffffff\n      and\n        /* \"ChargeChain/LadeSaeule.sol\":1796:1806  msg.sender */\n      caller\n        /* \"ChargeChain/LadeSaeule.sol\":1796:1819  msg.sender == betreiber */\n      0xffffffffffffffffffffffffffffffffffffffff\n      and\n      eq\n        /* \"ChargeChain/LadeSaeule.sol\":1788:1838  require(msg.sender == betreiber, \"Nur Betreiber!\") */\n      tag_78\n      jumpi\n      mload(0x40)\n      0x08c379a000000000000000000000000000000000000000000000000000000000\n      dup2\n      mstore\n      0x04\n      add\n      tag_79\n      swap1\n      tag_80\n      jump\t// in\n    tag_79:\n      mload(0x40)\n      dup1\n      swap2\n      sub\n      swap1\n      revert\n    tag_78:\n        /* \"ChargeChain/LadeSaeule.sol\":1870:1876  status */\n      dup1\n        /* \"ChargeChain/LadeSaeule.sol\":1849:1859  berechtigt */\n      0x02\n        /* \"ChargeChain/LadeSaeule.sol\":1849:1867  berechtigt[nutzer] */\n      0x00\n        /* \"ChargeChain/LadeSaeule.sol\":1860:1866  nutzer */\n      dup5\n        /* \"ChargeChain/LadeSaeule.sol\":1849:1867  berechtigt[nutzer] */\n      0xffffffffffffffffffffffffffffffffffffffff\n      and\n      0xffffffffffffffffffffffffffffffffffffffff\n      and\n      dup2\n      mstore\n      0x20\n      add\n      swap1\n      dup2\n      mstore\n      0x20\n      add\n      0x00\n      keccak256\n      0x00\n        /* \"ChargeChain/LadeSaeule.sol\":1849:1876  berechtigt[nutzer] = status */\n      0x0100\n      exp\n      dup2\n      sload\n      dup2\n      0xff\n      mul\n      not\n      and\n      swap1\n      dup4\n      iszero\n      iszero\n      mul\n      or\n      swap1\n      sstore\n      pop\n        /* \"ChargeChain/LadeSaeule.sol\":1716:1884  function setBerechtigung(address nutzer, bool status) public {... */\n      pop\n      pop\n      jump\t// out\n        /* \"ChargeChain/LadeSaeule.sol\":1005:1708  function ladeStarten(uint256 kWh) public {... */\n    tag_31:\n        /* \"ChargeChain/LadeSaeule.sol\":1065:1075  berechtigt */\n      0x02\n        /* \"ChargeChain/LadeSaeule.sol\":1065:1087  berechtigt[msg.sender] */\n      0x00\n        /* \"ChargeChain/LadeSaeule.sol\":1076:1086  msg.sender */\n      caller\n        /* \"ChargeChain/LadeSaeule.sol\":1065:1087  berechtigt[msg.sender] */\n      0xffffffffffffffffffffffffffffffffffffffff\n      and\n      0xffffffffffffffffffffffffffffffffffffffff\n      and\n      dup2\n      mstore\n      0x20\n      add\n      swap1\n      dup2\n      mstore\n      0x20\n      add\n      0x00\n      keccak256\n      0x00\n      swap1\n      sload\n      swap1\n      0x0100\n      exp\n      swap1\n      div\n      0xff\n      and\n        /* \"ChargeChain/LadeSaeule.sol\":1057:1109  require(berechtigt[msg.sender], \"Nicht berechtigt!\") */\n      tag_82\n      jumpi\n      mload(0x40)\n      0x08c379a000000000000000000000000000000000000000000000000000000000\n      dup2\n      mstore\n      0x04\n      add\n      tag_83\n      swap1\n      tag_84\n      jump\t// in\n    tag_83:\n      mload(0x40)\n      dup1\n      swap2\n      sub\n      swap1\n      revert\n    tag_82:\n        /* \"ChargeChain/LadeSaeule.sol\":1134:1135  0 */\n      0x00\n        /* \"ChargeChain/LadeSaeule.sol\":1128:1131  kWh */\n      dup2\n        /* \"ChargeChain/LadeSaeule.sol\":1128:1135  kWh > 0 */\n      gt\n        /* \"ChargeChain/LadeSaeule.sol\":1120:1157  require(kWh > 0, \"kWh muss > 0 sein\") */\n      tag_85\n      jumpi\n      mload(0x40)\n      0x08c379a000000000000000000000000000000000000000000000000000000000\n      dup2\n      mstore\n      0x04\n      add\n      tag_86\n      swap1\n      tag_87\n      jump\t// in\n    tag_86:\n      mload(0x40)\n      dup1\n      swap2\n      sub\n      swap1\n      revert\n    tag_85:\n        /* \"ChargeChain/LadeSaeule.sol\":1168:1182  uint256 kosten */\n      0x00\n        /* \"ChargeChain/LadeSaeule.sol\":1202:1205  kWh */\n      dup2\n        /* \"ChargeChain/LadeSaeule.sol\":1185:1199  preisProKWhWei */\n      sload(0x01)\n        /* \"ChargeChain/LadeSaeule.sol\":1185:1205  preisProKWhWei * kWh */\n      tag_88\n      swap2\n      swap1\n      tag_89\n      jump\t// in\n    tag_88:\n        /* \"ChargeChain/LadeSaeule.sol\":1168:1205  uint256 kosten = preisProKWhWei * kWh */\n      swap1\n      pop\n        /* \"ChargeChain/LadeSaeule.sol\":1248:1254  kosten */\n      dup1\n        /* \"ChargeChain/LadeSaeule.sol\":1224:1232  guthaben */\n      0x03\n        /* \"ChargeChain/LadeSaeule.sol\":1224:1244  guthaben[msg.sender] */\n      0x00\n        /* \"ChargeChain/LadeSaeule.sol\":1233:1243  msg.sender */\n      caller\n        /* \"ChargeChain/LadeSaeule.sol\":1224:1244  guthaben[msg.sender] */\n      0xffffffffffffffffffffffffffffffffffffffff\n      and\n      0xffffffffffffffffffffffffffffffffffffffff\n      and\n      dup2\n      mstore\n      0x20\n      add\n      swap1\n      dup2\n      mstore\n      0x20\n      add\n      0x00\n      keccak256\n      sload\n        /* \"ChargeChain/LadeSaeule.sol\":1224:1254  guthaben[msg.sender] >= kosten */\n      lt\n      iszero\n        /* \"ChargeChain/LadeSaeule.sol\":1216:1280  require(guthaben[msg.sender] >= kosten, \"Nicht genug Guthaben!\") */\n      tag_90\n      jumpi\n      mload(0x40)\n      0x08c379a000000000000000000000000000000000000000000000000000000000\n      dup2\n      mstore\n      0x04\n      add\n      tag_91\n      swap1\n      tag_92\n      jump\t// in\n    tag_91:\n      mload(0x40)\n      dup1\n      swap2\n      sub\n      swap1\n      revert\n    tag_90:\n        /* \"ChargeChain/LadeSaeule.sol\":1315:1321  kosten */\n      dup1\n        /* \"ChargeChain/LadeSaeule.sol\":1291:1299  guthaben */\n      0x03\n        /* \"ChargeChain/LadeSaeule.sol\":1291:1311  guthaben[msg.sender] */\n      0x00\n        /* \"ChargeChain/LadeSaeule.sol\":1300:1310  msg.sender */\n      caller\n        /* \"ChargeChain/LadeSaeule.sol\":1291:1311  guthaben[msg.sender] */\n      0xffffffffffffffffffffffffffffffffffffffff\n      and\n      0xffffffffffffffffffffffffffffffffffffffff\n      and\n      dup2\n      mstore\n      0x20\n      add\n      swap1\n      dup2\n      mstore\n      0x20\n      add\n      0x00\n      keccak256\n      0x00\n        /* \"ChargeChain/LadeSaeule.sol\":1291:1321  guthaben[msg.sender] -= kosten */\n      dup3\n      dup3\n      sload\n      tag_93\n      swap2\n      swap1\n      tag_94\n      jump\t// in\n    tag_93:\n      swap3\n      pop\n      pop\n      dup2\n      swap1\n      sstore\n      pop\n        /* \"ChargeChain/LadeSaeule.sol\":1386:1398  bool success */\n      0x00\n        /* \"ChargeChain/LadeSaeule.sol\":1412:1421  betreiber */\n      0x00\n      0x00\n      swap1\n      sload\n      swap1\n      0x0100\n      exp\n      swap1\n      div\n      0xffffffffffffffffffffffffffffffffffffffff\n      and\n        /* \"ChargeChain/LadeSaeule.sol\":1404:1427  payable(betreiber).call */\n      0xffffffffffffffffffffffffffffffffffffffff\n      and\n        /* \"ChargeChain/LadeSaeule.sol\":1435:1441  kosten */\n      dup3\n        /* \"ChargeChain/LadeSaeule.sol\":1404:1446  payable(betreiber).call{value: kosten}(\"\") */\n      mload(0x40)\n      tag_95\n      swap1\n      tag_96\n      jump\t// in\n    tag_95:\n      0x00\n      mload(0x40)\n      dup1\n      dup4\n      sub\n      dup2\n      dup6\n      dup8\n      gas\n      call\n      swap3\n      pop\n      pop\n      pop\n      returndatasize\n      dup1\n      0x00\n      dup2\n      eq\n      tag_99\n      jumpi\n      mload(0x40)\n      swap2\n      pop\n      and(add(returndatasize, 0x3f), not(0x1f))\n      dup3\n      add\n      0x40\n      mstore\n      returndatasize\n      dup3\n      mstore\n      returndatasize\n      0x00\n      0x20\n      dup5\n      add\n      returndatacopy\n      jump(tag_98)\n    tag_99:\n      0x60\n      swap2\n      pop\n    tag_98:\n      pop\n        /* \"ChargeChain/LadeSaeule.sol\":1385:1446  (bool success, ) = payable(betreiber).call{value: kosten}(\"\") */\n      pop\n      swap1\n      pop\n        /* \"ChargeChain/LadeSaeule.sol\":1465:1472  success */\n      dup1\n        /* \"ChargeChain/LadeSaeule.sol\":1457:1518  require(success, \"Ueberweisung an Betreiber fehlgeschlagen!\") */\n      tag_100\n      jumpi\n      mload(0x40)\n      0x08c379a000000000000000000000000000000000000000000000000000000000\n      dup2\n      mstore\n      0x04\n      add\n      tag_101\n      swap1\n      tag_102\n      jump\t// in\n    tag_101:\n      mload(0x40)\n      dup1\n      swap2\n      sub\n      swap1\n      revert\n    tag_100:\n        /* \"ChargeChain/LadeSaeule.sol\":1536:1581  LadevorgangGestartet(msg.sender, kWh, kosten) */\n      0x5a085bd44a53f6f30890ee12ccfcd2f694b04dd47fc99be5617fc6543720a010\n        /* \"ChargeChain/LadeSaeule.sol\":1557:1567  msg.sender */\n      caller\n        /* \"ChargeChain/LadeSaeule.sol\":1569:1572  kWh */\n      dup5\n        /* \"ChargeChain/LadeSaeule.sol\":1574:1580  kosten */\n      dup5\n        /* \"ChargeChain/LadeSaeule.sol\":1536:1581  LadevorgangGestartet(msg.sender, kWh, kosten) */\n      mload(0x40)\n      tag_103\n      swap4\n      swap3\n      swap2\n      swap1\n      tag_104\n      jump\t// in\n    tag_103:\n      mload(0x40)\n      dup1\n      swap2\n      sub\n      swap1\n      log1\n        /* \"ChargeChain/LadeSaeule.sol\":1628:1640  ladeHistorie */\n      0x04\n        /* \"ChargeChain/LadeSaeule.sol\":1646:1699  Ladevorgang(msg.sender, kWh, kosten, block.timestamp) */\n      mload(0x40)\n      dup1\n      0x80\n      add\n      0x40\n      mstore\n      dup1\n        /* \"ChargeChain/LadeSaeule.sol\":1658:1668  msg.sender */\n      caller\n        /* \"ChargeChain/LadeSaeule.sol\":1646:1699  Ladevorgang(msg.sender, kWh, kosten, block.timestamp) */\n      0xffffffffffffffffffffffffffffffffffffffff\n      and\n      dup2\n      mstore\n      0x20\n      add\n        /* \"ChargeChain/LadeSaeule.sol\":1670:1673  kWh */\n      dup6\n        /* \"ChargeChain/LadeSaeule.sol\":1646:1699  Ladevorgang(msg.sender, kWh, kosten, block.timestamp) */\n      dup2\n      mstore\n      0x20\n      add\n        /* \"ChargeChain/LadeSaeule.sol\":1675:1681  kosten */\n      dup5\n        /* \"ChargeChain/LadeSaeule.sol\":1646:1699  Ladevorgang(msg.sender, kWh, kosten, block.timestamp) */\n      dup2\n      mstore\n      0x20\n      add\n        /* \"ChargeChain/LadeSaeule.sol\":1683:1698  block.timestamp */\n      timestamp\n        /* \"ChargeChain/LadeSaeule.sol\":1646:1699  Ladevorgang(msg.sender, kWh, kosten, block.timestamp) */\n      dup2\n      mstore\n      pop\n        /* \"ChargeChain/LadeSaeule.sol\":1628:1700  ladeHistorie.push(Ladevorgang(msg.sender, kWh, kosten, block.timestamp)) */\n      swap1\n      dup1\n      0x01\n      dup2\n      sload\n      add\n      dup1\n      dup3\n      sstore\n      dup1\n      swap2\n      pop\n      pop\n      0x01\n      swap1\n      sub\n      swap1\n      0x00\n      mstore\n      keccak256(0x00, 0x20)\n      swap1\n      0x04\n      mul\n      add\n      0x00\n      swap1\n      swap2\n      swap1\n      swap2\n      swap1\n      swap2\n      pop\n      0x00\n      dup3\n      add\n      mload\n      dup2\n      0x00\n      add\n      exp(0x0100, 0x00)\n      dup2\n      sload\n      dup2\n      0xffffffffffffffffffffffffffffffffffffffff\n      mul\n      not\n      and\n      swap1\n      dup4\n      0xffffffffffffffffffffffffffffffffffffffff\n      and\n      mul\n      or\n      swap1\n      sstore\n      pop\n      0x20\n      dup3\n      add\n      mload\n      dup2\n      0x01\n      add\n      sstore\n      0x40\n      dup3\n      add\n      mload\n      dup2\n      0x02\n      add\n      sstore\n      0x60\n      dup3\n      add\n      mload\n      dup2\n      0x03\n      add\n      sstore\n      pop\n      pop\n        /* \"ChargeChain/LadeSaeule.sol\":1046:1708  {... */\n      pop\n      pop\n        /* \"ChargeChain/LadeSaeule.sol\":1005:1708  function ladeStarten(uint256 kWh) public {... */\n      pop\n      jump\t// out\n        /* \"ChargeChain/LadeSaeule.sol\":193:235  mapping(address => bool) public berechtigt */\n    tag_36:\n      mstore(0x20, 0x02)\n      dup1\n      0x00\n      mstore\n      keccak256(0x00, 0x40)\n      0x00\n      swap2\n      pop\n      sload\n      swap1\n      0x0100\n      exp\n      swap1\n      div\n      0xff\n      and\n      dup2\n      jump\t// out\n        /* \"ChargeChain/LadeSaeule.sol\":2152:2513  function benutzerAuszahlen() public {... */\n    tag_41:\n        /* \"ChargeChain/LadeSaeule.sol\":2199:2213  uint256 betrag */\n      0x00\n        /* \"ChargeChain/LadeSaeule.sol\":2216:2224  guthaben */\n      0x03\n        /* \"ChargeChain/LadeSaeule.sol\":2216:2236  guthaben[msg.sender] */\n      0x00\n        /* \"ChargeChain/LadeSaeule.sol\":2225:2235  msg.sender */\n      caller\n        /* \"ChargeChain/LadeSaeule.sol\":2216:2236  guthaben[msg.sender] */\n      0xffffffffffffffffffffffffffffffffffffffff\n      and\n      0xffffffffffffffffffffffffffffffffffffffff\n      and\n      dup2\n      mstore\n      0x20\n      add\n      swap1\n      dup2\n      mstore\n      0x20\n      add\n      0x00\n      keccak256\n      sload\n        /* \"ChargeChain/LadeSaeule.sol\":2199:2236  uint256 betrag = guthaben[msg.sender] */\n      swap1\n      pop\n        /* \"ChargeChain/LadeSaeule.sol\":2264:2265  0 */\n      0x00\n        /* \"ChargeChain/LadeSaeule.sol\":2255:2261  betrag */\n      dup2\n        /* \"ChargeChain/LadeSaeule.sol\":2255:2265  betrag > 0 */\n      gt\n        /* \"ChargeChain/LadeSaeule.sol\":2247:2294  require(betrag > 0, \"Kein Guthaben vorhanden!\") */\n      tag_107\n      jumpi\n      mload(0x40)\n      0x08c379a000000000000000000000000000000000000000000000000000000000\n      dup2\n      mstore\n      0x04\n      add\n      tag_108\n      swap1\n      tag_109\n      jump\t// in\n    tag_108:\n      mload(0x40)\n      dup1\n      swap2\n      sub\n      swap1\n      revert\n    tag_107:\n        /* \"ChargeChain/LadeSaeule.sol\":2328:2329  0 */\n      0x00\n        /* \"ChargeChain/LadeSaeule.sol\":2305:2313  guthaben */\n      0x03\n        /* \"ChargeChain/LadeSaeule.sol\":2305:2325  guthaben[msg.sender] */\n      0x00\n        /* \"ChargeChain/LadeSaeule.sol\":2314:2324  msg.sender */\n      caller\n        /* \"ChargeChain/LadeSaeule.sol\":2305:2325  guthaben[msg.sender] */\n      0xffffffffffffffffffffffffffffffffffffffff\n      and\n      0xffffffffffffffffffffffffffffffffffffffff\n      and\n      dup2\n      mstore\n      0x20\n      add\n      swap1\n      dup2\n      mstore\n      0x20\n      add\n      0x00\n      keccak256\n        /* \"ChargeChain/LadeSaeule.sol\":2305:2329  guthaben[msg.sender] = 0 */\n      dup2\n      swap1\n      sstore\n      pop\n        /* \"ChargeChain/LadeSaeule.sol\":2341:2353  bool success */\n      0x00\n        /* \"ChargeChain/LadeSaeule.sol\":2367:2377  msg.sender */\n      caller\n        /* \"ChargeChain/LadeSaeule.sol\":2359:2383  payable(msg.sender).call */\n      0xffffffffffffffffffffffffffffffffffffffff\n      and\n        /* \"ChargeChain/LadeSaeule.sol\":2391:2397  betrag */\n      dup3\n        /* \"ChargeChain/LadeSaeule.sol\":2359:2402  payable(msg.sender).call{value: betrag}(\"\") */\n      mload(0x40)\n      tag_110\n      swap1\n      tag_96\n      jump\t// in\n    tag_110:\n      0x00\n      mload(0x40)\n      dup1\n      dup4\n      sub\n      dup2\n      dup6\n      dup8\n      gas\n      call\n      swap3\n      pop\n      pop\n      pop\n      returndatasize\n      dup1\n      0x00\n      dup2\n      eq\n      tag_113\n      jumpi\n      mload(0x40)\n      swap2\n      pop\n      and(add(returndatasize, 0x3f), not(0x1f))\n      dup3\n      add\n      0x40\n      mstore\n      returndatasize\n      dup3\n      mstore\n      returndatasize\n      0x00\n      0x20\n      dup5\n      add\n      returndatacopy\n      jump(tag_112)\n    tag_113:\n      0x60\n      swap2\n      pop\n    tag_112:\n      pop\n        /* \"ChargeChain/LadeSaeule.sol\":2340:2402  (bool success, ) = payable(msg.sender).call{value: betrag}(\"\") */\n      pop\n      swap1\n      pop\n        /* \"ChargeChain/LadeSaeule.sol\":2421:2428  success */\n      dup1\n        /* \"ChargeChain/LadeSaeule.sol\":2413:2459  require(success, \"Auszahlung fehlgeschlagen!\") */\n      tag_114\n      jumpi\n      mload(0x40)\n      0x08c379a000000000000000000000000000000000000000000000000000000000\n      dup2\n      mstore\n      0x04\n      add\n      tag_115\n      swap1\n      tag_116\n      jump\t// in\n    tag_115:\n      mload(0x40)\n      dup1\n      swap2\n      sub\n      swap1\n      revert\n    tag_114:\n        /* \"ChargeChain/LadeSaeule.sol\":2475:2505  Auszahlung(msg.sender, betrag) */\n      0x304ded04755264f107034cb25c290971bc22f9daba5725de3966bfa5d2a6e768\n        /* \"ChargeChain/LadeSaeule.sol\":2486:2496  msg.sender */\n      caller\n        /* \"ChargeChain/LadeSaeule.sol\":2498:2504  betrag */\n      dup4\n        /* \"ChargeChain/LadeSaeule.sol\":2475:2505  Auszahlung(msg.sender, betrag) */\n      mload(0x40)\n      tag_117\n      swap3\n      swap2\n      swap1\n      tag_21\n      jump\t// in\n    tag_117:\n      mload(0x40)\n      dup1\n      swap2\n      sub\n      swap1\n      log1\n        /* \"ChargeChain/LadeSaeule.sol\":2188:2513  {... */\n      pop\n      pop\n        /* \"ChargeChain/LadeSaeule.sol\":2152:2513  function benutzerAuszahlen() public {... */\n      jump\t// out\n        /* \"ChargeChain/LadeSaeule.sol\":3246:3351  function ladeHistorieAnzahl() public view returns (uint256) {... */\n    tag_44:\n        /* \"ChargeChain/LadeSaeule.sol\":3297:3304  uint256 */\n      0x00\n        /* \"ChargeChain/LadeSaeule.sol\":3324:3336  ladeHistorie */\n      0x04\n        /* \"ChargeChain/LadeSaeule.sol\":3324:3343  ladeHistorie.length */\n      dup1\n      sload\n      swap1\n      pop\n        /* \"ChargeChain/LadeSaeule.sol\":3317:3343  return ladeHistorie.length */\n      swap1\n      pop\n        /* \"ChargeChain/LadeSaeule.sol\":3246:3351  function ladeHistorieAnzahl() public view returns (uint256) {... */\n      swap1\n      jump\t// out\n        /* \"ChargeChain/LadeSaeule.sol\":806:997  function einzahlen() public payable {... */\n    tag_48:\n        /* \"ChargeChain/LadeSaeule.sol\":873:874  0 */\n      0x00\n        /* \"ChargeChain/LadeSaeule.sol\":861:870  msg.value */\n      callvalue\n        /* \"ChargeChain/LadeSaeule.sol\":861:874  msg.value > 0 */\n      gt\n        /* \"ChargeChain/LadeSaeule.sol\":853:896  require(msg.value > 0, \"Bitte ETH senden!\") */\n      tag_120\n      jumpi\n      mload(0x40)\n      0x08c379a000000000000000000000000000000000000000000000000000000000\n      dup2\n      mstore\n      0x04\n      add\n      tag_121\n      swap1\n      tag_122\n      jump\t// in\n    tag_121:\n      mload(0x40)\n      dup1\n      swap2\n      sub\n      swap1\n      revert\n    tag_120:\n        /* \"ChargeChain/LadeSaeule.sol\":931:940  msg.value */\n      callvalue\n        /* \"ChargeChain/LadeSaeule.sol\":907:915  guthaben */\n      0x03\n        /* \"ChargeChain/LadeSaeule.sol\":907:927  guthaben[msg.sender] */\n      0x00\n        /* \"ChargeChain/LadeSaeule.sol\":916:926  msg.sender */\n      caller\n        /* \"ChargeChain/LadeSaeule.sol\":907:927  guthaben[msg.sender] */\n      0xffffffffffffffffffffffffffffffffffffffff\n      and\n      0xffffffffffffffffffffffffffffffffffffffff\n      and\n      dup2\n      mstore\n      0x20\n      add\n      swap1\n      dup2\n      mstore\n      0x20\n      add\n      0x00\n      keccak256\n      0x00\n        /* \"ChargeChain/LadeSaeule.sol\":907:940  guthaben[msg.sender] += msg.value */\n      dup3\n      dup3\n      sload\n      tag_123\n      swap2\n      swap1\n      tag_19\n      jump\t// in\n    tag_123:\n      swap3\n      pop\n      pop\n      dup2\n      swap1\n      sstore\n      pop\n        /* \"ChargeChain/LadeSaeule.sol\":956:989  Einzahlung(msg.sender, msg.value) */\n      0x537a4888663bf338e0f1e0a482244d95c4a9924065740c78b417480b31c318e4\n        /* \"ChargeChain/LadeSaeule.sol\":967:977  msg.sender */\n      caller\n        /* \"ChargeChain/LadeSaeule.sol\":979:988  msg.value */\n      callvalue\n        /* \"ChargeChain/LadeSaeule.sol\":956:989  Einzahlung(msg.sender, msg.value) */\n      mload(0x40)\n      tag_124\n      swap3\n      swap2\n      swap1\n      tag_21\n      jump\t// in\n    tag_124:\n      mload(0x40)\n      dup1\n      swap2\n      sub\n      swap1\n      log1\n        /* \"ChargeChain/LadeSaeule.sol\":806:997  function einzahlen() public payable {... */\n      jump\t// out\n        /* \"ChargeChain/LadeSaeule.sol\":87:111  address public betreiber */\n    tag_51:\n      0x00\n      0x00\n      swap1\n      sload\n      swap1\n      0x0100\n      exp\n      swap1\n      div\n      0xffffffffffffffffffffffffffffffffffffffff\n      and\n      dup2\n      jump\t// out\n        /* \"ChargeChain/LadeSaeule.sol\":2521:2714  function setPreisProKWh(uint256 preisInEth) public {... */\n    tag_57:\n        /* \"ChargeChain/LadeSaeule.sol\":2605:2614  betreiber */\n      0x00\n      0x00\n      swap1\n      sload\n      swap1\n      0x0100\n      exp\n      swap1\n      div\n      0xffffffffffffffffffffffffffffffffffffffff\n      and\n        /* \"ChargeChain/LadeSaeule.sol\":2591:2614  msg.sender == betreiber */\n      0xffffffffffffffffffffffffffffffffffffffff\n      and\n        /* \"ChargeChain/LadeSaeule.sol\":2591:2601  msg.sender */\n      caller\n        /* \"ChargeChain/LadeSaeule.sol\":2591:2614  msg.sender == betreiber */\n      0xffffffffffffffffffffffffffffffffffffffff\n      and\n      eq\n        /* \"ChargeChain/LadeSaeule.sol\":2583:2633  require(msg.sender == betreiber, \"Nur Betreiber!\") */\n      tag_126\n      jumpi\n      mload(0x40)\n      0x08c379a000000000000000000000000000000000000000000000000000000000\n      dup2\n      mstore\n      0x04\n      add\n      tag_127\n      swap1\n      tag_80\n      jump\t// in\n    tag_127:\n      mload(0x40)\n      dup1\n      swap2\n      sub\n      swap1\n      revert\n    tag_126:\n        /* \"ChargeChain/LadeSaeule.sol\":2674:2681  1 ether */\n      0x0de0b6b3a7640000\n        /* \"ChargeChain/LadeSaeule.sol\":2661:2671  preisInEth */\n      dup2\n        /* \"ChargeChain/LadeSaeule.sol\":2661:2681  preisInEth * 1 ether */\n      tag_128\n      swap2\n      swap1\n      tag_89\n      jump\t// in\n    tag_128:\n        /* \"ChargeChain/LadeSaeule.sol\":2644:2658  preisProKWhWei */\n      0x01\n        /* \"ChargeChain/LadeSaeule.sol\":2644:2681  preisProKWhWei = preisInEth * 1 ether */\n      dup2\n      swap1\n      sstore\n      pop\n        /* \"ChargeChain/LadeSaeule.sol\":2521:2714  function setPreisProKWh(uint256 preisInEth) public {... */\n      pop\n      jump\t// out\n        /* \"ChargeChain/LadeSaeule.sol\":1941:2099  function auszahlen() public {... */\n    tag_60:\n        /* \"ChargeChain/LadeSaeule.sol\":2002:2011  betreiber */\n      0x00\n      0x00\n      swap1\n      sload\n      swap1\n      0x0100\n      exp\n      swap1\n      div\n      0xffffffffffffffffffffffffffffffffffffffff\n      and\n        /* \"ChargeChain/LadeSaeule.sol\":1988:2011  msg.sender == betreiber */\n      0xffffffffffffffffffffffffffffffffffffffff\n      and\n        /* \"ChargeChain/LadeSaeule.sol\":1988:1998  msg.sender */\n      caller\n        /* \"ChargeChain/LadeSaeule.sol\":1988:2011  msg.sender == betreiber */\n      0xffffffffffffffffffffffffffffffffffffffff\n      and\n      eq\n        /* \"ChargeChain/LadeSaeule.sol\":1980:2030  require(msg.sender == betreiber, \"Nur Betreiber!\") */\n      tag_130\n      jumpi\n      mload(0x40)\n      0x08c379a000000000000000000000000000000000000000000000000000000000\n      dup2\n      mstore\n      0x04\n      add\n      tag_131\n      swap1\n      tag_80\n      jump\t// in\n    tag_131:\n      mload(0x40)\n      dup1\n      swap2\n      sub\n      swap1\n      revert\n    tag_130:\n        /* \"ChargeChain/LadeSaeule.sol\":2049:2058  betreiber */\n      0x00\n      0x00\n      swap1\n      sload\n      swap1\n      0x0100\n      exp\n      swap1\n      div\n      0xffffffffffffffffffffffffffffffffffffffff\n      and\n        /* \"ChargeChain/LadeSaeule.sol\":2041:2068  payable(betreiber).transfer */\n      0xffffffffffffffffffffffffffffffffffffffff\n      and\n        /* \"ChargeChain/LadeSaeule.sol\":2041:2091  payable(betreiber).transfer(address(this).balance) */\n      0x08fc\n        /* \"ChargeChain/LadeSaeule.sol\":2069:2090  address(this).balance */\n      selfbalance\n        /* \"ChargeChain/LadeSaeule.sol\":2041:2091  payable(betreiber).transfer(address(this).balance) */\n      swap1\n      dup2\n      iszero\n      mul\n      swap1\n      mload(0x40)\n      0x00\n      mload(0x40)\n      dup1\n      dup4\n      sub\n      dup2\n      dup6\n      dup9\n      dup9\n      call\n      swap4\n      pop\n      pop\n      pop\n      pop\n      iszero\n      dup1\n      iszero\n      tag_133\n      jumpi\n      returndatacopy(0x00, 0x00, returndatasize)\n      revert(0x00, returndatasize)\n    tag_133:\n      pop\n        /* \"ChargeChain/LadeSaeule.sol\":1941:2099  function auszahlen() public {... */\n      jump\t// out\n        /* \"ChargeChain/LadeSaeule.sol\":701:734  Ladevorgang[] public ladeHistorie */\n    tag_64:\n      0x04\n      dup2\n      dup2\n      sload\n      dup2\n      lt\n      tag_134\n      jumpi\n      0x00\n      dup1\n      revert\n    tag_134:\n      swap1\n      0x00\n      mstore\n      keccak256(0x00, 0x20)\n      swap1\n      0x04\n      mul\n      add\n      0x00\n      swap2\n      pop\n      swap1\n      pop\n      dup1\n      0x00\n      add\n      0x00\n      swap1\n      sload\n      swap1\n      0x0100\n      exp\n      swap1\n      div\n      0xffffffffffffffffffffffffffffffffffffffff\n      and\n      swap1\n      dup1\n      0x01\n      add\n      sload\n      swap1\n      dup1\n      0x02\n      add\n      sload\n      swap1\n      dup1\n      0x03\n      add\n      sload\n      swap1\n      pop\n      dup5\n      jump\t// out\n        /* \"ChargeChain/LadeSaeule.sol\":118:160  uint256 public preisProKWhWei = 0.01 ether */\n    tag_69:\n      sload(0x01)\n      dup2\n      jump\t// out\n        /* \"ChargeChain/LadeSaeule.sol\":2918:3182  function guthabenInEth(address nutzer) public view returns (uint256 ethGanz, uint256 ethDezimal) {... */\n    tag_74:\n        /* \"ChargeChain/LadeSaeule.sol\":2978:2993  uint256 ethGanz */\n      0x00\n        /* \"ChargeChain/LadeSaeule.sol\":2995:3013  uint256 ethDezimal */\n      0x00\n        /* \"ChargeChain/LadeSaeule.sol\":3026:3038  uint256 wert */\n      0x00\n        /* \"ChargeChain/LadeSaeule.sol\":3041:3049  guthaben */\n      0x03\n        /* \"ChargeChain/LadeSaeule.sol\":3041:3057  guthaben[nutzer] */\n      0x00\n        /* \"ChargeChain/LadeSaeule.sol\":3050:3056  nutzer */\n      dup6\n        /* \"ChargeChain/LadeSaeule.sol\":3041:3057  guthaben[nutzer] */\n      0xffffffffffffffffffffffffffffffffffffffff\n      and\n      0xffffffffffffffffffffffffffffffffffffffff\n      and\n      dup2\n      mstore\n      0x20\n      add\n      swap1\n      dup2\n      mstore\n      0x20\n      add\n      0x00\n      keccak256\n      sload\n        /* \"ChargeChain/LadeSaeule.sol\":3026:3057  uint256 wert = guthaben[nutzer] */\n      swap1\n      pop\n        /* \"ChargeChain/LadeSaeule.sol\":3085:3092  1 ether */\n      0x0de0b6b3a7640000\n        /* \"ChargeChain/LadeSaeule.sol\":3078:3082  wert */\n      dup2\n        /* \"ChargeChain/LadeSaeule.sol\":3078:3092  wert / 1 ether */\n      tag_137\n      swap2\n      swap1\n      tag_138\n      jump\t// in\n    tag_137:\n        /* \"ChargeChain/LadeSaeule.sol\":3068:3092  ethGanz = wert / 1 ether */\n      swap3\n      pop\n        /* \"ChargeChain/LadeSaeule.sol\":3135:3139  1e14 */\n      0x5af3107a4000\n        /* \"ChargeChain/LadeSaeule.sol\":3124:3131  1 ether */\n      0x0de0b6b3a7640000\n        /* \"ChargeChain/LadeSaeule.sol\":3117:3121  wert */\n      dup3\n        /* \"ChargeChain/LadeSaeule.sol\":3117:3131  wert % 1 ether */\n      tag_139\n      swap2\n      swap1\n      tag_140\n      jump\t// in\n    tag_139:\n        /* \"ChargeChain/LadeSaeule.sol\":3116:3139  (wert % 1 ether) / 1e14 */\n      tag_141\n      swap2\n      swap1\n      tag_138\n      jump\t// in\n    tag_141:\n        /* \"ChargeChain/LadeSaeule.sol\":3103:3139  ethDezimal = (wert % 1 ether) / 1e14 */\n      swap2\n      pop\n        /* \"ChargeChain/LadeSaeule.sol\":3015:3182  {... */\n      pop\n        /* \"ChargeChain/LadeSaeule.sol\":2918:3182  function guthabenInEth(address nutzer) public view returns (uint256 ethGanz, uint256 ethDezimal) {... */\n      swap2\n      pop\n      swap2\n      jump\t// out\n        /* \"#utility.yul\":7:84   */\n    tag_142:\n        /* \"#utility.yul\":44:51   */\n      0x00\n        /* \"#utility.yul\":73:78   */\n      dup2\n        /* \"#utility.yul\":62:78   */\n      swap1\n      pop\n        /* \"#utility.yul\":7:84   */\n      swap2\n      swap1\n      pop\n      jump\t// out\n        /* \"#utility.yul\":90:270   */\n    tag_143:\n        /* \"#utility.yul\":138:215   */\n      0x4e487b7100000000000000000000000000000000000000000000000000000000\n        /* \"#utility.yul\":135:136   */\n      0x00\n        /* \"#utility.yul\":128:216   */\n      mstore\n        /* \"#utility.yul\":235:239   */\n      0x11\n        /* \"#utility.yul\":232:233   */\n      0x04\n        /* \"#utility.yul\":225:240   */\n      mstore\n        /* \"#utility.yul\":259:263   */\n      0x24\n        /* \"#utility.yul\":256:257   */\n      0x00\n        /* \"#utility.yul\":249:264   */\n      revert\n        /* \"#utility.yul\":276:467   */\n    tag_19:\n        /* \"#utility.yul\":316:319   */\n      0x00\n        /* \"#utility.yul\":335:355   */\n      tag_184\n        /* \"#utility.yul\":353:354   */\n      dup3\n        /* \"#utility.yul\":335:355   */\n      tag_142\n      jump\t// in\n    tag_184:\n        /* \"#utility.yul\":330:355   */\n      swap2\n      pop\n        /* \"#utility.yul\":369:389   */\n      tag_185\n        /* \"#utility.yul\":387:388   */\n      dup4\n        /* \"#utility.yul\":369:389   */\n      tag_142\n      jump\t// in\n    tag_185:\n        /* \"#utility.yul\":364:389   */\n      swap3\n      pop\n        /* \"#utility.yul\":412:413   */\n      dup3\n        /* \"#utility.yul\":409:410   */\n      dup3\n        /* \"#utility.yul\":405:414   */\n      add\n        /* \"#utility.yul\":398:414   */\n      swap1\n      pop\n        /* \"#utility.yul\":433:436   */\n      dup1\n        /* \"#utility.yul\":430:431   */\n      dup3\n        /* \"#utility.yul\":427:437   */\n      gt\n        /* \"#utility.yul\":424:460   */\n      iszero\n      tag_186\n      jumpi\n        /* \"#utility.yul\":440:458   */\n      tag_187\n      tag_143\n      jump\t// in\n    tag_187:\n        /* \"#utility.yul\":424:460   */\n    tag_186:\n        /* \"#utility.yul\":276:467   */\n      swap3\n      swap2\n      pop\n      pop\n      jump\t// out\n        /* \"#utility.yul\":473:599   */\n    tag_144:\n        /* \"#utility.yul\":510:517   */\n      0x00\n        /* \"#utility.yul\":550:592   */\n      0xffffffffffffffffffffffffffffffffffffffff\n        /* \"#utility.yul\":543:548   */\n      dup3\n        /* \"#utility.yul\":539:593   */\n      and\n        /* \"#utility.yul\":528:593   */\n      swap1\n      pop\n        /* \"#utility.yul\":473:599   */\n      swap2\n      swap1\n      pop\n      jump\t// out\n        /* \"#utility.yul\":605:701   */\n    tag_145:\n        /* \"#utility.yul\":642:649   */\n      0x00\n        /* \"#utility.yul\":671:695   */\n      tag_190\n        /* \"#utility.yul\":689:694   */\n      dup3\n        /* \"#utility.yul\":671:695   */\n      tag_144\n      jump\t// in\n    tag_190:\n        /* \"#utility.yul\":660:695   */\n      swap1\n      pop\n        /* \"#utility.yul\":605:701   */\n      swap2\n      swap1\n      pop\n      jump\t// out\n        /* \"#utility.yul\":707:825   */\n    tag_146:\n        /* \"#utility.yul\":794:818   */\n      tag_192\n        /* \"#utility.yul\":812:817   */\n      dup2\n        /* \"#utility.yul\":794:818   */\n      tag_145\n      jump\t// in\n    tag_192:\n        /* \"#utility.yul\":789:792   */\n      dup3\n        /* \"#utility.yul\":782:819   */\n      mstore\n        /* \"#utility.yul\":707:825   */\n      pop\n      pop\n      jump\t// out\n        /* \"#utility.yul\":831:949   */\n    tag_147:\n        /* \"#utility.yul\":918:942   */\n      tag_194\n        /* \"#utility.yul\":936:941   */\n      dup2\n        /* \"#utility.yul\":918:942   */\n      tag_142\n      jump\t// in\n    tag_194:\n        /* \"#utility.yul\":913:916   */\n      dup3\n        /* \"#utility.yul\":906:943   */\n      mstore\n        /* \"#utility.yul\":831:949   */\n      pop\n      pop\n      jump\t// out\n        /* \"#utility.yul\":955:1287   */\n    tag_21:\n        /* \"#utility.yul\":1076:1080   */\n      0x00\n        /* \"#utility.yul\":1114:1116   */\n      0x40\n        /* \"#utility.yul\":1103:1112   */\n      dup3\n        /* \"#utility.yul\":1099:1117   */\n      add\n        /* \"#utility.yul\":1091:1117   */\n      swap1\n      pop\n        /* \"#utility.yul\":1127:1198   */\n      tag_196\n        /* \"#utility.yul\":1195:1196   */\n      0x00\n        /* \"#utility.yul\":1184:1193   */\n      dup4\n        /* \"#utility.yul\":1180:1197   */\n      add\n        /* \"#utility.yul\":1171:1177   */\n      dup6\n        /* \"#utility.yul\":1127:1198   */\n      tag_146\n      jump\t// in\n    tag_196:\n        /* \"#utility.yul\":1208:1280   */\n      tag_197\n        /* \"#utility.yul\":1276:1278   */\n      0x20\n        /* \"#utility.yul\":1265:1274   */\n      dup4\n        /* \"#utility.yul\":1261:1279   */\n      add\n        /* \"#utility.yul\":1252:1258   */\n      dup5\n        /* \"#utility.yul\":1208:1280   */\n      tag_147\n      jump\t// in\n    tag_197:\n        /* \"#utility.yul\":955:1287   */\n      swap4\n      swap3\n      pop\n      pop\n      pop\n      jump\t// out\n        /* \"#utility.yul\":1374:1491   */\n    tag_149:\n        /* \"#utility.yul\":1483:1484   */\n      0x00\n        /* \"#utility.yul\":1480:1481   */\n      0x00\n        /* \"#utility.yul\":1473:1485   */\n      revert\n        /* \"#utility.yul\":1620:1742   */\n    tag_151:\n        /* \"#utility.yul\":1693:1717   */\n      tag_202\n        /* \"#utility.yul\":1711:1716   */\n      dup2\n        /* \"#utility.yul\":1693:1717   */\n      tag_145\n      jump\t// in\n    tag_202:\n        /* \"#utility.yul\":1686:1691   */\n      dup2\n        /* \"#utility.yul\":1683:1718   */\n      eq\n        /* \"#utility.yul\":1673:1736   */\n      tag_203\n      jumpi\n        /* \"#utility.yul\":1732:1733   */\n      0x00\n        /* \"#utility.yul\":1729:1730   */\n      0x00\n        /* \"#utility.yul\":1722:1734   */\n      revert\n        /* \"#utility.yul\":1673:1736   */\n    tag_203:\n        /* \"#utility.yul\":1620:1742   */\n      pop\n      jump\t// out\n        /* \"#utility.yul\":1748:1887   */\n    tag_152:\n        /* \"#utility.yul\":1794:1799   */\n      0x00\n        /* \"#utility.yul\":1832:1838   */\n      dup2\n        /* \"#utility.yul\":1819:1839   */\n      calldataload\n        /* \"#utility.yul\":1810:1839   */\n      swap1\n      pop\n        /* \"#utility.yul\":1848:1881   */\n      tag_205\n        /* \"#utility.yul\":1875:1880   */\n      dup2\n        /* \"#utility.yul\":1848:1881   */\n      tag_151\n      jump\t// in\n    tag_205:\n        /* \"#utility.yul\":1748:1887   */\n      swap3\n      swap2\n      pop\n      pop\n      jump\t// out\n        /* \"#utility.yul\":1893:1983   */\n    tag_153:\n        /* \"#utility.yul\":1927:1934   */\n      0x00\n        /* \"#utility.yul\":1970:1975   */\n      dup2\n        /* \"#utility.yul\":1963:1976   */\n      iszero\n        /* \"#utility.yul\":1956:1977   */\n      iszero\n        /* \"#utility.yul\":1945:1977   */\n      swap1\n      pop\n        /* \"#utility.yul\":1893:1983   */\n      swap2\n      swap1\n      pop\n      jump\t// out\n        /* \"#utility.yul\":1989:2105   */\n    tag_154:\n        /* \"#utility.yul\":2059:2080   */\n      tag_208\n        /* \"#utility.yul\":2074:2079   */\n      dup2\n        /* \"#utility.yul\":2059:2080   */\n      tag_153\n      jump\t// in\n    tag_208:\n        /* \"#utility.yul\":2052:2057   */\n      dup2\n        /* \"#utility.yul\":2049:2081   */\n      eq\n        /* \"#utility.yul\":2039:2099   */\n      tag_209\n      jumpi\n        /* \"#utility.yul\":2095:2096   */\n      0x00\n        /* \"#utility.yul\":2092:2093   */\n      0x00\n        /* \"#utility.yul\":2085:2097   */\n      revert\n        /* \"#utility.yul\":2039:2099   */\n    tag_209:\n        /* \"#utility.yul\":1989:2105   */\n      pop\n      jump\t// out\n        /* \"#utility.yul\":2111:2244   */\n    tag_155:\n        /* \"#utility.yul\":2154:2159   */\n      0x00\n        /* \"#utility.yul\":2192:2198   */\n      dup2\n        /* \"#utility.yul\":2179:2199   */\n      calldataload\n        /* \"#utility.yul\":2170:2199   */\n      swap1\n      pop\n        /* \"#utility.yul\":2208:2238   */\n      tag_211\n        /* \"#utility.yul\":2232:2237   */\n      dup2\n        /* \"#utility.yul\":2208:2238   */\n      tag_154\n      jump\t// in\n    tag_211:\n        /* \"#utility.yul\":2111:2244   */\n      swap3\n      swap2\n      pop\n      pop\n      jump\t// out\n        /* \"#utility.yul\":2250:2718   */\n    tag_25:\n        /* \"#utility.yul\":2315:2321   */\n      0x00\n        /* \"#utility.yul\":2323:2329   */\n      0x00\n        /* \"#utility.yul\":2372:2374   */\n      0x40\n        /* \"#utility.yul\":2360:2369   */\n      dup4\n        /* \"#utility.yul\":2351:2358   */\n      dup6\n        /* \"#utility.yul\":2347:2370   */\n      sub\n        /* \"#utility.yul\":2343:2375   */\n      slt\n        /* \"#utility.yul\":2340:2459   */\n      iszero\n      tag_213\n      jumpi\n        /* \"#utility.yul\":2378:2457   */\n      tag_214\n      tag_149\n      jump\t// in\n    tag_214:\n        /* \"#utility.yul\":2340:2459   */\n    tag_213:\n        /* \"#utility.yul\":2498:2499   */\n      0x00\n        /* \"#utility.yul\":2523:2576   */\n      tag_215\n        /* \"#utility.yul\":2568:2575   */\n      dup6\n        /* \"#utility.yul\":2559:2565   */\n      dup3\n        /* \"#utility.yul\":2548:2557   */\n      dup7\n        /* \"#utility.yul\":2544:2566   */\n      add\n        /* \"#utility.yul\":2523:2576   */\n      tag_152\n      jump\t// in\n    tag_215:\n        /* \"#utility.yul\":2513:2576   */\n      swap3\n      pop\n        /* \"#utility.yul\":2469:2586   */\n      pop\n        /* \"#utility.yul\":2625:2627   */\n      0x20\n        /* \"#utility.yul\":2651:2701   */\n      tag_216\n        /* \"#utility.yul\":2693:2700   */\n      dup6\n        /* \"#utility.yul\":2684:2690   */\n      dup3\n        /* \"#utility.yul\":2673:2682   */\n      dup7\n        /* \"#utility.yul\":2669:2691   */\n      add\n        /* \"#utility.yul\":2651:2701   */\n      tag_155\n      jump\t// in\n    tag_216:\n        /* \"#utility.yul\":2641:2701   */\n      swap2\n      pop\n        /* \"#utility.yul\":2596:2711   */\n      pop\n        /* \"#utility.yul\":2250:2718   */\n      swap3\n      pop\n      swap3\n      swap1\n      pop\n      jump\t// out\n        /* \"#utility.yul\":2724:2846   */\n    tag_156:\n        /* \"#utility.yul\":2797:2821   */\n      tag_218\n        /* \"#utility.yul\":2815:2820   */\n      dup2\n        /* \"#utility.yul\":2797:2821   */\n      tag_142\n      jump\t// in\n    tag_218:\n        /* \"#utility.yul\":2790:2795   */\n      dup2\n        /* \"#utility.yul\":2787:2822   */\n      eq\n        /* \"#utility.yul\":2777:2840   */\n      tag_219\n      jumpi\n        /* \"#utility.yul\":2836:2837   */\n      0x00\n        /* \"#utility.yul\":2833:2834   */\n      0x00\n        /* \"#utility.yul\":2826:2838   */\n      revert\n        /* \"#utility.yul\":2777:2840   */\n    tag_219:\n        /* \"#utility.yul\":2724:2846   */\n      pop\n      jump\t// out\n        /* \"#utility.yul\":2852:2991   */\n    tag_157:\n        /* \"#utility.yul\":2898:2903   */\n      0x00\n        /* \"#utility.yul\":2936:2942   */\n      dup2\n        /* \"#utility.yul\":2923:2943   */\n      calldataload\n        /* \"#utility.yul\":2914:2943   */\n      swap1\n      pop\n        /* \"#utility.yul\":2952:2985   */\n      tag_221\n        /* \"#utility.yul\":2979:2984   */\n      dup2\n        /* \"#utility.yul\":2952:2985   */\n      tag_156\n      jump\t// in\n    tag_221:\n        /* \"#utility.yul\":2852:2991   */\n      swap3\n      swap2\n      pop\n      pop\n      jump\t// out\n        /* \"#utility.yul\":2997:3326   */\n    tag_30:\n        /* \"#utility.yul\":3056:3062   */\n      0x00\n        /* \"#utility.yul\":3105:3107   */\n      0x20\n        /* \"#utility.yul\":3093:3102   */\n      dup3\n        /* \"#utility.yul\":3084:3091   */\n      dup5\n        /* \"#utility.yul\":3080:3103   */\n      sub\n        /* \"#utility.yul\":3076:3108   */\n      slt\n        /* \"#utility.yul\":3073:3192   */\n      iszero\n      tag_223\n      jumpi\n        /* \"#utility.yul\":3111:3190   */\n      tag_224\n      tag_149\n      jump\t// in\n    tag_224:\n        /* \"#utility.yul\":3073:3192   */\n    tag_223:\n        /* \"#utility.yul\":3231:3232   */\n      0x00\n        /* \"#utility.yul\":3256:3309   */\n      tag_225\n        /* \"#utility.yul\":3301:3308   */\n      dup5\n        /* \"#utility.yul\":3292:3298   */\n      dup3\n        /* \"#utility.yul\":3281:3290   */\n      dup6\n        /* \"#utility.yul\":3277:3299   */\n      add\n        /* \"#utility.yul\":3256:3309   */\n      tag_157\n      jump\t// in\n    tag_225:\n        /* \"#utility.yul\":3246:3309   */\n      swap2\n      pop\n        /* \"#utility.yul\":3202:3319   */\n      pop\n        /* \"#utility.yul\":2997:3326   */\n      swap3\n      swap2\n      pop\n      pop\n      jump\t// out\n        /* \"#utility.yul\":3332:3661   */\n    tag_35:\n        /* \"#utility.yul\":3391:3397   */\n      0x00\n        /* \"#utility.yul\":3440:3442   */\n      0x20\n        /* \"#utility.yul\":3428:3437   */\n      dup3\n        /* \"#utility.yul\":3419:3426   */\n      dup5\n        /* \"#utility.yul\":3415:3438   */\n      sub\n        /* \"#utility.yul\":3411:3443   */\n      slt\n        /* \"#utility.yul\":3408:3527   */\n      iszero\n      tag_227\n      jumpi\n        /* \"#utility.yul\":3446:3525   */\n      tag_228\n      tag_149\n      jump\t// in\n    tag_228:\n        /* \"#utility.yul\":3408:3527   */\n    tag_227:\n        /* \"#utility.yul\":3566:3567   */\n      0x00\n        /* \"#utility.yul\":3591:3644   */\n      tag_229\n        /* \"#utility.yul\":3636:3643   */\n      dup5\n        /* \"#utility.yul\":3627:3633   */\n      dup3\n        /* \"#utility.yul\":3616:3625   */\n      dup6\n        /* \"#utility.yul\":3612:3634   */\n      add\n        /* \"#utility.yul\":3591:3644   */\n      tag_152\n      jump\t// in\n    tag_229:\n        /* \"#utility.yul\":3581:3644   */\n      swap2\n      pop\n        /* \"#utility.yul\":3537:3654   */\n      pop\n        /* \"#utility.yul\":3332:3661   */\n      swap3\n      swap2\n      pop\n      pop\n      jump\t// out\n        /* \"#utility.yul\":3667:3776   */\n    tag_158:\n        /* \"#utility.yul\":3748:3769   */\n      tag_231\n        /* \"#utility.yul\":3763:3768   */\n      dup2\n        /* \"#utility.yul\":3748:3769   */\n      tag_153\n      jump\t// in\n    tag_231:\n        /* \"#utility.yul\":3743:3746   */\n      dup3\n        /* \"#utility.yul\":3736:3770   */\n      mstore\n        /* \"#utility.yul\":3667:3776   */\n      pop\n      pop\n      jump\t// out\n        /* \"#utility.yul\":3782:3992   */\n    tag_38:\n        /* \"#utility.yul\":3869:3873   */\n      0x00\n        /* \"#utility.yul\":3907:3909   */\n      0x20\n        /* \"#utility.yul\":3896:3905   */\n      dup3\n        /* \"#utility.yul\":3892:3910   */\n      add\n        /* \"#utility.yul\":3884:3910   */\n      swap1\n      pop\n        /* \"#utility.yul\":3920:3985   */\n      tag_233\n        /* \"#utility.yul\":3982:3983   */\n      0x00\n        /* \"#utility.yul\":3971:3980   */\n      dup4\n        /* \"#utility.yul\":3967:3984   */\n      add\n        /* \"#utility.yul\":3958:3964   */\n      dup5\n        /* \"#utility.yul\":3920:3985   */\n      tag_158\n      jump\t// in\n    tag_233:\n        /* \"#utility.yul\":3782:3992   */\n      swap3\n      swap2\n      pop\n      pop\n      jump\t// out\n        /* \"#utility.yul\":3998:4220   */\n    tag_46:\n        /* \"#utility.yul\":4091:4095   */\n      0x00\n        /* \"#utility.yul\":4129:4131   */\n      0x20\n        /* \"#utility.yul\":4118:4127   */\n      dup3\n        /* \"#utility.yul\":4114:4132   */\n      add\n        /* \"#utility.yul\":4106:4132   */\n      swap1\n      pop\n        /* \"#utility.yul\":4142:4213   */\n      tag_235\n        /* \"#utility.yul\":4210:4211   */\n      0x00\n        /* \"#utility.yul\":4199:4208   */\n      dup4\n        /* \"#utility.yul\":4195:4212   */\n      add\n        /* \"#utility.yul\":4186:4192   */\n      dup5\n        /* \"#utility.yul\":4142:4213   */\n      tag_147\n      jump\t// in\n    tag_235:\n        /* \"#utility.yul\":3998:4220   */\n      swap3\n      swap2\n      pop\n      pop\n      jump\t// out\n        /* \"#utility.yul\":4226:4448   */\n    tag_53:\n        /* \"#utility.yul\":4319:4323   */\n      0x00\n        /* \"#utility.yul\":4357:4359   */\n      0x20\n        /* \"#utility.yul\":4346:4355   */\n      dup3\n        /* \"#utility.yul\":4342:4360   */\n      add\n        /* \"#utility.yul\":4334:4360   */\n      swap1\n      pop\n        /* \"#utility.yul\":4370:4441   */\n      tag_237\n        /* \"#utility.yul\":4438:4439   */\n      0x00\n        /* \"#utility.yul\":4427:4436   */\n      dup4\n        /* \"#utility.yul\":4423:4440   */\n      add\n        /* \"#utility.yul\":4414:4420   */\n      dup5\n        /* \"#utility.yul\":4370:4441   */\n      tag_146\n      jump\t// in\n    tag_237:\n        /* \"#utility.yul\":4226:4448   */\n      swap3\n      swap2\n      pop\n      pop\n      jump\t// out\n        /* \"#utility.yul\":4454:5007   */\n    tag_66:\n        /* \"#utility.yul\":4631:4635   */\n      0x00\n        /* \"#utility.yul\":4669:4672   */\n      0x80\n        /* \"#utility.yul\":4658:4667   */\n      dup3\n        /* \"#utility.yul\":4654:4673   */\n      add\n        /* \"#utility.yul\":4646:4673   */\n      swap1\n      pop\n        /* \"#utility.yul\":4683:4754   */\n      tag_239\n        /* \"#utility.yul\":4751:4752   */\n      0x00\n        /* \"#utility.yul\":4740:4749   */\n      dup4\n        /* \"#utility.yul\":4736:4753   */\n      add\n        /* \"#utility.yul\":4727:4733   */\n      dup8\n        /* \"#utility.yul\":4683:4754   */\n      tag_146\n      jump\t// in\n    tag_239:\n        /* \"#utility.yul\":4764:4836   */\n      tag_240\n        /* \"#utility.yul\":4832:4834   */\n      0x20\n        /* \"#utility.yul\":4821:4830   */\n      dup4\n        /* \"#utility.yul\":4817:4835   */\n      add\n        /* \"#utility.yul\":4808:4814   */\n      dup7\n        /* \"#utility.yul\":4764:4836   */\n      tag_147\n      jump\t// in\n    tag_240:\n        /* \"#utility.yul\":4846:4918   */\n      tag_241\n        /* \"#utility.yul\":4914:4916   */\n      0x40\n        /* \"#utility.yul\":4903:4912   */\n      dup4\n        /* \"#utility.yul\":4899:4917   */\n      add\n        /* \"#utility.yul\":4890:4896   */\n      dup6\n        /* \"#utility.yul\":4846:4918   */\n      tag_147\n      jump\t// in\n    tag_241:\n        /* \"#utility.yul\":4928:5000   */\n      tag_242\n        /* \"#utility.yul\":4996:4998   */\n      0x60\n        /* \"#utility.yul\":4985:4994   */\n      dup4\n        /* \"#utility.yul\":4981:4999   */\n      add\n        /* \"#utility.yul\":4972:4978   */\n      dup5\n        /* \"#utility.yul\":4928:5000   */\n      tag_147\n      jump\t// in\n    tag_242:\n        /* \"#utility.yul\":4454:5007   */\n      swap6\n      swap5\n      pop\n      pop\n      pop\n      pop\n      pop\n      jump\t// out\n        /* \"#utility.yul\":5013:5345   */\n    tag_76:\n        /* \"#utility.yul\":5134:5138   */\n      0x00\n        /* \"#utility.yul\":5172:5174   */\n      0x40\n        /* \"#utility.yul\":5161:5170   */\n      dup3\n        /* \"#utility.yul\":5157:5175   */\n      add\n        /* \"#utility.yul\":5149:5175   */\n      swap1\n      pop\n        /* \"#utility.yul\":5185:5256   */\n      tag_244\n        /* \"#utility.yul\":5253:5254   */\n      0x00\n        /* \"#utility.yul\":5242:5251   */\n      dup4\n        /* \"#utility.yul\":5238:5255   */\n      add\n        /* \"#utility.yul\":5229:5235   */\n      dup6\n        /* \"#utility.yul\":5185:5256   */\n      tag_147\n      jump\t// in\n    tag_244:\n        /* \"#utility.yul\":5266:5338   */\n      tag_245\n        /* \"#utility.yul\":5334:5336   */\n      0x20\n        /* \"#utility.yul\":5323:5332   */\n      dup4\n        /* \"#utility.yul\":5319:5337   */\n      add\n        /* \"#utility.yul\":5310:5316   */\n      dup5\n        /* \"#utility.yul\":5266:5338   */\n      tag_147\n      jump\t// in\n    tag_245:\n        /* \"#utility.yul\":5013:5345   */\n      swap4\n      swap3\n      pop\n      pop\n      pop\n      jump\t// out\n        /* \"#utility.yul\":5351:5520   */\n    tag_159:\n        /* \"#utility.yul\":5435:5446   */\n      0x00\n        /* \"#utility.yul\":5469:5475   */\n      dup3\n        /* \"#utility.yul\":5464:5467   */\n      dup3\n        /* \"#utility.yul\":5457:5476   */\n      mstore\n        /* \"#utility.yul\":5509:5513   */\n      0x20\n        /* \"#utility.yul\":5504:5507   */\n      dup3\n        /* \"#utility.yul\":5500:5514   */\n      add\n        /* \"#utility.yul\":5485:5514   */\n      swap1\n      pop\n        /* \"#utility.yul\":5351:5520   */\n      swap3\n      swap2\n      pop\n      pop\n      jump\t// out\n        /* \"#utility.yul\":5526:5690   */\n    tag_160:\n        /* \"#utility.yul\":5666:5682   */\n      0x4e75722042657472656962657221000000000000000000000000000000000000\n        /* \"#utility.yul\":5662:5663   */\n      0x00\n        /* \"#utility.yul\":5654:5660   */\n      dup3\n        /* \"#utility.yul\":5650:5664   */\n      add\n        /* \"#utility.yul\":5643:5683   */\n      mstore\n        /* \"#utility.yul\":5526:5690   */\n      pop\n      jump\t// out\n        /* \"#utility.yul\":5696:6062   */\n    tag_161:\n        /* \"#utility.yul\":5838:5841   */\n      0x00\n        /* \"#utility.yul\":5859:5926   */\n      tag_249\n        /* \"#utility.yul\":5923:5925   */\n      0x0e\n        /* \"#utility.yul\":5918:5921   */\n      dup4\n        /* \"#utility.yul\":5859:5926   */\n      tag_159\n      jump\t// in\n    tag_249:\n        /* \"#utility.yul\":5852:5926   */\n      swap2\n      pop\n        /* \"#utility.yul\":5935:6028   */\n      tag_250\n        /* \"#utility.yul\":6024:6027   */\n      dup3\n        /* \"#utility.yul\":5935:6028   */\n      tag_160\n      jump\t// in\n    tag_250:\n        /* \"#utility.yul\":6053:6055   */\n      0x20\n        /* \"#utility.yul\":6048:6051   */\n      dup3\n        /* \"#utility.yul\":6044:6056   */\n      add\n        /* \"#utility.yul\":6037:6056   */\n      swap1\n      pop\n        /* \"#utility.yul\":5696:6062   */\n      swap2\n      swap1\n      pop\n      jump\t// out\n        /* \"#utility.yul\":6068:6487   */\n    tag_80:\n        /* \"#utility.yul\":6234:6238   */\n      0x00\n        /* \"#utility.yul\":6272:6274   */\n      0x20\n        /* \"#utility.yul\":6261:6270   */\n      dup3\n        /* \"#utility.yul\":6257:6275   */\n      add\n        /* \"#utility.yul\":6249:6275   */\n      swap1\n      pop\n        /* \"#utility.yul\":6321:6330   */\n      dup2\n        /* \"#utility.yul\":6315:6319   */\n      dup2\n        /* \"#utility.yul\":6311:6331   */\n      sub\n        /* \"#utility.yul\":6307:6308   */\n      0x00\n        /* \"#utility.yul\":6296:6305   */\n      dup4\n        /* \"#utility.yul\":6292:6309   */\n      add\n        /* \"#utility.yul\":6285:6332   */\n      mstore\n        /* \"#utility.yul\":6349:6480   */\n      tag_252\n        /* \"#utility.yul\":6475:6479   */\n      dup2\n        /* \"#utility.yul\":6349:6480   */\n      tag_161\n      jump\t// in\n    tag_252:\n        /* \"#utility.yul\":6341:6480   */\n      swap1\n      pop\n        /* \"#utility.yul\":6068:6487   */\n      swap2\n      swap1\n      pop\n      jump\t// out\n        /* \"#utility.yul\":6493:6660   */\n    tag_162:\n        /* \"#utility.yul\":6633:6652   */\n      0x4e69636874206265726563687469677421000000000000000000000000000000\n        /* \"#utility.yul\":6629:6630   */\n      0x00\n        /* \"#utility.yul\":6621:6627   */\n      dup3\n        /* \"#utility.yul\":6617:6631   */\n      add\n        /* \"#utility.yul\":6610:6653   */\n      mstore\n        /* \"#utility.yul\":6493:6660   */\n      pop\n      jump\t// out\n        /* \"#utility.yul\":6666:7032   */\n    tag_163:\n        /* \"#utility.yul\":6808:6811   */\n      0x00\n        /* \"#utility.yul\":6829:6896   */\n      tag_255\n        /* \"#utility.yul\":6893:6895   */\n      0x11\n        /* \"#utility.yul\":6888:6891   */\n      dup4\n        /* \"#utility.yul\":6829:6896   */\n      tag_159\n      jump\t// in\n    tag_255:\n        /* \"#utility.yul\":6822:6896   */\n      swap2\n      pop\n        /* \"#utility.yul\":6905:6998   */\n      tag_256\n        /* \"#utility.yul\":6994:6997   */\n      dup3\n        /* \"#utility.yul\":6905:6998   */\n      tag_162\n      jump\t// in\n    tag_256:\n        /* \"#utility.yul\":7023:7025   */\n      0x20\n        /* \"#utility.yul\":7018:7021   */\n      dup3\n        /* \"#utility.yul\":7014:7026   */\n      add\n        /* \"#utility.yul\":7007:7026   */\n      swap1\n      pop\n        /* \"#utility.yul\":6666:7032   */\n      swap2\n      swap1\n      pop\n      jump\t// out\n        /* \"#utility.yul\":7038:7457   */\n    tag_84:\n        /* \"#utility.yul\":7204:7208   */\n      0x00\n        /* \"#utility.yul\":7242:7244   */\n      0x20\n        /* \"#utility.yul\":7231:7240   */\n      dup3\n        /* \"#utility.yul\":7227:7245   */\n      add\n        /* \"#utility.yul\":7219:7245   */\n      swap1\n      pop\n        /* \"#utility.yul\":7291:7300   */\n      dup2\n        /* \"#utility.yul\":7285:7289   */\n      dup2\n        /* \"#utility.yul\":7281:7301   */\n      sub\n        /* \"#utility.yul\":7277:7278   */\n      0x00\n        /* \"#utility.yul\":7266:7275   */\n      dup4\n        /* \"#utility.yul\":7262:7279   */\n      add\n        /* \"#utility.yul\":7255:7302   */\n      mstore\n        /* \"#utility.yul\":7319:7450   */\n      tag_258\n        /* \"#utility.yul\":7445:7449   */\n      dup2\n        /* \"#utility.yul\":7319:7450   */\n      tag_163\n      jump\t// in\n    tag_258:\n        /* \"#utility.yul\":7311:7450   */\n      swap1\n      pop\n        /* \"#utility.yul\":7038:7457   */\n      swap2\n      swap1\n      pop\n      jump\t// out\n        /* \"#utility.yul\":7463:7630   */\n    tag_164:\n        /* \"#utility.yul\":7603:7622   */\n      0x6b5768206d757373203e2030207365696e000000000000000000000000000000\n        /* \"#utility.yul\":7599:7600   */\n      0x00\n        /* \"#utility.yul\":7591:7597   */\n      dup3\n        /* \"#utility.yul\":7587:7601   */\n      add\n        /* \"#utility.yul\":7580:7623   */\n      mstore\n        /* \"#utility.yul\":7463:7630   */\n      pop\n      jump\t// out\n        /* \"#utility.yul\":7636:8002   */\n    tag_165:\n        /* \"#utility.yul\":7778:7781   */\n      0x00\n        /* \"#utility.yul\":7799:7866   */\n      tag_261\n        /* \"#utility.yul\":7863:7865   */\n      0x11\n        /* \"#utility.yul\":7858:7861   */\n      dup4\n        /* \"#utility.yul\":7799:7866   */\n      tag_159\n      jump\t// in\n    tag_261:\n        /* \"#utility.yul\":7792:7866   */\n      swap2\n      pop\n        /* \"#utility.yul\":7875:7968   */\n      tag_262\n        /* \"#utility.yul\":7964:7967   */\n      dup3\n        /* \"#utility.yul\":7875:7968   */\n      tag_164\n      jump\t// in\n    tag_262:\n        /* \"#utility.yul\":7993:7995   */\n      0x20\n        /* \"#utility.yul\":7988:7991   */\n      dup3\n        /* \"#utility.yul\":7984:7996   */\n      add\n        /* \"#utility.yul\":7977:7996   */\n      swap1\n      pop\n        /* \"#utility.yul\":7636:8002   */\n      swap2\n      swap1\n      pop\n      jump\t// out\n        /* \"#utility.yul\":8008:8427   */\n    tag_87:\n        /* \"#utility.yul\":8174:8178   */\n      0x00\n        /* \"#utility.yul\":8212:8214   */\n      0x20\n        /* \"#utility.yul\":8201:8210   */\n      dup3\n        /* \"#utility.yul\":8197:8215   */\n      add\n        /* \"#utility.yul\":8189:8215   */\n      swap1\n      pop\n        /* \"#utility.yul\":8261:8270   */\n      dup2\n        /* \"#utility.yul\":8255:8259   */\n      dup2\n        /* \"#utility.yul\":8251:8271   */\n      sub\n        /* \"#utility.yul\":8247:8248   */\n      0x00\n        /* \"#utility.yul\":8236:8245   */\n      dup4\n        /* \"#utility.yul\":8232:8249   */\n      add\n        /* \"#utility.yul\":8225:8272   */\n      mstore\n        /* \"#utility.yul\":8289:8420   */\n      tag_264\n        /* \"#utility.yul\":8415:8419   */\n      dup2\n        /* \"#utility.yul\":8289:8420   */\n      tag_165\n      jump\t// in\n    tag_264:\n        /* \"#utility.yul\":8281:8420   */\n      swap1\n      pop\n        /* \"#utility.yul\":8008:8427   */\n      swap2\n      swap1\n      pop\n      jump\t// out\n        /* \"#utility.yul\":8433:8843   */\n    tag_89:\n        /* \"#utility.yul\":8473:8480   */\n      0x00\n        /* \"#utility.yul\":8496:8516   */\n      tag_266\n        /* \"#utility.yul\":8514:8515   */\n      dup3\n        /* \"#utility.yul\":8496:8516   */\n      tag_142\n      jump\t// in\n    tag_266:\n        /* \"#utility.yul\":8491:8516   */\n      swap2\n      pop\n        /* \"#utility.yul\":8530:8550   */\n      tag_267\n        /* \"#utility.yul\":8548:8549   */\n      dup4\n        /* \"#utility.yul\":8530:8550   */\n      tag_142\n      jump\t// in\n    tag_267:\n        /* \"#utility.yul\":8525:8550   */\n      swap3\n      pop\n        /* \"#utility.yul\":8585:8586   */\n      dup3\n        /* \"#utility.yul\":8582:8583   */\n      dup3\n        /* \"#utility.yul\":8578:8587   */\n      mul\n        /* \"#utility.yul\":8607:8637   */\n      tag_268\n        /* \"#utility.yul\":8625:8636   */\n      dup2\n        /* \"#utility.yul\":8607:8637   */\n      tag_142\n      jump\t// in\n    tag_268:\n        /* \"#utility.yul\":8596:8637   */\n      swap2\n      pop\n        /* \"#utility.yul\":8786:8787   */\n      dup3\n        /* \"#utility.yul\":8777:8784   */\n      dup3\n        /* \"#utility.yul\":8773:8788   */\n      div\n        /* \"#utility.yul\":8770:8771   */\n      dup5\n        /* \"#utility.yul\":8767:8789   */\n      eq\n        /* \"#utility.yul\":8747:8748   */\n      dup4\n        /* \"#utility.yul\":8740:8749   */\n      iszero\n        /* \"#utility.yul\":8720:8803   */\n      or\n        /* \"#utility.yul\":8697:8836   */\n      tag_269\n      jumpi\n        /* \"#utility.yul\":8816:8834   */\n      tag_270\n      tag_143\n      jump\t// in\n    tag_270:\n        /* \"#utility.yul\":8697:8836   */\n    tag_269:\n        /* \"#utility.yul\":8481:8843   */\n      pop\n        /* \"#utility.yul\":8433:8843   */\n      swap3\n      swap2\n      pop\n      pop\n      jump\t// out\n        /* \"#utility.yul\":8849:9020   */\n    tag_166:\n        /* \"#utility.yul\":8989:9012   */\n      0x4e696368742067656e756720477574686162656e210000000000000000000000\n        /* \"#utility.yul\":8985:8986   */\n      0x00\n        /* \"#utility.yul\":8977:8983   */\n      dup3\n        /* \"#utility.yul\":8973:8987   */\n      add\n        /* \"#utility.yul\":8966:9013   */\n      mstore\n        /* \"#utility.yul\":8849:9020   */\n      pop\n      jump\t// out\n        /* \"#utility.yul\":9026:9392   */\n    tag_167:\n        /* \"#utility.yul\":9168:9171   */\n      0x00\n        /* \"#utility.yul\":9189:9256   */\n      tag_273\n        /* \"#utility.yul\":9253:9255   */\n      0x15\n        /* \"#utility.yul\":9248:9251   */\n      dup4\n        /* \"#utility.yul\":9189:9256   */\n      tag_159\n      jump\t// in\n    tag_273:\n        /* \"#utility.yul\":9182:9256   */\n      swap2\n      pop\n        /* \"#utility.yul\":9265:9358   */\n      tag_274\n        /* \"#utility.yul\":9354:9357   */\n      dup3\n        /* \"#utility.yul\":9265:9358   */\n      tag_166\n      jump\t// in\n    tag_274:\n        /* \"#utility.yul\":9383:9385   */\n      0x20\n        /* \"#utility.yul\":9378:9381   */\n      dup3\n        /* \"#utility.yul\":9374:9386   */\n      add\n        /* \"#utility.yul\":9367:9386   */\n      swap1\n      pop\n        /* \"#utility.yul\":9026:9392   */\n      swap2\n      swap1\n      pop\n      jump\t// out\n        /* \"#utility.yul\":9398:9817   */\n    tag_92:\n        /* \"#utility.yul\":9564:9568   */\n      0x00\n        /* \"#utility.yul\":9602:9604   */\n      0x20\n        /* \"#utility.yul\":9591:9600   */\n      dup3\n        /* \"#utility.yul\":9587:9605   */\n      add\n        /* \"#utility.yul\":9579:9605   */\n      swap1\n      pop\n        /* \"#utility.yul\":9651:9660   */\n      dup2\n        /* \"#utility.yul\":9645:9649   */\n      dup2\n        /* \"#utility.yul\":9641:9661   */\n      sub\n        /* \"#utility.yul\":9637:9638   */\n      0x00\n        /* \"#utility.yul\":9626:9635   */\n      dup4\n        /* \"#utility.yul\":9622:9639   */\n      add\n        /* \"#utility.yul\":9615:9662   */\n      mstore\n        /* \"#utility.yul\":9679:9810   */\n      tag_276\n        /* \"#utility.yul\":9805:9809   */\n      dup2\n        /* \"#utility.yul\":9679:9810   */\n      tag_167\n      jump\t// in\n    tag_276:\n        /* \"#utility.yul\":9671:9810   */\n      swap1\n      pop\n        /* \"#utility.yul\":9398:9817   */\n      swap2\n      swap1\n      pop\n      jump\t// out\n        /* \"#utility.yul\":9823:10017   */\n    tag_94:\n        /* \"#utility.yul\":9863:9867   */\n      0x00\n        /* \"#utility.yul\":9883:9903   */\n      tag_278\n        /* \"#utility.yul\":9901:9902   */\n      dup3\n        /* \"#utility.yul\":9883:9903   */\n      tag_142\n      jump\t// in\n    tag_278:\n        /* \"#utility.yul\":9878:9903   */\n      swap2\n      pop\n        /* \"#utility.yul\":9917:9937   */\n      tag_279\n        /* \"#utility.yul\":9935:9936   */\n      dup4\n        /* \"#utility.yul\":9917:9937   */\n      tag_142\n      jump\t// in\n    tag_279:\n        /* \"#utility.yul\":9912:9937   */\n      swap3\n      pop\n        /* \"#utility.yul\":9961:9962   */\n      dup3\n        /* \"#utility.yul\":9958:9959   */\n      dup3\n        /* \"#utility.yul\":9954:9963   */\n      sub\n        /* \"#utility.yul\":9946:9963   */\n      swap1\n      pop\n        /* \"#utility.yul\":9985:9986   */\n      dup2\n        /* \"#utility.yul\":9979:9983   */\n      dup2\n        /* \"#utility.yul\":9976:9987   */\n      gt\n        /* \"#utility.yul\":9973:10010   */\n      iszero\n      tag_280\n      jumpi\n        /* \"#utility.yul\":9990:10008   */\n      tag_281\n      tag_143\n      jump\t// in\n    tag_281:\n        /* \"#utility.yul\":9973:10010   */\n    tag_280:\n        /* \"#utility.yul\":9823:10017   */\n      swap3\n      swap2\n      pop\n      pop\n      jump\t// out\n        /* \"#utility.yul\":10023:10170   */\n    tag_168:\n        /* \"#utility.yul\":10124:10135   */\n      0x00\n        /* \"#utility.yul\":10161:10164   */\n      dup2\n        /* \"#utility.yul\":10146:10164   */\n      swap1\n      pop\n        /* \"#utility.yul\":10023:10170   */\n      swap3\n      swap2\n      pop\n      pop\n      jump\t// out\n        /* \"#utility.yul\":10176:10290   */\n    tag_169:\n      pop\n      jump\t// out\n        /* \"#utility.yul\":10296:10694   */\n    tag_170:\n        /* \"#utility.yul\":10455:10458   */\n      0x00\n        /* \"#utility.yul\":10476:10559   */\n      tag_285\n        /* \"#utility.yul\":10557:10558   */\n      0x00\n        /* \"#utility.yul\":10552:10555   */\n      dup4\n        /* \"#utility.yul\":10476:10559   */\n      tag_168\n      jump\t// in\n    tag_285:\n        /* \"#utility.yul\":10469:10559   */\n      swap2\n      pop\n        /* \"#utility.yul\":10568:10661   */\n      tag_286\n        /* \"#utility.yul\":10657:10660   */\n      dup3\n        /* \"#utility.yul\":10568:10661   */\n      tag_169\n      jump\t// in\n    tag_286:\n        /* \"#utility.yul\":10686:10687   */\n      0x00\n        /* \"#utility.yul\":10681:10684   */\n      dup3\n        /* \"#utility.yul\":10677:10688   */\n      add\n        /* \"#utility.yul\":10670:10688   */\n      swap1\n      pop\n        /* \"#utility.yul\":10296:10694   */\n      swap2\n      swap1\n      pop\n      jump\t// out\n        /* \"#utility.yul\":10700:11079   */\n    tag_96:\n        /* \"#utility.yul\":10884:10887   */\n      0x00\n        /* \"#utility.yul\":10906:11053   */\n      tag_288\n        /* \"#utility.yul\":11049:11052   */\n      dup3\n        /* \"#utility.yul\":10906:11053   */\n      tag_170\n      jump\t// in\n    tag_288:\n        /* \"#utility.yul\":10899:11053   */\n      swap2\n      pop\n        /* \"#utility.yul\":11070:11073   */\n      dup2\n        /* \"#utility.yul\":11063:11073   */\n      swap1\n      pop\n        /* \"#utility.yul\":10700:11079   */\n      swap2\n      swap1\n      pop\n      jump\t// out\n        /* \"#utility.yul\":11085:11313   */\n    tag_171:\n        /* \"#utility.yul\":11225:11259   */\n      0x556562657277656973756e6720616e20426574726569626572206665686c6765\n        /* \"#utility.yul\":11221:11222   */\n      0x00\n        /* \"#utility.yul\":11213:11219   */\n      dup3\n        /* \"#utility.yul\":11209:11223   */\n      add\n        /* \"#utility.yul\":11202:11260   */\n      mstore\n        /* \"#utility.yul\":11294:11305   */\n      0x7363686c6167656e210000000000000000000000000000000000000000000000\n        /* \"#utility.yul\":11289:11291   */\n      0x20\n        /* \"#utility.yul\":11281:11287   */\n      dup3\n        /* \"#utility.yul\":11277:11292   */\n      add\n        /* \"#utility.yul\":11270:11306   */\n      mstore\n        /* \"#utility.yul\":11085:11313   */\n      pop\n      jump\t// out\n        /* \"#utility.yul\":11319:11685   */\n    tag_172:\n        /* \"#utility.yul\":11461:11464   */\n      0x00\n        /* \"#utility.yul\":11482:11549   */\n      tag_291\n        /* \"#utility.yul\":11546:11548   */\n      0x29\n        /* \"#utility.yul\":11541:11544   */\n      dup4\n        /* \"#utility.yul\":11482:11549   */\n      tag_159\n      jump\t// in\n    tag_291:\n        /* \"#utility.yul\":11475:11549   */\n      swap2\n      pop\n        /* \"#utility.yul\":11558:11651   */\n      tag_292\n        /* \"#utility.yul\":11647:11650   */\n      dup3\n        /* \"#utility.yul\":11558:11651   */\n      tag_171\n      jump\t// in\n    tag_292:\n        /* \"#utility.yul\":11676:11678   */\n      0x40\n        /* \"#utility.yul\":11671:11674   */\n      dup3\n        /* \"#utility.yul\":11667:11679   */\n      add\n        /* \"#utility.yul\":11660:11679   */\n      swap1\n      pop\n        /* \"#utility.yul\":11319:11685   */\n      swap2\n      swap1\n      pop\n      jump\t// out\n        /* \"#utility.yul\":11691:12110   */\n    tag_102:\n        /* \"#utility.yul\":11857:11861   */\n      0x00\n        /* \"#utility.yul\":11895:11897   */\n      0x20\n        /* \"#utility.yul\":11884:11893   */\n      dup3\n        /* \"#utility.yul\":11880:11898   */\n      add\n        /* \"#utility.yul\":11872:11898   */\n      swap1\n      pop\n        /* \"#utility.yul\":11944:11953   */\n      dup2\n        /* \"#utility.yul\":11938:11942   */\n      dup2\n        /* \"#utility.yul\":11934:11954   */\n      sub\n        /* \"#utility.yul\":11930:11931   */\n      0x00\n        /* \"#utility.yul\":11919:11928   */\n      dup4\n        /* \"#utility.yul\":11915:11932   */\n      add\n        /* \"#utility.yul\":11908:11955   */\n      mstore\n        /* \"#utility.yul\":11972:12103   */\n      tag_294\n        /* \"#utility.yul\":12098:12102   */\n      dup2\n        /* \"#utility.yul\":11972:12103   */\n      tag_172\n      jump\t// in\n    tag_294:\n        /* \"#utility.yul\":11964:12103   */\n      swap1\n      pop\n        /* \"#utility.yul\":11691:12110   */\n      swap2\n      swap1\n      pop\n      jump\t// out\n        /* \"#utility.yul\":12116:12558   */\n    tag_104:\n        /* \"#utility.yul\":12265:12269   */\n      0x00\n        /* \"#utility.yul\":12303:12305   */\n      0x60\n        /* \"#utility.yul\":12292:12301   */\n      dup3\n        /* \"#utility.yul\":12288:12306   */\n      add\n        /* \"#utility.yul\":12280:12306   */\n      swap1\n      pop\n        /* \"#utility.yul\":12316:12387   */\n      tag_296\n        /* \"#utility.yul\":12384:12385   */\n      0x00\n        /* \"#utility.yul\":12373:12382   */\n      dup4\n        /* \"#utility.yul\":12369:12386   */\n      add\n        /* \"#utility.yul\":12360:12366   */\n      dup7\n        /* \"#utility.yul\":12316:12387   */\n      tag_146\n      jump\t// in\n    tag_296:\n        /* \"#utility.yul\":12397:12469   */\n      tag_297\n        /* \"#utility.yul\":12465:12467   */\n      0x20\n        /* \"#utility.yul\":12454:12463   */\n      dup4\n        /* \"#utility.yul\":12450:12468   */\n      add\n        /* \"#utility.yul\":12441:12447   */\n      dup6\n        /* \"#utility.yul\":12397:12469   */\n      tag_147\n      jump\t// in\n    tag_297:\n        /* \"#utility.yul\":12479:12551   */\n      tag_298\n        /* \"#utility.yul\":12547:12549   */\n      0x40\n        /* \"#utility.yul\":12536:12545   */\n      dup4\n        /* \"#utility.yul\":12532:12550   */\n      add\n        /* \"#utility.yul\":12523:12529   */\n      dup5\n        /* \"#utility.yul\":12479:12551   */\n      tag_147\n      jump\t// in\n    tag_298:\n        /* \"#utility.yul\":12116:12558   */\n      swap5\n      swap4\n      pop\n      pop\n      pop\n      pop\n      jump\t// out\n        /* \"#utility.yul\":12564:12738   */\n    tag_173:\n        /* \"#utility.yul\":12704:12730   */\n      0x4b65696e20477574686162656e20766f7268616e64656e210000000000000000\n        /* \"#utility.yul\":12700:12701   */\n      0x00\n        /* \"#utility.yul\":12692:12698   */\n      dup3\n        /* \"#utility.yul\":12688:12702   */\n      add\n        /* \"#utility.yul\":12681:12731   */\n      mstore\n        /* \"#utility.yul\":12564:12738   */\n      pop\n      jump\t// out\n        /* \"#utility.yul\":12744:13110   */\n    tag_174:\n        /* \"#utility.yul\":12886:12889   */\n      0x00\n        /* \"#utility.yul\":12907:12974   */\n      tag_301\n        /* \"#utility.yul\":12971:12973   */\n      0x18\n        /* \"#utility.yul\":12966:12969   */\n      dup4\n        /* \"#utility.yul\":12907:12974   */\n      tag_159\n      jump\t// in\n    tag_301:\n        /* \"#utility.yul\":12900:12974   */\n      swap2\n      pop\n        /* \"#utility.yul\":12983:13076   */\n      tag_302\n        /* \"#utility.yul\":13072:13075   */\n      dup3\n        /* \"#utility.yul\":12983:13076   */\n      tag_173\n      jump\t// in\n    tag_302:\n        /* \"#utility.yul\":13101:13103   */\n      0x20\n        /* \"#utility.yul\":13096:13099   */\n      dup3\n        /* \"#utility.yul\":13092:13104   */\n      add\n        /* \"#utility.yul\":13085:13104   */\n      swap1\n      pop\n        /* \"#utility.yul\":12744:13110   */\n      swap2\n      swap1\n      pop\n      jump\t// out\n        /* \"#utility.yul\":13116:13535   */\n    tag_109:\n        /* \"#utility.yul\":13282:13286   */\n      0x00\n        /* \"#utility.yul\":13320:13322   */\n      0x20\n        /* \"#utility.yul\":13309:13318   */\n      dup3\n        /* \"#utility.yul\":13305:13323   */\n      add\n        /* \"#utility.yul\":13297:13323   */\n      swap1\n      pop\n        /* \"#utility.yul\":13369:13378   */\n      dup2\n        /* \"#utility.yul\":13363:13367   */\n      dup2\n        /* \"#utility.yul\":13359:13379   */\n      sub\n        /* \"#utility.yul\":13355:13356   */\n      0x00\n        /* \"#utility.yul\":13344:13353   */\n      dup4\n        /* \"#utility.yul\":13340:13357   */\n      add\n        /* \"#utility.yul\":13333:13380   */\n      mstore\n        /* \"#utility.yul\":13397:13528   */\n      tag_304\n        /* \"#utility.yul\":13523:13527   */\n      dup2\n        /* \"#utility.yul\":13397:13528   */\n      tag_174\n      jump\t// in\n    tag_304:\n        /* \"#utility.yul\":13389:13528   */\n      swap1\n      pop\n        /* \"#utility.yul\":13116:13535   */\n      swap2\n      swap1\n      pop\n      jump\t// out\n        /* \"#utility.yul\":13541:13717   */\n    tag_175:\n        /* \"#utility.yul\":13681:13709   */\n      0x4175737a61686c756e67206665686c67657363686c6167656e21000000000000\n        /* \"#utility.yul\":13677:13678   */\n      0x00\n        /* \"#utility.yul\":13669:13675   */\n      dup3\n        /* \"#utility.yul\":13665:13679   */\n      add\n        /* \"#utility.yul\":13658:13710   */\n      mstore\n        /* \"#utility.yul\":13541:13717   */\n      pop\n      jump\t// out\n        /* \"#utility.yul\":13723:14089   */\n    tag_176:\n        /* \"#utility.yul\":13865:13868   */\n      0x00\n        /* \"#utility.yul\":13886:13953   */\n      tag_307\n        /* \"#utility.yul\":13950:13952   */\n      0x1a\n        /* \"#utility.yul\":13945:13948   */\n      dup4\n        /* \"#utility.yul\":13886:13953   */\n      tag_159\n      jump\t// in\n    tag_307:\n        /* \"#utility.yul\":13879:13953   */\n      swap2\n      pop\n        /* \"#utility.yul\":13962:14055   */\n      tag_308\n        /* \"#utility.yul\":14051:14054   */\n      dup3\n        /* \"#utility.yul\":13962:14055   */\n      tag_175\n      jump\t// in\n    tag_308:\n        /* \"#utility.yul\":14080:14082   */\n      0x20\n        /* \"#utility.yul\":14075:14078   */\n      dup3\n        /* \"#utility.yul\":14071:14083   */\n      add\n        /* \"#utility.yul\":14064:14083   */\n      swap1\n      pop\n        /* \"#utility.yul\":13723:14089   */\n      swap2\n      swap1\n      pop\n      jump\t// out\n        /* \"#utility.yul\":14095:14514   */\n    tag_116:\n        /* \"#utility.yul\":14261:14265   */\n      0x00\n        /* \"#utility.yul\":14299:14301   */\n      0x20\n        /* \"#utility.yul\":14288:14297   */\n      dup3\n        /* \"#utility.yul\":14284:14302   */\n      add\n        /* \"#utility.yul\":14276:14302   */\n      swap1\n      pop\n        /* \"#utility.yul\":14348:14357   */\n      dup2\n        /* \"#utility.yul\":14342:14346   */\n      dup2\n        /* \"#utility.yul\":14338:14358   */\n      sub\n        /* \"#utility.yul\":14334:14335   */\n      0x00\n        /* \"#utility.yul\":14323:14332   */\n      dup4\n        /* \"#utility.yul\":14319:14336   */\n      add\n        /* \"#utility.yul\":14312:14359   */\n      mstore\n        /* \"#utility.yul\":14376:14507   */\n      tag_310\n        /* \"#utility.yul\":14502:14506   */\n      dup2\n        /* \"#utility.yul\":14376:14507   */\n      tag_176\n      jump\t// in\n    tag_310:\n        /* \"#utility.yul\":14368:14507   */\n      swap1\n      pop\n        /* \"#utility.yul\":14095:14514   */\n      swap2\n      swap1\n      pop\n      jump\t// out\n        /* \"#utility.yul\":14520:14687   */\n    tag_177:\n        /* \"#utility.yul\":14660:14679   */\n      0x4269747465204554482073656e64656e21000000000000000000000000000000\n        /* \"#utility.yul\":14656:14657   */\n      0x00\n        /* \"#utility.yul\":14648:14654   */\n      dup3\n        /* \"#utility.yul\":14644:14658   */\n      add\n        /* \"#utility.yul\":14637:14680   */\n      mstore\n        /* \"#utility.yul\":14520:14687   */\n      pop\n      jump\t// out\n        /* \"#utility.yul\":14693:15059   */\n    tag_178:\n        /* \"#utility.yul\":14835:14838   */\n      0x00\n        /* \"#utility.yul\":14856:14923   */\n      tag_313\n        /* \"#utility.yul\":14920:14922   */\n      0x11\n        /* \"#utility.yul\":14915:14918   */\n      dup4\n        /* \"#utility.yul\":14856:14923   */\n      tag_159\n      jump\t// in\n    tag_313:\n        /* \"#utility.yul\":14849:14923   */\n      swap2\n      pop\n        /* \"#utility.yul\":14932:15025   */\n      tag_314\n        /* \"#utility.yul\":15021:15024   */\n      dup3\n        /* \"#utility.yul\":14932:15025   */\n      tag_177\n      jump\t// in\n    tag_314:\n        /* \"#utility.yul\":15050:15052   */\n      0x20\n        /* \"#utility.yul\":15045:15048   */\n      dup3\n        /* \"#utility.yul\":15041:15053   */\n      add\n        /* \"#utility.yul\":15034:15053   */\n      swap1\n      pop\n        /* \"#utility.yul\":14693:15059   */\n      swap2\n      swap1\n      pop\n      jump\t// out\n        /* \"#utility.yul\":15065:15484   */\n    tag_122:\n        /* \"#utility.yul\":15231:15235   */\n      0x00\n        /* \"#utility.yul\":15269:15271   */\n      0x20\n        /* \"#utility.yul\":15258:15267   */\n      dup3\n        /* \"#utility.yul\":15254:15272   */\n      add\n        /* \"#utility.yul\":15246:15272   */\n      swap1\n      pop\n        /* \"#utility.yul\":15318:15327   */\n      dup2\n        /* \"#utility.yul\":15312:15316   */\n      dup2\n        /* \"#utility.yul\":15308:15328   */\n      sub\n        /* \"#utility.yul\":15304:15305   */\n      0x00\n        /* \"#utility.yul\":15293:15302   */\n      dup4\n        /* \"#utility.yul\":15289:15306   */\n      add\n        /* \"#utility.yul\":15282:15329   */\n      mstore\n        /* \"#utility.yul\":15346:15477   */\n      tag_316\n        /* \"#utility.yul\":15472:15476   */\n      dup2\n        /* \"#utility.yul\":15346:15477   */\n      tag_178\n      jump\t// in\n    tag_316:\n        /* \"#utility.yul\":15338:15477   */\n      swap1\n      pop\n        /* \"#utility.yul\":15065:15484   */\n      swap2\n      swap1\n      pop\n      jump\t// out\n        /* \"#utility.yul\":15490:15670   */\n    tag_179:\n        /* \"#utility.yul\":15538:15615   */\n      0x4e487b7100000000000000000000000000000000000000000000000000000000\n        /* \"#utility.yul\":15535:15536   */\n      0x00\n        /* \"#utility.yul\":15528:15616   */\n      mstore\n        /* \"#utility.yul\":15635:15639   */\n      0x12\n        /* \"#utility.yul\":15632:15633   */\n      0x04\n        /* \"#utility.yul\":15625:15640   */\n      mstore\n        /* \"#utility.yul\":15659:15663   */\n      0x24\n        /* \"#utility.yul\":15656:15657   */\n      0x00\n        /* \"#utility.yul\":15649:15664   */\n      revert\n        /* \"#utility.yul\":15676:15861   */\n    tag_138:\n        /* \"#utility.yul\":15716:15717   */\n      0x00\n        /* \"#utility.yul\":15733:15753   */\n      tag_319\n        /* \"#utility.yul\":15751:15752   */\n      dup3\n        /* \"#utility.yul\":15733:15753   */\n      tag_142\n      jump\t// in\n    tag_319:\n        /* \"#utility.yul\":15728:15753   */\n      swap2\n      pop\n        /* \"#utility.yul\":15767:15787   */\n      tag_320\n        /* \"#utility.yul\":15785:15786   */\n      dup4\n        /* \"#utility.yul\":15767:15787   */\n      tag_142\n      jump\t// in\n    tag_320:\n        /* \"#utility.yul\":15762:15787   */\n      swap3\n      pop\n        /* \"#utility.yul\":15806:15807   */\n      dup3\n        /* \"#utility.yul\":15796:15831   */\n      tag_321\n      jumpi\n        /* \"#utility.yul\":15811:15829   */\n      tag_322\n      tag_179\n      jump\t// in\n    tag_322:\n        /* \"#utility.yul\":15796:15831   */\n    tag_321:\n        /* \"#utility.yul\":15853:15854   */\n      dup3\n        /* \"#utility.yul\":15850:15851   */\n      dup3\n        /* \"#utility.yul\":15846:15855   */\n      div\n        /* \"#utility.yul\":15841:15855   */\n      swap1\n      pop\n        /* \"#utility.yul\":15676:15861   */\n      swap3\n      swap2\n      pop\n      pop\n      jump\t// out\n        /* \"#utility.yul\":15867:16043   */\n    tag_140:\n        /* \"#utility.yul\":15899:15900   */\n      0x00\n        /* \"#utility.yul\":15916:15936   */\n      tag_324\n        /* \"#utility.yul\":15934:15935   */\n      dup3\n        /* \"#utility.yul\":15916:15936   */\n      tag_142\n      jump\t// in\n    tag_324:\n        /* \"#utility.yul\":15911:15936   */\n      swap2\n      pop\n        /* \"#utility.yul\":15950:15970   */\n      tag_325\n        /* \"#utility.yul\":15968:15969   */\n      dup4\n        /* \"#utility.yul\":15950:15970   */\n      tag_142\n      jump\t// in\n    tag_325:\n        /* \"#utility.yul\":15945:15970   */\n      swap3\n      pop\n        /* \"#utility.yul\":15989:15990   */\n      dup3\n        /* \"#utility.yul\":15979:16014   */\n      tag_326\n      jumpi\n        /* \"#utility.yul\":15994:16012   */\n      tag_327\n      tag_179\n      jump\t// in\n    tag_327:\n        /* \"#utility.yul\":15979:16014   */\n    tag_326:\n        /* \"#utility.yul\":16035:16036   */\n      dup3\n        /* \"#utility.yul\":16032:16033   */\n      dup3\n        /* \"#utility.yul\":16028:16037   */\n      mod\n        /* \"#utility.yul\":16023:16037   */\n      swap1\n      pop\n        /* \"#utility.yul\":15867:16043   */\n      swap3\n      swap2\n      pop\n      pop\n      jump\t// out\n\n    auxdata: 0xa26469706673582212207aa348c041cf4553da4c9a3619520880c2e38789aa18c74360f0ee5f4dba6bef64736f6c634300081e0033\n}\n",
				"bytecode": {
					"linkReferences": {},
					"object": "6080604052662386f26fc100006001553480156019575f5ffd5b50335f5f6101000a81548173ffffffffffffffffffffffffffffffffffffffff021916908373ffffffffffffffffffffffffffffffffffffffff1602179055506114b7806100665f395ff3fe6080604052600436106100aa575f3560e01c8063856e44e311610063578063856e44e3146102175780639b620d7914610241578063bb864be314610269578063c3de6c741461027f578063cd871ae0146102be578063e529953a146102e85761013d565b806304fa7e3c146101415780631d7f2625146101695780632f12f9961461019157806343b4aca5146101cd5780635b590675146101e357806381fb38031461020d5761013d565b3661013d573460035f3373ffffffffffffffffffffffffffffffffffffffff1673ffffffffffffffffffffffffffffffffffffffff1681526020019081526020015f205f8282546100fb9190610d07565b925050819055507f537a4888663bf338e0f1e0a482244d95c4a9924065740c78b417480b31c318e43334604051610133929190610d88565b60405180910390a1005b5f5ffd5b34801561014c575f5ffd5b5061016760048036038101906101629190610e12565b610325565b005b348015610174575f5ffd5b5061018f600480360381019061018a9190610e7a565b61040b565b005b34801561019c575f5ffd5b506101b760048036038101906101b29190610ea5565b610785565b6040516101c49190610edf565b60405180910390f35b3480156101d8575f5ffd5b506101e16107a2565b005b3480156101ee575f5ffd5b506101f761094c565b6040516102049190610ef8565b60405180910390f35b610215610958565b005b348015610222575f5ffd5b5061022b610a28565b6040516102389190610f11565b60405180910390f35b34801561024c575f5ffd5b5061026760048036038101906102629190610e7a565b610a4c565b005b348015610274575f5ffd5b5061027d610af7565b005b34801561028a575f5ffd5b506102a560048036038101906102a09190610e7a565b610beb565b6040516102b59493929190610f2a565b60405180910390f35b3480156102c9575f5ffd5b506102d2610c45565b6040516102df9190610ef8565b60405180910390f35b3480156102f3575f5ffd5b5061030e60048036038101906103099190610ea5565b610c4b565b60405161031c929190610f6d565b60405180910390f35b5f5f9054906101000a900473ffffffffffffffffffffffffffffffffffffffff1673ffffffffffffffffffffffffffffffffffffffff163373ffffffffffffffffffffffffffffffffffffffff16146103b3576040517f08c379a00000000000000000000000000000000000000000000000000000000081526004016103aa90610fee565b60405180910390fd5b8060025f8473ffffffffffffffffffffffffffffffffffffffff1673ffffffffffffffffffffffffffffffffffffffff1681526020019081526020015f205f6101000a81548160ff0219169083151502179055505050565b60025f3373ffffffffffffffffffffffffffffffffffffffff1673ffffffffffffffffffffffffffffffffffffffff1681526020019081526020015f205f9054906101000a900460ff16610494576040517f08c379a000000000000000000000000000000000000000000000000000000000815260040161048b90611056565b60405180910390fd5b5f81116104d6576040517f08c379a00000000000000000000000000000000000000000000000000000000081526004016104cd906110be565b60405180910390fd5b5f816001546104e591906110dc565b90508060035f3373ffffffffffffffffffffffffffffffffffffffff1673ffffffffffffffffffffffffffffffffffffffff1681526020019081526020015f20541015610567576040517f08c379a000000000000000000000000000000000000000000000000000000000815260040161055e90611167565b60405180910390fd5b8060035f3373ffffffffffffffffffffffffffffffffffffffff1673ffffffffffffffffffffffffffffffffffffffff1681526020019081526020015f205f8282546105b39190611185565b925050819055505f5f5f9054906101000a900473ffffffffffffffffffffffffffffffffffffffff1673ffffffffffffffffffffffffffffffffffffffff16826040516105ff906111e5565b5f6040518083038185875af1925050503d805f8114610639576040519150601f19603f3d011682016040523d82523d5f602084013e61063e565b606091505b5050905080610682576040517f08c379a000000000000000000000000000000000000000000000000000000000815260040161067990611269565b60405180910390fd5b7f5a085bd44a53f6f30890ee12ccfcd2f694b04dd47fc99be5617fc6543720a0103384846040516106b593929190611287565b60405180910390a1600460405180608001604052803373ffffffffffffffffffffffffffffffffffffffff16815260200185815260200184815260200142815250908060018154018082558091505060019003905f5260205f2090600402015f909190919091505f820151815f015f6101000a81548173ffffffffffffffffffffffffffffffffffffffff021916908373ffffffffffffffffffffffffffffffffffffffff1602179055506020820151816001015560408201518160020155606082015181600301555050505050565b6002602052805f5260405f205f915054906101000a900460ff1681565b5f60035f3373ffffffffffffffffffffffffffffffffffffffff1673ffffffffffffffffffffffffffffffffffffffff1681526020019081526020015f205490505f8111610825576040517f08c379a000000000000000000000000000000000000000000000000000000000815260040161081c90611306565b60405180910390fd5b5f60035f3373ffffffffffffffffffffffffffffffffffffffff1673ffffffffffffffffffffffffffffffffffffffff1681526020019081526020015f20819055505f3373ffffffffffffffffffffffffffffffffffffffff168260405161088c906111e5565b5f6040518083038185875af1925050503d805f81146108c6576040519150601f19603f3d011682016040523d82523d5f602084013e6108cb565b606091505b505090508061090f576040517f08c379a00000000000000000000000000000000000000000000000000000000081526004016109069061136e565b60405180910390fd5b7f304ded04755264f107034cb25c290971bc22f9daba5725de3966bfa5d2a6e7683383604051610940929190610d88565b60405180910390a15050565b5f600480549050905090565b5f341161099a576040517f08c379a0000000000000000000000000000000000000000000000000000000008152600401610991906113d6565b60405180910390fd5b3460035f3373ffffffffffffffffffffffffffffffffffffffff1673ffffffffffffffffffffffffffffffffffffffff1681526020019081526020015f205f8282546109e69190610d07565b925050819055507f537a4888663bf338e0f1e0a482244d95c4a9924065740c78b417480b31c318e43334604051610a1e929190610d88565b60405180910390a1565b5f5f9054906101000a900473ffffffffffffffffffffffffffffffffffffffff1681565b5f5f9054906101000a900473ffffffffffffffffffffffffffffffffffffffff1673ffffffffffffffffffffffffffffffffffffffff163373ffffffffffffffffffffffffffffffffffffffff1614610ada576040517f08c379a0000000000000000000000000000000000000000000000000000000008152600401610ad190610fee565b60405180910390fd5b670de0b6b3a764000081610aee91906110dc565b60018190555050565b5f5f9054906101000a900473ffffffffffffffffffffffffffffffffffffffff1673ffffffffffffffffffffffffffffffffffffffff163373ffffffffffffffffffffffffffffffffffffffff1614610b85576040517f08c379a0000000000000000000000000000000000000000000000000000000008152600401610b7c90610fee565b60405180910390fd5b5f5f9054906101000a900473ffffffffffffffffffffffffffffffffffffffff1673ffffffffffffffffffffffffffffffffffffffff166108fc4790811502906040515f60405180830381858888f19350505050158015610be8573d5f5f3e3d5ffd5b50565b60048181548110610bfa575f80fd5b905f5260205f2090600402015f91509050805f015f9054906101000a900473ffffffffffffffffffffffffffffffffffffffff16908060010154908060020154908060030154905084565b60015481565b5f5f5f60035f8573ffffffffffffffffffffffffffffffffffffffff1673ffffffffffffffffffffffffffffffffffffffff1681526020019081526020015f20549050670de0b6b3a764000081610ca29190611421565b9250655af3107a4000670de0b6b3a764000082610cbf9190611451565b610cc99190611421565b915050915091565b5f819050919050565b7f4e487b71000000000000000000000000000000000000000000000000000000005f52601160045260245ffd5b5f610d1182610cd1565b9150610d1c83610cd1565b9250828201905080821115610d3457610d33610cda565b5b92915050565b5f73ffffffffffffffffffffffffffffffffffffffff82169050919050565b5f610d6382610d3a565b9050919050565b610d7381610d59565b82525050565b610d8281610cd1565b82525050565b5f604082019050610d9b5f830185610d6a565b610da86020830184610d79565b9392505050565b5f5ffd5b610dbc81610d59565b8114610dc6575f5ffd5b50565b5f81359050610dd781610db3565b92915050565b5f8115159050919050565b610df181610ddd565b8114610dfb575f5ffd5b50565b5f81359050610e0c81610de8565b92915050565b5f5f60408385031215610e2857610e27610daf565b5b5f610e3585828601610dc9565b9250506020610e4685828601610dfe565b9150509250929050565b610e5981610cd1565b8114610e63575f5ffd5b50565b5f81359050610e7481610e50565b92915050565b5f60208284031215610e8f57610e8e610daf565b5b5f610e9c84828501610e66565b91505092915050565b5f60208284031215610eba57610eb9610daf565b5b5f610ec784828501610dc9565b91505092915050565b610ed981610ddd565b82525050565b5f602082019050610ef25f830184610ed0565b92915050565b5f602082019050610f0b5f830184610d79565b92915050565b5f602082019050610f245f830184610d6a565b92915050565b5f608082019050610f3d5f830187610d6a565b610f4a6020830186610d79565b610f576040830185610d79565b610f646060830184610d79565b95945050505050565b5f604082019050610f805f830185610d79565b610f8d6020830184610d79565b9392505050565b5f82825260208201905092915050565b7f4e757220426574726569626572210000000000000000000000000000000000005f82015250565b5f610fd8600e83610f94565b9150610fe382610fa4565b602082019050919050565b5f6020820190508181035f83015261100581610fcc565b9050919050565b7f4e696368742062657265636874696774210000000000000000000000000000005f82015250565b5f611040601183610f94565b915061104b8261100c565b602082019050919050565b5f6020820190508181035f83015261106d81611034565b9050919050565b7f6b5768206d757373203e2030207365696e0000000000000000000000000000005f82015250565b5f6110a8601183610f94565b91506110b382611074565b602082019050919050565b5f6020820190508181035f8301526110d58161109c565b9050919050565b5f6110e682610cd1565b91506110f183610cd1565b92508282026110ff81610cd1565b9150828204841483151761111657611115610cda565b5b5092915050565b7f4e696368742067656e756720477574686162656e2100000000000000000000005f82015250565b5f611151601583610f94565b915061115c8261111d565b602082019050919050565b5f6020820190508181035f83015261117e81611145565b9050919050565b5f61118f82610cd1565b915061119a83610cd1565b92508282039050818111156111b2576111b1610cda565b5b92915050565b5f81905092915050565b50565b5f6111d05f836111b8565b91506111db826111c2565b5f82019050919050565b5f6111ef826111c5565b9150819050919050565b7f556562657277656973756e6720616e20426574726569626572206665686c67655f8201527f7363686c6167656e210000000000000000000000000000000000000000000000602082015250565b5f611253602983610f94565b915061125e826111f9565b604082019050919050565b5f6020820190508181035f83015261128081611247565b9050919050565b5f60608201905061129a5f830186610d6a565b6112a76020830185610d79565b6112b46040830184610d79565b949350505050565b7f4b65696e20477574686162656e20766f7268616e64656e2100000000000000005f82015250565b5f6112f0601883610f94565b91506112fb826112bc565b602082019050919050565b5f6020820190508181035f83015261131d816112e4565b9050919050565b7f4175737a61686c756e67206665686c67657363686c6167656e210000000000005f82015250565b5f611358601a83610f94565b915061136382611324565b602082019050919050565b5f6020820190508181035f8301526113858161134c565b9050919050565b7f4269747465204554482073656e64656e210000000000000000000000000000005f82015250565b5f6113c0601183610f94565b91506113cb8261138c565b602082019050919050565b5f6020820190508181035f8301526113ed816113b4565b9050919050565b7f4e487b71000000000000000000000000000000000000000000000000000000005f52601260045260245ffd5b5f61142b82610cd1565b915061143683610cd1565b925082611446576114456113f4565b5b828204905092915050565b5f61145b82610cd1565b915061146683610cd1565b925082611476576114756113f4565b5b82820690509291505056fea26469706673582212207aa348c041cf4553da4c9a3619520880c2e38789aa18c74360f0ee5f4dba6bef64736f6c634300081e0033",
					"opcodes": "PUSH1 0x80 PUSH1 0x40 MSTORE PUSH7 0x2386F26FC10000 PUSH1 0x1 SSTORE CALLVALUE DUP1 ISZERO PUSH1 0x19 JUMPI PUSH0 PUSH0 REVERT JUMPDEST POP CALLER PUSH0 PUSH0 PUSH2 0x100 EXP DUP2 SLOAD DUP2 PUSH20 0xFFFFFFFFFFFFFFFFFFFFFFFFFFFFFFFFFFFFFFFF MUL NOT AND SWAP1 DUP4 PUSH20 0xFFFFFFFFFFFFFFFFFFFFFFFFFFFFFFFFFFFFFFFF AND MUL OR SWAP1 SSTORE POP PUSH2 0x14B7 DUP1 PUSH2 0x66 PUSH0 CODECOPY PUSH0 RETURN INVALID PUSH1 0x80 PUSH1 0x40 MSTORE PUSH1 0x4 CALLDATASIZE LT PUSH2 0xAA JUMPI PUSH0 CALLDATALOAD PUSH1 0xE0 SHR DUP1 PUSH4 0x856E44E3 GT PUSH2 0x63 JUMPI DUP1 PUSH4 0x856E44E3 EQ PUSH2 0x217 JUMPI DUP1 PUSH4 0x9B620D79 EQ PUSH2 0x241 JUMPI DUP1 PUSH4 0xBB864BE3 EQ PUSH2 0x269 JUMPI DUP1 PUSH4 0xC3DE6C74 EQ PUSH2 0x27F JUMPI DUP1 PUSH4 0xCD871AE0 EQ PUSH2 0x2BE JUMPI DUP1 PUSH4 0xE529953A EQ PUSH2 0x2E8 JUMPI PUSH2 0x13D JUMP JUMPDEST DUP1 PUSH4 0x4FA7E3C EQ PUSH2 0x141 JUMPI DUP1 PUSH4 0x1D7F2625 EQ PUSH2 0x169 JUMPI DUP1 PUSH4 0x2F12F996 EQ PUSH2 0x191 JUMPI DUP1 PUSH4 0x43B4ACA5 EQ PUSH2 0x1CD JUMPI DUP1 PUSH4 0x5B590675 EQ PUSH2 0x1E3 JUMPI DUP1 PUSH4 0x81FB3803 EQ PUSH2 0x20D JUMPI PUSH2 0x13D JUMP JUMPDEST CALLDATASIZE PUSH2 0x13D JUMPI CALLVALUE PUSH1 0x3 PUSH0 CALLER PUSH20 0xFFFFFFFFFFFFFFFFFFFFFFFFFFFFFFFFFFFFFFFF AND PUSH20 0xFFFFFFFFFFFFFFFFFFFFFFFFFFFFFFFFFFFFFFFF AND DUP2 MSTORE PUSH1 0x20 ADD SWAP1 DUP2 MSTORE PUSH1 0x20 ADD PUSH0 KECCAK256 PUSH0 DUP3 DUP3 SLOAD PUSH2 0xFB SWAP2 SWAP1 PUSH2 0xD07 JUMP JUMPDEST SWAP3 POP POP DUP2 SWAP1 SSTORE POP PUSH32 0x537A4888663BF338E0F1E0A482244D95C4A9924065740C78B417480B31C318E4 CALLER CALLVALUE PUSH1 0x40 MLOAD PUSH2 0x133 SWAP3 SWAP2 SWAP1 PUSH2 0xD88 JUMP JUMPDEST PUSH1 0x40 MLOAD DUP1 SWAP2 SUB SWAP1 LOG1 STOP JUMPDEST PUSH0 PUSH0 REVERT JUMPDEST CALLVALUE DUP1 ISZERO PUSH2 0x14C JUMPI PUSH0 PUSH0 REVERT JUMPDEST POP PUSH2 0x167 PUSH1 0x4 DUP1 CALLDATASIZE SUB DUP2 ADD SWAP1 PUSH2 0x162 SWAP2 SWAP1 PUSH2 0xE12 JUMP JUMPDEST PUSH2 0x325 JUMP JUMPDEST STOP JUMPDEST CALLVALUE DUP1 ISZERO PUSH2 0x174 JUMPI PUSH0 PUSH0 REVERT JUMPDEST POP PUSH2 0x18F PUSH1 0x4 DUP1 CALLDATASIZE SUB DUP2 ADD SWAP1 PUSH2 0x18A SWAP2 SWAP1 PUSH2 0xE7A JUMP JUMPDEST PUSH2 0x40B JUMP JUMPDEST STOP JUMPDEST CALLVALUE DUP1 ISZERO PUSH2 0x19C JUMPI PUSH0 PUSH0 REVERT JUMPDEST POP PUSH2 0x1B7 PUSH1 0x4 DUP1 CALLDATASIZE SUB DUP2 ADD SWAP1 PUSH2 0x1B2 SWAP2 SWAP1 PUSH2 0xEA5 JUMP JUMPDEST PUSH2 0x785 JUMP JUMPDEST PUSH1 0x40 MLOAD PUSH2 0x1C4 SWAP2 SWAP1 PUSH2 0xEDF JUMP JUMPDEST PUSH1 0x40 MLOAD DUP1 SWAP2 SUB SWAP1 RETURN JUMPDEST CALLVALUE DUP1 ISZERO PUSH2 0x1D8 JUMPI PUSH0 PUSH0 REVERT JUMPDEST POP PUSH2 0x1E1 PUSH2 0x7A2 JUMP JUMPDEST STOP JUMPDEST CALLVALUE DUP1 ISZERO PUSH2 0x1EE JUMPI PUSH0 PUSH0 REVERT JUMPDEST POP PUSH2 0x1F7 PUSH2 0x94C JUMP JUMPDEST PUSH1 0x40 MLOAD PUSH2 0x204 SWAP2 SWAP1 PUSH2 0xEF8 JUMP JUMPDEST PUSH1 0x40 MLOAD DUP1 SWAP2 SUB SWAP1 RETURN JUMPDEST PUSH2 0x215 PUSH2 0x958 JUMP JUMPDEST STOP JUMPDEST CALLVALUE DUP1 ISZERO PUSH2 0x222 JUMPI PUSH0 PUSH0 REVERT JUMPDEST POP PUSH2 0x22B PUSH2 0xA28 JUMP JUMPDEST PUSH1 0x40 MLOAD PUSH2 0x238 SWAP2 SWAP1 PUSH2 0xF11 JUMP JUMPDEST PUSH1 0x40 MLOAD DUP1 SWAP2 SUB SWAP1 RETURN JUMPDEST CALLVALUE DUP1 ISZERO PUSH2 0x24C JUMPI PUSH0 PUSH0 REVERT JUMPDEST POP PUSH2 0x267 PUSH1 0x4 DUP1 CALLDATASIZE SUB DUP2 ADD SWAP1 PUSH2 0x262 SWAP2 SWAP1 PUSH2 0xE7A JUMP JUMPDEST PUSH2 0xA4C JUMP JUMPDEST STOP JUMPDEST CALLVALUE DUP1 ISZERO PUSH2 0x274 JUMPI PUSH0 PUSH0 REVERT JUMPDEST POP PUSH2 0x27D PUSH2 0xAF7 JUMP JUMPDEST STOP JUMPDEST CALLVALUE DUP1 ISZERO PUSH2 0x28A JUMPI PUSH0 PUSH0 REVERT JUMPDEST POP PUSH2 0x2A5 PUSH1 0x4 DUP1 CALLDATASIZE SUB DUP2 ADD SWAP1 PUSH2 0x2A0 SWAP2 SWAP1 PUSH2 0xE7A JUMP JUMPDEST PUSH2 0xBEB JUMP JUMPDEST PUSH1 0x40 MLOAD PUSH2 0x2B5 SWAP5 SWAP4 SWAP3 SWAP2 SWAP1 PUSH2 0xF2A JUMP JUMPDEST PUSH1 0x40 MLOAD DUP1 SWAP2 SUB SWAP1 RETURN JUMPDEST CALLVALUE DUP1 ISZERO PUSH2 0x2C9 JUMPI PUSH0 PUSH0 REVERT JUMPDEST POP PUSH2 0x2D2 PUSH2 0xC45 JUMP JUMPDEST PUSH1 0x40 MLOAD PUSH2 0x2DF SWAP2 SWAP1 PUSH2 0xEF8 JUMP JUMPDEST PUSH1 0x40 MLOAD DUP1 SWAP2 SUB SWAP1 RETURN JUMPDEST CALLVALUE DUP1 ISZERO PUSH2 0x2F3 JUMPI PUSH0 PUSH0 REVERT JUMPDEST POP PUSH2 0x30E PUSH1 0x4 DUP1 CALLDATASIZE SUB DUP2 ADD SWAP1 PUSH2 0x309 SWAP2 SWAP1 PUSH2 0xEA5 JUMP JUMPDEST PUSH2 0xC4B JUMP JUMPDEST PUSH1 0x40 MLOAD PUSH2 0x31C SWAP3 SWAP2 SWAP1 PUSH2 0xF6D JUMP JUMPDEST PUSH1 0x40 MLOAD DUP1 SWAP2 SUB SWAP1 RETURN JUMPDEST PUSH0 PUSH0 SWAP1 SLOAD SWAP1 PUSH2 0x100 EXP SWAP1 DIV PUSH20 0xFFFFFFFFFFFFFFFFFFFFFFFFFFFFFFFFFFFFFFFF AND PUSH20 0xFFFFFFFFFFFFFFFFFFFFFFFFFFFFFFFFFFFFFFFF AND CALLER PUSH20 0xFFFFFFFFFFFFFFFFFFFFFFFFFFFFFFFFFFFFFFFF AND EQ PUSH2 0x3B3 JUMPI PUSH1 0x40 MLOAD PUSH32 0x8C379A000000000000000000000000000000000000000000000000000000000 DUP2 MSTORE PUSH1 0x4 ADD PUSH2 0x3AA SWAP1 PUSH2 0xFEE JUMP JUMPDEST PUSH1 0x40 MLOAD DUP1 SWAP2 SUB SWAP1 REVERT JUMPDEST DUP1 PUSH1 0x2 PUSH0 DUP5 PUSH20 0xFFFFFFFFFFFFFFFFFFFFFFFFFFFFFFFFFFFFFFFF AND PUSH20 0xFFFFFFFFFFFFFFFFFFFFFFFFFFFFFFFFFFFFFFFF AND DUP2 MSTORE PUSH1 0x20 ADD SWAP1 DUP2 MSTORE PUSH1 0x20 ADD PUSH0 KECCAK256 PUSH0 PUSH2 0x100 EXP DUP2 SLOAD DUP2 PUSH1 0xFF MUL NOT AND SWAP1 DUP4 ISZERO ISZERO MUL OR SWAP1 SSTORE POP POP POP JUMP JUMPDEST PUSH1 0x2 PUSH0 CALLER PUSH20 0xFFFFFFFFFFFFFFFFFFFFFFFFFFFFFFFFFFFFFFFF AND PUSH20 0xFFFFFFFFFFFFFFFFFFFFFFFFFFFFFFFFFFFFFFFF AND DUP2 MSTORE PUSH1 0x20 ADD SWAP1 DUP2 MSTORE PUSH1 0x20 ADD PUSH0 KECCAK256 PUSH0 SWAP1 SLOAD SWAP1 PUSH2 0x100 EXP SWAP1 DIV PUSH1 0xFF AND PUSH2 0x494 JUMPI PUSH1 0x40 MLOAD PUSH32 0x8C379A000000000000000000000000000000000000000000000000000000000 DUP2 MSTORE PUSH1 0x4 ADD PUSH2 0x48B SWAP1 PUSH2 0x1056 JUMP JUMPDEST PUSH1 0x40 MLOAD DUP1 SWAP2 SUB SWAP1 REVERT JUMPDEST PUSH0 DUP2 GT PUSH2 0x4D6 JUMPI PUSH1 0x40 MLOAD PUSH32 0x8C379A000000000000000000000000000000000000000000000000000000000 DUP2 MSTORE PUSH1 0x4 ADD PUSH2 0x4CD SWAP1 PUSH2 0x10BE JUMP JUMPDEST PUSH1 0x40 MLOAD DUP1 SWAP2 SUB SWAP1 REVERT JUMPDEST PUSH0 DUP2 PUSH1 0x1 SLOAD PUSH2 0x4E5 SWAP2 SWAP1 PUSH2 0x10DC JUMP JUMPDEST SWAP1 POP DUP1 PUSH1 0x3 PUSH0 CALLER PUSH20 0xFFFFFFFFFFFFFFFFFFFFFFFFFFFFFFFFFFFFFFFF AND PUSH20 0xFFFFFFFFFFFFFFFFFFFFFFFFFFFFFFFFFFFFFFFF AND DUP2 MSTORE PUSH1 0x20 ADD SWAP1 DUP2 MSTORE PUSH1 0x20 ADD PUSH0 KECCAK256 SLOAD LT ISZERO PUSH2 0x567 JUMPI PUSH1 0x40 MLOAD PUSH32 0x8C379A000000000000000000000000000000000000000000000000000000000 DUP2 MSTORE PUSH1 0x4 ADD PUSH2 0x55E SWAP1 PUSH2 0x1167 JUMP JUMPDEST PUSH1 0x40 MLOAD DUP1 SWAP2 SUB SWAP1 REVERT JUMPDEST DUP1 PUSH1 0x3 PUSH0 CALLER PUSH20 0xFFFFFFFFFFFFFFFFFFFFFFFFFFFFFFFFFFFFFFFF AND PUSH20 0xFFFFFFFFFFFFFFFFFFFFFFFFFFFFFFFFFFFFFFFF AND DUP2 MSTORE PUSH1 0x20 ADD SWAP1 DUP2 MSTORE PUSH1 0x20 ADD PUSH0 KECCAK256 PUSH0 DUP3 DUP3 SLOAD PUSH2 0x5B3 SWAP2 SWAP1 PUSH2 0x1185 JUMP JUMPDEST SWAP3 POP POP DUP2 SWAP1 SSTORE POP PUSH0 PUSH0 PUSH0 SWAP1 SLOAD SWAP1 PUSH2 0x100 EXP SWAP1 DIV PUSH20 0xFFFFFFFFFFFFFFFFFFFFFFFFFFFFFFFFFFFFFFFF AND PUSH20 0xFFFFFFFFFFFFFFFFFFFFFFFFFFFFFFFFFFFFFFFF AND DUP3 PUSH1 0x40 MLOAD PUSH2 0x5FF SWAP1 PUSH2 0x11E5 JUMP JUMPDEST PUSH0 PUSH1 0x40 MLOAD DUP1 DUP4 SUB DUP2 DUP6 DUP8 GAS CALL SWAP3 POP POP POP RETURNDATASIZE DUP1 PUSH0 DUP2 EQ PUSH2 0x639 JUMPI PUSH1 0x40 MLOAD SWAP2 POP PUSH1 0x1F NOT PUSH1 0x3F RETURNDATASIZE ADD AND DUP3 ADD PUSH1 0x40 MSTORE RETURNDATASIZE DUP3 MSTORE RETURNDATASIZE PUSH0 PUSH1 0x20 DUP5 ADD RETURNDATACOPY PUSH2 0x63E JUMP JUMPDEST PUSH1 0x60 SWAP2 POP JUMPDEST POP POP SWAP1 POP DUP1 PUSH2 0x682 JUMPI PUSH1 0x40 MLOAD PUSH32 0x8C379A000000000000000000000000000000000000000000000000000000000 DUP2 MSTORE PUSH1 0x4 ADD PUSH2 0x679 SWAP1 PUSH2 0x1269 JUMP JUMPDEST PUSH1 0x40 MLOAD DUP1 SWAP2 SUB SWAP1 REVERT JUMPDEST PUSH32 0x5A085BD44A53F6F30890EE12CCFCD2F694B04DD47FC99BE5617FC6543720A010 CALLER DUP5 DUP5 PUSH1 0x40 MLOAD PUSH2 0x6B5 SWAP4 SWAP3 SWAP2 SWAP1 PUSH2 0x1287 JUMP JUMPDEST PUSH1 0x40 MLOAD DUP1 SWAP2 SUB SWAP1 LOG1 PUSH1 0x4 PUSH1 0x40 MLOAD DUP1 PUSH1 0x80 ADD PUSH1 0x40 MSTORE DUP1 CALLER PUSH20 0xFFFFFFFFFFFFFFFFFFFFFFFFFFFFFFFFFFFFFFFF AND DUP2 MSTORE PUSH1 0x20 ADD DUP6 DUP2 MSTORE PUSH1 0x20 ADD DUP5 DUP2 MSTORE PUSH1 0x20 ADD TIMESTAMP DUP2 MSTORE POP SWAP1 DUP1 PUSH1 0x1 DUP2 SLOAD ADD DUP1 DUP3 SSTORE DUP1 SWAP2 POP POP PUSH1 0x1 SWAP1 SUB SWAP1 PUSH0 MSTORE PUSH1 0x20 PUSH0 KECCAK256 SWAP1 PUSH1 0x4 MUL ADD PUSH0 SWAP1 SWAP2 SWAP1 SWAP2 SWAP1 SWAP2 POP PUSH0 DUP3 ADD MLOAD DUP2 PUSH0 ADD PUSH0 PUSH2 0x100 EXP DUP2 SLOAD DUP2 PUSH20 0xFFFFFFFFFFFFFFFFFFFFFFFFFFFFFFFFFFFFFFFF MUL NOT AND SWAP1 DUP4 PUSH20 0xFFFFFFFFFFFFFFFFFFFFFFFFFFFFFFFFFFFFFFFF AND MUL OR SWAP1 SSTORE POP PUSH1 0x20 DUP3 ADD MLOAD DUP2 PUSH1 0x1 ADD SSTORE PUSH1 0x40 DUP3 ADD MLOAD DUP2 PUSH1 0x2 ADD SSTORE PUSH1 0x60 DUP3 ADD MLOAD DUP2 PUSH1 0x3 ADD SSTORE POP POP POP POP POP JUMP JUMPDEST PUSH1 0x2 PUSH1 0x20 MSTORE DUP1 PUSH0 MSTORE PUSH1 0x40 PUSH0 KECCAK256 PUSH0 SWAP2 POP SLOAD SWAP1 PUSH2 0x100 EXP SWAP1 DIV PUSH1 0xFF AND DUP2 JUMP JUMPDEST PUSH0 PUSH1 0x3 PUSH0 CALLER PUSH20 0xFFFFFFFFFFFFFFFFFFFFFFFFFFFFFFFFFFFFFFFF AND PUSH20 0xFFFFFFFFFFFFFFFFFFFFFFFFFFFFFFFFFFFFFFFF AND DUP2 MSTORE PUSH1 0x20 ADD SWAP1 DUP2 MSTORE PUSH1 0x20 ADD PUSH0 KECCAK256 SLOAD SWAP1 POP PUSH0 DUP2 GT PUSH2 0x825 JUMPI PUSH1 0x40 MLOAD PUSH32 0x8C379A000000000000000000000000000000000000000000000000000000000 DUP2 MSTORE PUSH1 0x4 ADD PUSH2 0x81C SWAP1 PUSH2 0x1306 JUMP JUMPDEST PUSH1 0x40 MLOAD DUP1 SWAP2 SUB SWAP1 REVERT JUMPDEST PUSH0 PUSH1 0x3 PUSH0 CALLER PUSH20 0xFFFFFFFFFFFFFFFFFFFFFFFFFFFFFFFFFFFFFFFF AND PUSH20 0xFFFFFFFFFFFFFFFFFFFFFFFFFFFFFFFFFFFFFFFF AND DUP2 MSTORE PUSH1 0x20 ADD SWAP1 DUP2 MSTORE PUSH1 0x20 ADD PUSH0 KECCAK256 DUP2 SWAP1 SSTORE POP PUSH0 CALLER PUSH20 0xFFFFFFFFFFFFFFFFFFFFFFFFFFFFFFFFFFFFFFFF AND DUP3 PUSH1 0x40 MLOAD PUSH2 0x88C SWAP1 PUSH2 0x11E5 JUMP JUMPDEST PUSH0 PUSH1 0x40 MLOAD DUP1 DUP4 SUB DUP2 DUP6 DUP8 GAS CALL SWAP3 POP POP POP RETURNDATASIZE DUP1 PUSH0 DUP2 EQ PUSH2 0x8C6 JUMPI PUSH1 0x40 MLOAD SWAP2 POP PUSH1 0x1F NOT PUSH1 0x3F RETURNDATASIZE ADD AND DUP3 ADD PUSH1 0x40 MSTORE RETURNDATASIZE DUP3 MSTORE RETURNDATASIZE PUSH0 PUSH1 0x20 DUP5 ADD RETURNDATACOPY PUSH2 0x8CB JUMP JUMPDEST PUSH1 0x60 SWAP2 POP JUMPDEST POP POP SWAP1 POP DUP1 PUSH2 0x90F JUMPI PUSH1 0x40 MLOAD PUSH32 0x8C379A000000000000000000000000000000000000000000000000000000000 DUP2 MSTORE PUSH1 0x4 ADD PUSH2 0x906 SWAP1 PUSH2 0x136E JUMP JUMPDEST PUSH1 0x40 MLOAD DUP1 SWAP2 SUB SWAP1 REVERT JUMPDEST PUSH32 0x304DED04755264F107034CB25C290971BC22F9DABA5725DE3966BFA5D2A6E768 CALLER DUP4 PUSH1 0x40 MLOAD PUSH2 0x940 SWAP3 SWAP2 SWAP1 PUSH2 0xD88 JUMP JUMPDEST PUSH1 0x40 MLOAD DUP1 SWAP2 SUB SWAP1 LOG1 POP POP JUMP JUMPDEST PUSH0 PUSH1 0x4 DUP1 SLOAD SWAP1 POP SWAP1 POP SWAP1 JUMP JUMPDEST PUSH0 CALLVALUE GT PUSH2 0x99A JUMPI PUSH1 0x40 MLOAD PUSH32 0x8C379A000000000000000000000000000000000000000000000000000000000 DUP2 MSTORE PUSH1 0x4 ADD PUSH2 0x991 SWAP1 PUSH2 0x13D6 JUMP JUMPDEST PUSH1 0x40 MLOAD DUP1 SWAP2 SUB SWAP1 REVERT JUMPDEST CALLVALUE PUSH1 0x3 PUSH0 CALLER PUSH20 0xFFFFFFFFFFFFFFFFFFFFFFFFFFFFFFFFFFFFFFFF AND PUSH20 0xFFFFFFFFFFFFFFFFFFFFFFFFFFFFFFFFFFFFFFFF AND DUP2 MSTORE PUSH1 0x20 ADD SWAP1 DUP2 MSTORE PUSH1 0x20 ADD PUSH0 KECCAK256 PUSH0 DUP3 DUP3 SLOAD PUSH2 0x9E6 SWAP2 SWAP1 PUSH2 0xD07 JUMP JUMPDEST SWAP3 POP POP DUP2 SWAP1 SSTORE POP PUSH32 0x537A4888663BF338E0F1E0A482244D95C4A9924065740C78B417480B31C318E4 CALLER CALLVALUE PUSH1 0x40 MLOAD PUSH2 0xA1E SWAP3 SWAP2 SWAP1 PUSH2 0xD88 JUMP JUMPDEST PUSH1 0x40 MLOAD DUP1 SWAP2 SUB SWAP1 LOG1 JUMP JUMPDEST PUSH0 PUSH0 SWAP1 SLOAD SWAP1 PUSH2 0x100 EXP SWAP1 DIV PUSH20 0xFFFFFFFFFFFFFFFFFFFFFFFFFFFFFFFFFFFFFFFF AND DUP2 JUMP JUMPDEST PUSH0 PUSH0 SWAP1 SLOAD SWAP1 PUSH2 0x100 EXP SWAP1 DIV PUSH20 0xFFFFFFFFFFFFFFFFFFFFFFFFFFFFFFFFFFFFFFFF AND PUSH20 0xFFFFFFFFFFFFFFFFFFFFFFFFFFFFFFFFFFFFFFFF AND CALLER PUSH20 0xFFFFFFFFFFFFFFFFFFFFFFFFFFFFFFFFFFFFFFFF AND EQ PUSH2 0xADA JUMPI PUSH1 0x40 MLOAD PUSH32 0x8C379A000000000000000000000000000000000000000000000000000000000 DUP2 MSTORE PUSH1 0x4 ADD PUSH2 0xAD1 SWAP1 PUSH2 0xFEE JUMP JUMPDEST PUSH1 0x40 MLOAD DUP1 SWAP2 SUB SWAP1 REVERT JUMPDEST PUSH8 0xDE0B6B3A7640000 DUP2 PUSH2 0xAEE SWAP2 SWAP1 PUSH2 0x10DC JUMP JUMPDEST PUSH1 0x1 DUP2 SWAP1 SSTORE POP POP JUMP JUMPDEST PUSH0 PUSH0 SWAP1 SLOAD SWAP1 PUSH2 0x100 EXP SWAP1 DIV PUSH20 0xFFFFFFFFFFFFFFFFFFFFFFFFFFFFFFFFFFFFFFFF AND PUSH20 0xFFFFFFFFFFFFFFFFFFFFFFFFFFFFFFFFFFFFFFFF AND CALLER PUSH20 0xFFFFFFFFFFFFFFFFFFFFFFFFFFFFFFFFFFFFFFFF AND EQ PUSH2 0xB85 JUMPI PUSH1 0x40 MLOAD PUSH32 0x8C379A000000000000000000000000000000000000000000000000000000000 DUP2 MSTORE PUSH1 0x4 ADD PUSH2 0xB7C SWAP1 PUSH2 0xFEE JUMP JUMPDEST PUSH1 0x40 MLOAD DUP1 SWAP2 SUB SWAP1 REVERT JUMPDEST PUSH0 PUSH0 SWAP1 SLOAD SWAP1 PUSH2 0x100 EXP SWAP1 DIV PUSH20 0xFFFFFFFFFFFFFFFFFFFFFFFFFFFFFFFFFFFFFFFF AND PUSH20 0xFFFFFFFFFFFFFFFFFFFFFFFFFFFFFFFFFFFFFFFF AND PUSH2 0x8FC SELFBALANCE SWAP1 DUP2 ISZERO MUL SWAP1 PUSH1 0x40 MLOAD PUSH0 PUSH1 0x40 MLOAD DUP1 DUP4 SUB DUP2 DUP6 DUP9 DUP9 CALL SWAP4 POP POP POP POP ISZERO DUP1 ISZERO PUSH2 0xBE8 JUMPI RETURNDATASIZE PUSH0 PUSH0 RETURNDATACOPY RETURNDATASIZE PUSH0 REVERT JUMPDEST POP JUMP JUMPDEST PUSH1 0x4 DUP2 DUP2 SLOAD DUP2 LT PUSH2 0xBFA JUMPI PUSH0 DUP1 REVERT JUMPDEST SWAP1 PUSH0 MSTORE PUSH1 0x20 PUSH0 KECCAK256 SWAP1 PUSH1 0x4 MUL ADD PUSH0 SWAP2 POP SWAP1 POP DUP1 PUSH0 ADD PUSH0 SWAP1 SLOAD SWAP1 PUSH2 0x100 EXP SWAP1 DIV PUSH20 0xFFFFFFFFFFFFFFFFFFFFFFFFFFFFFFFFFFFFFFFF AND SWAP1 DUP1 PUSH1 0x1 ADD SLOAD SWAP1 DUP1 PUSH1 0x2 ADD SLOAD SWAP1 DUP1 PUSH1 0x3 ADD SLOAD SWAP1 POP DUP5 JUMP JUMPDEST PUSH1 0x1 SLOAD DUP2 JUMP JUMPDEST PUSH0 PUSH0 PUSH0 PUSH1 0x3 PUSH0 DUP6 PUSH20 0xFFFFFFFFFFFFFFFFFFFFFFFFFFFFFFFFFFFFFFFF AND PUSH20 0xFFFFFFFFFFFFFFFFFFFFFFFFFFFFFFFFFFFFFFFF AND DUP2 MSTORE PUSH1 0x20 ADD SWAP1 DUP2 MSTORE PUSH1 0x20 ADD PUSH0 KECCAK256 SLOAD SWAP1 POP PUSH8 0xDE0B6B3A7640000 DUP2 PUSH2 0xCA2 SWAP2 SWAP1 PUSH2 0x1421 JUMP JUMPDEST SWAP3 POP PUSH6 0x5AF3107A4000 PUSH8 0xDE0B6B3A7640000 DUP3 PUSH2 0xCBF SWAP2 SWAP1 PUSH2 0x1451 JUMP JUMPDEST PUSH2 0xCC9 SWAP2 SWAP1 PUSH2 0x1421 JUMP JUMPDEST SWAP2 POP POP SWAP2 POP SWAP2 JUMP JUMPDEST PUSH0 DUP2 SWAP1 POP SWAP2 SWAP1 POP JUMP JUMPDEST PUSH32 0x4E487B7100000000000000000000000000000000000000000000000000000000 PUSH0 MSTORE PUSH1 0x11 PUSH1 0x4 MSTORE PUSH1 0x24 PUSH0 REVERT JUMPDEST PUSH0 PUSH2 0xD11 DUP3 PUSH2 0xCD1 JUMP JUMPDEST SWAP2 POP PUSH2 0xD1C DUP4 PUSH2 0xCD1 JUMP JUMPDEST SWAP3 POP DUP3 DUP3 ADD SWAP1 POP DUP1 DUP3 GT ISZERO PUSH2 0xD34 JUMPI PUSH2 0xD33 PUSH2 0xCDA JUMP JUMPDEST JUMPDEST SWAP3 SWAP2 POP POP JUMP JUMPDEST PUSH0 PUSH20 0xFFFFFFFFFFFFFFFFFFFFFFFFFFFFFFFFFFFFFFFF DUP3 AND SWAP1 POP SWAP2 SWAP1 POP JUMP JUMPDEST PUSH0 PUSH2 0xD63 DUP3 PUSH2 0xD3A JUMP JUMPDEST SWAP1 POP SWAP2 SWAP1 POP JUMP JUMPDEST PUSH2 0xD73 DUP2 PUSH2 0xD59 JUMP JUMPDEST DUP3 MSTORE POP POP JUMP JUMPDEST PUSH2 0xD82 DUP2 PUSH2 0xCD1 JUMP JUMPDEST DUP3 MSTORE POP POP JUMP JUMPDEST PUSH0 PUSH1 0x40 DUP3 ADD SWAP1 POP PUSH2 0xD9B PUSH0 DUP4 ADD DUP6 PUSH2 0xD6A JUMP JUMPDEST PUSH2 0xDA8 PUSH1 0x20 DUP4 ADD DUP5 PUSH2 0xD79 JUMP JUMPDEST SWAP4 SWAP3 POP POP POP JUMP JUMPDEST PUSH0 PUSH0 REVERT JUMPDEST PUSH2 0xDBC DUP2 PUSH2 0xD59 JUMP JUMPDEST DUP2 EQ PUSH2 0xDC6 JUMPI PUSH0 PUSH0 REVERT JUMPDEST POP JUMP JUMPDEST PUSH0 DUP2 CALLDATALOAD SWAP1 POP PUSH2 0xDD7 DUP2 PUSH2 0xDB3 JUMP JUMPDEST SWAP3 SWAP2 POP POP JUMP JUMPDEST PUSH0 DUP2 ISZERO ISZERO SWAP1 POP SWAP2 SWAP1 POP JUMP JUMPDEST PUSH2 0xDF1 DUP2 PUSH2 0xDDD JUMP JUMPDEST DUP2 EQ PUSH2 0xDFB JUMPI PUSH0 PUSH0 REVERT JUMPDEST POP JUMP JUMPDEST PUSH0 DUP2 CALLDATALOAD SWAP1 POP PUSH2 0xE0C DUP2 PUSH2 0xDE8 JUMP JUMPDEST SWAP3 SWAP2 POP POP JUMP JUMPDEST PUSH0 PUSH0 PUSH1 0x40 DUP4 DUP6 SUB SLT ISZERO PUSH2 0xE28 JUMPI PUSH2 0xE27 PUSH2 0xDAF JUMP JUMPDEST JUMPDEST PUSH0 PUSH2 0xE35 DUP6 DUP3 DUP7 ADD PUSH2 0xDC9 JUMP JUMPDEST SWAP3 POP POP PUSH1 0x20 PUSH2 0xE46 DUP6 DUP3 DUP7 ADD PUSH2 0xDFE JUMP JUMPDEST SWAP2 POP POP SWAP3 POP SWAP3 SWAP1 POP JUMP JUMPDEST PUSH2 0xE59 DUP2 PUSH2 0xCD1 JUMP JUMPDEST DUP2 EQ PUSH2 0xE63 JUMPI PUSH0 PUSH0 REVERT JUMPDEST POP JUMP JUMPDEST PUSH0 DUP2 CALLDATALOAD SWAP1 POP PUSH2 0xE74 DUP2 PUSH2 0xE50 JUMP JUMPDEST SWAP3 SWAP2 POP POP JUMP JUMPDEST PUSH0 PUSH1 0x20 DUP3 DUP5 SUB SLT ISZERO PUSH2 0xE8F JUMPI PUSH2 0xE8E PUSH2 0xDAF JUMP JUMPDEST JUMPDEST PUSH0 PUSH2 0xE9C DUP5 DUP3 DUP6 ADD PUSH2 0xE66 JUMP JUMPDEST SWAP2 POP POP SWAP3 SWAP2 POP POP JUMP JUMPDEST PUSH0 PUSH1 0x20 DUP3 DUP5 SUB SLT ISZERO PUSH2 0xEBA JUMPI PUSH2 0xEB9 PUSH2 0xDAF JUMP JUMPDEST JUMPDEST PUSH0 PUSH2 0xEC7 DUP5 DUP3 DUP6 ADD PUSH2 0xDC9 JUMP JUMPDEST SWAP2 POP POP SWAP3 SWAP2 POP POP JUMP JUMPDEST PUSH2 0xED9 DUP2 PUSH2 0xDDD JUMP JUMPDEST DUP3 MSTORE POP POP JUMP JUMPDEST PUSH0 PUSH1 0x20 DUP3 ADD SWAP1 POP PUSH2 0xEF2 PUSH0 DUP4 ADD DUP5 PUSH2 0xED0 JUMP JUMPDEST SWAP3 SWAP2 POP POP JUMP JUMPDEST PUSH0 PUSH1 0x20 DUP3 ADD SWAP1 POP PUSH2 0xF0B PUSH0 DUP4 ADD DUP5 PUSH2 0xD79 JUMP JUMPDEST SWAP3 SWAP2 POP POP JUMP JUMPDEST PUSH0 PUSH1 0x20 DUP3 ADD SWAP1 POP PUSH2 0xF24 PUSH0 DUP4 ADD DUP5 PUSH2 0xD6A JUMP JUMPDEST SWAP3 SWAP2 POP POP JUMP JUMPDEST PUSH0 PUSH1 0x80 DUP3 ADD SWAP1 POP PUSH2 0xF3D PUSH0 DUP4 ADD DUP8 PUSH2 0xD6A JUMP JUMPDEST PUSH2 0xF4A PUSH1 0x20 DUP4 ADD DUP7 PUSH2 0xD79 JUMP JUMPDEST PUSH2 0xF57 PUSH1 0x40 DUP4 ADD DUP6 PUSH2 0xD79 JUMP JUMPDEST PUSH2 0xF64 PUSH1 0x60 DUP4 ADD DUP5 PUSH2 0xD79 JUMP JUMPDEST SWAP6 SWAP5 POP POP POP POP POP JUMP JUMPDEST PUSH0 PUSH1 0x40 DUP3 ADD SWAP1 POP PUSH2 0xF80 PUSH0 DUP4 ADD DUP6 PUSH2 0xD79 JUMP JUMPDEST PUSH2 0xF8D PUSH1 0x20 DUP4 ADD DUP5 PUSH2 0xD79 JUMP JUMPDEST SWAP4 SWAP3 POP POP POP JUMP JUMPDEST PUSH0 DUP3 DUP3 MSTORE PUSH1 0x20 DUP3 ADD SWAP1 POP SWAP3 SWAP2 POP POP JUMP JUMPDEST PUSH32 0x4E75722042657472656962657221000000000000000000000000000000000000 PUSH0 DUP3 ADD MSTORE POP JUMP JUMPDEST PUSH0 PUSH2 0xFD8 PUSH1 0xE DUP4 PUSH2 0xF94 JUMP JUMPDEST SWAP2 POP PUSH2 0xFE3 DUP3 PUSH2 0xFA4 JUMP JUMPDEST PUSH1 0x20 DUP3 ADD SWAP1 POP SWAP2 SWAP1 POP JUMP JUMPDEST PUSH0 PUSH1 0x20 DUP3 ADD SWAP1 POP DUP2 DUP2 SUB PUSH0 DUP4 ADD MSTORE PUSH2 0x1005 DUP2 PUSH2 0xFCC JUMP JUMPDEST SWAP1 POP SWAP2 SWAP1 POP JUMP JUMPDEST PUSH32 0x4E69636874206265726563687469677421000000000000000000000000000000 PUSH0 DUP3 ADD MSTORE POP JUMP JUMPDEST PUSH0 PUSH2 0x1040 PUSH1 0x11 DUP4 PUSH2 0xF94 JUMP JUMPDEST SWAP2 POP PUSH2 0x104B DUP3 PUSH2 0x100C JUMP JUMPDEST PUSH1 0x20 DUP3 ADD SWAP1 POP SWAP2 SWAP1 POP JUMP JUMPDEST PUSH0 PUSH1 0x20 DUP3 ADD SWAP1 POP DUP2 DUP2 SUB PUSH0 DUP4 ADD MSTORE PUSH2 0x106D DUP2 PUSH2 0x1034 JUMP JUMPDEST SWAP1 POP SWAP2 SWAP1 POP JUMP JUMPDEST PUSH32 0x6B5768206D757373203E2030207365696E000000000000000000000000000000 PUSH0 DUP3 ADD MSTORE POP JUMP JUMPDEST PUSH0 PUSH2 0x10A8 PUSH1 0x11 DUP4 PUSH2 0xF94 JUMP JUMPDEST SWAP2 POP PUSH2 0x10B3 DUP3 PUSH2 0x1074 JUMP JUMPDEST PUSH1 0x20 DUP3 ADD SWAP1 POP SWAP2 SWAP1 POP JUMP JUMPDEST PUSH0 PUSH1 0x20 DUP3 ADD SWAP1 POP DUP2 DUP2 SUB PUSH0 DUP4 ADD MSTORE PUSH2 0x10D5 DUP2 PUSH2 0x109C JUMP JUMPDEST SWAP1 POP SWAP2 SWAP1 POP JUMP JUMPDEST PUSH0 PUSH2 0x10E6 DUP3 PUSH2 0xCD1 JUMP JUMPDEST SWAP2 POP PUSH2 0x10F1 DUP4 PUSH2 0xCD1 JUMP JUMPDEST SWAP3 POP DUP3 DUP3 MUL PUSH2 0x10FF DUP2 PUSH2 0xCD1 JUMP JUMPDEST SWAP2 POP DUP3 DUP3 DIV DUP5 EQ DUP4 ISZERO OR PUSH2 0x1116 JUMPI PUSH2 0x1115 PUSH2 0xCDA JUMP JUMPDEST JUMPDEST POP SWAP3 SWAP2 POP POP JUMP JUMPDEST PUSH32 0x4E696368742067656E756720477574686162656E210000000000000000000000 PUSH0 DUP3 ADD MSTORE POP JUMP JUMPDEST PUSH0 PUSH2 0x1151 PUSH1 0x15 DUP4 PUSH2 0xF94 JUMP JUMPDEST SWAP2 POP PUSH2 0x115C DUP3 PUSH2 0x111D JUMP JUMPDEST PUSH1 0x20 DUP3 ADD SWAP1 POP SWAP2 SWAP1 POP JUMP JUMPDEST PUSH0 PUSH1 0x20 DUP3 ADD SWAP1 POP DUP2 DUP2 SUB PUSH0 DUP4 ADD MSTORE PUSH2 0x117E DUP2 PUSH2 0x1145 JUMP JUMPDEST SWAP1 POP SWAP2 SWAP1 POP JUMP JUMPDEST PUSH0 PUSH2 0x118F DUP3 PUSH2 0xCD1 JUMP JUMPDEST SWAP2 POP PUSH2 0x119A DUP4 PUSH2 0xCD1 JUMP JUMPDEST SWAP3 POP DUP3 DUP3 SUB SWAP1 POP DUP2 DUP2 GT ISZERO PUSH2 0x11B2 JUMPI PUSH2 0x11B1 PUSH2 0xCDA JUMP JUMPDEST JUMPDEST SWAP3 SWAP2 POP POP JUMP JUMPDEST PUSH0 DUP2 SWAP1 POP SWAP3 SWAP2 POP POP JUMP JUMPDEST POP JUMP JUMPDEST PUSH0 PUSH2 0x11D0 PUSH0 DUP4 PUSH2 0x11B8 JUMP JUMPDEST SWAP2 POP PUSH2 0x11DB DUP3 PUSH2 0x11C2 JUMP JUMPDEST PUSH0 DUP3 ADD SWAP1 POP SWAP2 SWAP1 POP JUMP JUMPDEST PUSH0 PUSH2 0x11EF DUP3 PUSH2 0x11C5 JUMP JUMPDEST SWAP2 POP DUP2 SWAP1 POP SWAP2 SWAP1 POP JUMP JUMPDEST PUSH32 0x556562657277656973756E6720616E20426574726569626572206665686C6765 PUSH0 DUP3 ADD MSTORE PUSH32 0x7363686C6167656E210000000000000000000000000000000000000000000000 PUSH1 0x20 DUP3 ADD MSTORE POP JUMP JUMPDEST PUSH0 PUSH2 0x1253 PUSH1 0x29 DUP4 PUSH2 0xF94 JUMP JUMPDEST SWAP2 POP PUSH2 0x125E DUP3 PUSH2 0x11F9 JUMP JUMPDEST PUSH1 0x40 DUP3 ADD SWAP1 POP SWAP2 SWAP1 POP JUMP JUMPDEST PUSH0 PUSH1 0x20 DUP3 ADD SWAP1 POP DUP2 DUP2 SUB PUSH0 DUP4 ADD MSTORE PUSH2 0x1280 DUP2 PUSH2 0x1247 JUMP JUMPDEST SWAP1 POP SWAP2 SWAP1 POP JUMP JUMPDEST PUSH0 PUSH1 0x60 DUP3 ADD SWAP1 POP PUSH2 0x129A PUSH0 DUP4 ADD DUP7 PUSH2 0xD6A JUMP JUMPDEST PUSH2 0x12A7 PUSH1 0x20 DUP4 ADD DUP6 PUSH2 0xD79 JUMP JUMPDEST PUSH2 0x12B4 PUSH1 0x40 DUP4 ADD DUP5 PUSH2 0xD79 JUMP JUMPDEST SWAP5 SWAP4 POP POP POP POP JUMP JUMPDEST PUSH32 0x4B65696E20477574686162656E20766F7268616E64656E210000000000000000 PUSH0 DUP3 ADD MSTORE POP JUMP JUMPDEST PUSH0 PUSH2 0x12F0 PUSH1 0x18 DUP4 PUSH2 0xF94 JUMP JUMPDEST SWAP2 POP PUSH2 0x12FB DUP3 PUSH2 0x12BC JUMP JUMPDEST PUSH1 0x20 DUP3 ADD SWAP1 POP SWAP2 SWAP1 POP JUMP JUMPDEST PUSH0 PUSH1 0x20 DUP3 ADD SWAP1 POP DUP2 DUP2 SUB PUSH0 DUP4 ADD MSTORE PUSH2 0x131D DUP2 PUSH2 0x12E4 JUMP JUMPDEST SWAP1 POP SWAP2 SWAP1 POP JUMP JUMPDEST PUSH32 0x4175737A61686C756E67206665686C67657363686C6167656E21000000000000 PUSH0 DUP3 ADD MSTORE POP JUMP JUMPDEST PUSH0 PUSH2 0x1358 PUSH1 0x1A DUP4 PUSH2 0xF94 JUMP JUMPDEST SWAP2 POP PUSH2 0x1363 DUP3 PUSH2 0x1324 JUMP JUMPDEST PUSH1 0x20 DUP3 ADD SWAP1 POP SWAP2 SWAP1 POP JUMP JUMPDEST PUSH0 PUSH1 0x20 DUP3 ADD SWAP1 POP DUP2 DUP2 SUB PUSH0 DUP4 ADD MSTORE PUSH2 0x1385 DUP2 PUSH2 0x134C JUMP JUMPDEST SWAP1 POP SWAP2 SWAP1 POP JUMP JUMPDEST PUSH32 0x4269747465204554482073656E64656E21000000000000000000000000000000 PUSH0 DUP3 ADD MSTORE POP JUMP JUMPDEST PUSH0 PUSH2 0x13C0 PUSH1 0x11 DUP4 PUSH2 0xF94 JUMP JUMPDEST SWAP2 POP PUSH2 0x13CB DUP3 PUSH2 0x138C JUMP JUMPDEST PUSH1 0x20 DUP3 ADD SWAP1 POP SWAP2 SWAP1 POP JUMP JUMPDEST PUSH0 PUSH1 0x20 DUP3 ADD SWAP1 POP DUP2 DUP2 SUB PUSH0 DUP4 ADD MSTORE PUSH2 0x13ED DUP2 PUSH2 0x13B4 JUMP JUMPDEST SWAP1 POP SWAP2 SWAP1 POP JUMP JUMPDEST PUSH32 0x4E487B7100000000000000000000000000000000000000000000000000000000 PUSH0 MSTORE PUSH1 0x12 PUSH1 0x4 MSTORE PUSH1 0x24 PUSH0 REVERT JUMPDEST PUSH0 PUSH2 0x142B DUP3 PUSH2 0xCD1 JUMP JUMPDEST SWAP2 POP PUSH2 0x1436 DUP4 PUSH2 0xCD1 JUMP JUMPDEST SWAP3 POP DUP3 PUSH2 0x1446 JUMPI PUSH2 0x1445 PUSH2 0x13F4 JUMP JUMPDEST JUMPDEST DUP3 DUP3 DIV SWAP1 POP SWAP3 SWAP2 POP POP JUMP JUMPDEST PUSH0 PUSH2 0x145B DUP3 PUSH2 0xCD1 JUMP JUMPDEST SWAP2 POP PUSH2 0x1466 DUP4 PUSH2 0xCD1 JUMP JUMPDEST SWAP3 POP DUP3 PUSH2 0x1476 JUMPI PUSH2 0x1475 PUSH2 0x13F4 JUMP JUMPDEST JUMPDEST DUP3 DUP3 MOD SWAP1 POP SWAP3 SWAP2 POP POP JUMP INVALID LOG2 PUSH5 0x6970667358 0x22 SLT KECCAK256 PUSH27 0xA348C041CF4553DA4C9A3619520880C2E38789AA18C74360F0EE5F 0x4D 0xBA PUSH12 0xEF64736F6C634300081E0033 "
				},
				"gasEstimates": {
					"creation": {
						"codeDepositCost": "1060600",
						"executionCost": "47468",
						"totalCost": "1108068"
					},
					"external": {
						"auszahlen()": "infinite",
						"benutzerAuszahlen()": "infinite",
						"berechtigt(address)": "2878",
						"betreiber()": "2507",
						"einzahlen()": "infinite",
						"guthabenInEth(address)": "infinite",
						"ladeHistorie(uint256)": "infinite",
						"ladeHistorieAnzahl()": "2529",
						"ladeStarten(uint256)": "infinite",
						"preisProKWhWei()": "2513",
						"setBerechtigung(address,bool)": "27148",
						"setPreisProKWh(uint256)": "infinite"
					}
				},
				"methodIdentifiers": {
					"auszahlen()": "bb864be3",
					"benutzerAuszahlen()": "43b4aca5",
					"berechtigt(address)": "2f12f996",
					"betreiber()": "856e44e3",
					"einzahlen()": "81fb3803",
					"guthabenInEth(address)": "e529953a",
					"ladeHistorie(uint256)": "c3de6c74",
					"ladeHistorieAnzahl()": "5b590675",
					"ladeStarten(uint256)": "1d7f2625",
					"preisProKWhWei()": "cd871ae0",
					"setBerechtigung(address,bool)": "04fa7e3c",
					"setPreisProKWh(uint256)": "9b620d79"
				}
			},
			"storageLayout": {
				"storage": [
					{
						"astId": 3,
						"contract": "ChargeChain/LadeSaeule.sol:LadeSaeule",
						"label": "betreiber",
						"offset": 0,
						"slot": "0",
						"type": "t_address"
					},
					{
						"astId": 6,
						"contract": "ChargeChain/LadeSaeule.sol:LadeSaeule",
						"label": "preisProKWhWei",
						"offset": 0,
						"slot": "1",
						"type": "t_uint256"
					},
					{
						"astId": 10,
						"contract": "ChargeChain/LadeSaeule.sol:LadeSaeule",
						"label": "berechtigt",
						"offset": 0,
						"slot": "2",
						"type": "t_mapping(t_address,t_bool)"
					},
					{
						"astId": 14,
						"contract": "ChargeChain/LadeSaeule.sol:LadeSaeule",
						"label": "guthaben",
						"offset": 0,
						"slot": "3",
						"type": "t_mapping(t_address,t_uint256)"
					},
					{
						"astId": 47,
						"contract": "ChargeChain/LadeSaeule.sol:LadeSaeule",
						"label": "ladeHistorie",
						"offset": 0,
						"slot": "4",
						"type": "t_array(t_struct(Ladevorgang)43_storage)dyn_storage"
					}
				],
				"types": {
					"t_address": {
						"encoding": "inplace",
						"label": "address",
						"numberOfBytes": "20"
					},
					"t_array(t_struct(Ladevorgang)43_storage)dyn_storage": {
						"base": "t_struct(Ladevorgang)43_storage",
						"encoding": "dynamic_array",
						"label": "struct LadeSaeule.Ladevorgang[]",
						"numberOfBytes": "32"
					},
					"t_bool": {
						"encoding": "inplace",
						"label": "bool",
						"numberOfBytes": "1"
					},
					"t_mapping(t_address,t_bool)": {
						"encoding": "mapping",
						"key": "t_address",
						"label": "mapping(address => bool)",
						"numberOfBytes": "32",
						"value": "t_bool"
					},
					"t_mapping(t_address,t_uint256)": {
						"encoding": "mapping",
						"key": "t_address",
						"label": "mapping(address => uint256)",
						"numberOfBytes": "32",
						"value": "t_uint256"
					},
					"t_struct(Ladevorgang)43_storage": {
						"encoding": "inplace",
						"label": "struct LadeSaeule.Ladevorgang",
						"members": [
							{
								"astId": 36,
								"contract": "ChargeChain/LadeSaeule.sol:LadeSaeule",
								"label": "nutzer",
								"offset": 0,
								"slot": "0",
								"type": "t_address"
							},
							{
								"astId": 38,
								"contract": "ChargeChain/LadeSaeule.sol:LadeSaeule",
								"label": "kWh",
								"offset": 0,
								"slot": "1",
								"type": "t_uint256"
							},
							{
								"astId": 40,
								"contract": "ChargeChain/LadeSaeule.sol:LadeSaeule",
								"label": "betragWei",
								"offset": 0,
								"slot": "2",
								"type": "t_uint256"
							},
							{
								"astId": 42,
								"contract": "ChargeChain/LadeSaeule.sol:LadeSaeule",
								"label": "zeitpunkt",
								"offset": 0,
								"slot": "3",
								"type": "t_uint256"
							}
						],
						"numberOfBytes": "128"
					},
					"t_uint256": {
						"encoding": "inplace",
						"label": "uint256",
						"numberOfBytes": "32"
					}
				}
			},
			"userdoc": {
				"kind": "user",
				"methods": {},
				"version": 1
			}
		}
	}
}